:1000000098CA0020C54801002F740200B1480100C1
:10001000B1480100B1480100B1480100B1480100F8
:10002000000000000000000000000000794A01000C
:10003000B148010000000000394A0100B148010048
:10004000F54B0100F54B0100F54B0100F54B0100AC
:10005000F54B0100F54B0100F54B0100F54B01009C
:10006000F54B0100F54B0100F54B0100F54B01008C
:10007000F54B0100F54B0100F54B0100F54B01007C
:10025000F54B010023A20200F54B0100F54B010014
:10026000F54B0100F54B01006DA20200F54B0100BA
:10027000F54B0100F54B0100F54B0100F54B01007A
:10028000F54B0100F54B0100F54B0100F54B01006A
:10029000F54B0100F54B0100F54B0100F54B01005A
:1002A000F54B0100F54B0100F54B0100F54B01004A
:1002B000F54B0100F54B0100F54B0100F54B01003A
:1002C000F54B0100F54B0100F54B0100F54B01002A
:1002D000F54B0100F54B0100F54B0100F54B01001A
:1002E000F54B0100F54B0100F54B0100F54B01000A
:1002F000F54B0100F54B0100F54B0100F54B0100FA
:10030000F54B0100F54B0100F54B0100F54B0100E9
:10031000F54B0100F54B0100F54B0100F54B0100D9
:10032000F54B0100F54B0100F54B0100F54B0100C9
:10033000F54B0100F54B0100F54B0100F54B0100B9
:10034000F54B0100F54B0100F54B0100F54B0100A9
:10035000F54B0100F54B0100F54B0100F54B010099
:10036000F54B0100F54B0100F54B0100F54B010089
:10037000F54B0100F54B0100F54B0100F54B010079
:10038000F54B0100F54B0100F54B0100F54B010069
:10039000F54B0100F54B0100F54B0100F54B010059
:1003A000F54B0100F54B0100F54B0100F54B010049
:1003B000F54B0100F54B0100F54B0100F54B010039
:1003C000F54B0100F54B0100F54B0100F54B010029
:1003D000F54B010057A20200F54B0100F54B01005F
:1003E000F54B0100F54B0100F54B0100F54B010009
:1003F000F54B0100F54B0100F54B0100F54B0100F9
:10040000F54B0100F54B0100F54B0100F54B0100E8
:10041000F54B0100F54B0100F54B0100F54B0100D8
:10042000F54B0100F54B0100F54B0100F54B0100C8
:10043000F54B0100F54B0100F54B0100F54B0100B8
:10044000F54B0100F54B0100F54B0100F54B0100A8
:10045000F54B0100F54B0100F54B0100F54B010098
:10046000F54B0100F54B0100F54B0100F54B010088
:0C047000F54B0100F54B0100F54B0100BD
:100480002DE9F00791E8F807B2E802105B1854EB89
:100490000C04B2E802104D4156EB0C06B2E8021013
:1004A0004F4158EB0C08B2E8021059EB01095AEB26
:1004B0000C0A80E8F80780410130BDE8F00770477A
:1004C0002DE9F00791E8F807B2E802105B1A74EB27
:1004D0000C04B2E802108D4176EB0C06B2E8021073
:1004E0008F4178EB0C08B2E8021079EB01097AEB46
:1004F0000C0A80E8F80780414042BDE8F0077047E9
:100500002DE9F007524290E87800B1E880071740E3
:10051000DB1918EA020854EB080419EA020955EB42
:1005200009051AEA020A56EB0A0678C090E8780034
:10053000B1E8800717407B4118EA020854EB080431
:1005400019EA020955EB09051AEA020A56EB0A06EE
:1005500078C080410130BDE8F00770472DE9F00711
:10056000524290E87800B1E880071740DB1B18EA98
:10057000020874EB080419EA020975EB09051AEA86
:10058000020A76EB0A0678C090E87800B1E88007A6
:100590001740BB4118EA020874EB080419EA020983
:1005A00075EB09051AEA020A76EB0A0678C0804163
:1005B0004042BDE8F00770472DE9F00152424FF08C
:1005C000040890E8300091E8C000A31B1340E41A2F
:1005D000F618EB1B1340ED1AFF1830C0C0C1B8F17C
:1005E0000108EED1BDE8F001704700BF00B592E808
:1005F000DC072DE9DC07B1E8805702B4A7FB025104
:100600000A95A8FB020BE7FB6310E9FB62B00B91B4
:10061000A8FB0351EAFB6201E7FB64B5E7FB660553
:10062000E8FB6615CDF830B0A9FB03B6EAFB63160C
:10063000ECFB6356E8FB640BE9FB641BEAFB645BC1
:10064000ECFB646B0D90ACFB0230059CEEFB625042
:10065000E9FB6460EAFB64B0E7FB6431E8FB6451EA
:10066000069CE8FB6461E9FB64B1EAFB64010E935C
:10067000A7FB0432079CE7FB6462E8FB64B2E9FB7A
:100680006402EAFB6412049CE9FB6453EAFB6463C2
:10069000089CE7FB64B3E8FB6403E9FB6413EAFB33
:1006A00064230F955DF8049B99E80006DDF800804F
:1006B000A9FB0854EAFB68B4DDF81080ECFB680481
:1006C000EEFB6814E9FB6824EAFB6834DDF804807B
:1006D000EEFB6865E9FB68B5EAFB6805DDF81480A8
:1006E000ECFB6815EEFB6825E9FB6835EAFB68451D
:1006F0000F96DDF80880AEFB0876E9FB6806EAFB9A
:100700006816DDF81880ECFB6826EEFB6836E9FB1E
:100710006846EAFB6856DDF80C80ECFB68B7EEFB38
:100720006807E9FB6817EAFB6827DDF81C80ECFB2B
:100730006837EEFB6847E9FB6857EAFB686708B073
:1007400000BD00BF2DE9F14F87B0FFF74FFFDDF887
:100750001C8008F1200888E8FF00FFBC87E87F08BC
:10076000BDE8F08F00B591E89857A3FB03520195BF
:10077000A3FB0401E3FB6420E3FB67100292A3FBED
:100780000752E3FB6802E4FB6415E3FB6805E3FB47
:1007900069250391A4FB07B6E3FB6926E3FB6A56D0
:1007A000E4FB670BE4FB682BE3FB6A5BE3FB6C6B2E
:1007B0000490A4FB0810E4FB6950E3FB6C60E3FBCE
:1007C0006EB0E7FB6721E4FB6951E4FB6A61E3FB80
:1007D0006EB1E4FB6E010592A7FB0832E4FB6A628E
:1007E000E4FB6CB2E4FB6E02E7FB6E12E7FB6853BE
:1007F000E7FB6963E4FB6CB3E7FB6C03E7FB6E1399
:10080000E8FB6E230695A7FB0954E7FB6AB4E7FBF8
:100810006C04E8FB6C14E8FB6E24E9FB6E34E8FB27
:100820006865E7FB6AB5E8FB6A05E8FB6C15E9FB60
:100830006C25E9FB6E35EAFB6E450796A8FB097649
:10084000E8FB6A06E9FB6A16E9FB6C26EAFB6C36F4
:10085000EAFB6E46ECFB6E56E8FB69B7E9FB6907FD
:10086000E9FB6A17EAFB6A27EAFB6C37ECFB6C478B
:10087000ECFB6E57EEFB6E6700BD00BF2DE9F14F3C
:1008800087B0FFF76FFFDDF81C8008F1200888E8CB
:10089000FF00FFBC87E87F08BDE8F08F30B44FF061
:1008A000000310F8014B11F8015B013A84EA0504DA
:1008B00043EA0403F5D1A3F101034FEAD37030BC3E
:1008C000704700BF4FF0000310F8012B013943EAD5
:1008D0000203F9D1A3F101034FEAD370704700BFBF
:1008E00030B411F8014B12F8015B6C4000F8014B79
:1008F000013BF6D130BC70472DE9F00791E8F807CD
:10090000B2E802105B1854EB0C04B2E802104D413F
:1009100056EB0C06B2E802104F4158EB0C08B2E857
:10092000021059EB01095AEB0C0A8941B3F1FF336C
:1009300074F1FF3475F1FF3576F1000677F10007A9
:1009400078F1000879F101097AF1FF3A51F10001DB
:100950005B184C414D4156F1000657F1000758F124
:10096000000859EBD1795AEB010A80E8F807BDE895
:10097000F00770472DE9F00791E8F807B2E8021098
:100980005B1A74EB0C04B2E802108D4176EB0C0696
:10099000B2E802108F4178EB0C08B2E8021079EB54
:1009A00001097AEB0C0A89415B184C414D4156F123
:1009B000000657F1000758F1000859EBD1795AEBBE
:1009C000010A80E8F807BDE8F007704718EB040853
:1009D00059EB05095AEB060A5BEB070B5FF0000CBD
:1009E0004CF1000C18EB050859EB06095AEB070A05
:1009F0005BEB070B50EB0C005FF0000C51EB0C01B4
:100A000052EB0C0263414CF1000CB8EB070879F192
:100A100000097AF1000A7BEB040BA841B141A24125
:100A2000B3416CF1000CBBEB050BB041B941AA41DD
:100A3000BB416CF1000C4CF001068CF0020718EB86
:100A4000060859EB6C095AEB6C0A7BEB6C0B70EBEC
:100A50006C0471EB6C0572EB670653EB6C076CEB87
:100A60006C0C18EB0C0059EB0C015AEB0C025BF10F
:100A7000000354F1000455F1000556EBDC7657EB0A
:100A80000C0770472DE9F14F87B0FFF7AFFDDDF898
:100A90001080DDF81490DDF818A0FFF797FFBDE88F
:100AA000000FFFF793FF03B05DF8048B88E8FF00A9
:100AB000BDE8F08F2DE9F14F87B0FFF753FEDDF869
:100AC0001080DDF81490DDF818A0FFF77FFFBDE877
:100AD000000FFFF77BFF03B05DF8048B88E8FF0091
:100AE000BDE8F08F064A074BDB7802604FF4427294
:100AF000C37100238280082203728271704700BF95
:100B0000190B0100080F0020064A074B1B790260F1
:100B10004FF4B872C371FF2382800822037282717E
:100B2000704700BFB5060100080F00202DE9F34112
:100B3000C41D0028064624F007040CBF00202046F0
:100B400000F0C6FD071E04DA6FF00B0002B0BDE82E
:100B5000F0810EB9FC42F7D4354D297AE879AB7AA9
:100B600003316A7A03300CF0FFFA0028ECDB3C44D6
:100B7000A978EB78002E04F10304194424F003044F
:100B800000FB01F10CBF0020204600F04BFF204489
:100B90000EB90028D8DB2B790446B3B1697C19441F
:100BA0006B791944FF29CFDC0330002EAA89C9B222
:100BB00020F003040CBF0020204600F0A3FF002813
:100BC000C2DB04440EB9002CBEDB012000F076FD30
:100BD000C8B1E97AB9B195F828300734002B24F070
:100BE000070415BF402325234FF481722822002ECD
:100BF00014BF2046002002F03DFD0028A4DB044481
:100C00000EB9002CA0DBAB7BDBB12B7993B10734A1
:100C1000002EA97B24F007040CBF0020204605F01D
:100C2000A3FB002890DB04445EB9002C09DA8BE7B3
:100C3000080F0020012000F041FD10B1EB7A002BDD
:100C4000E5D1714B1B6893B1A97981B10334002EB2
:100C5000EA7B24F003040CBF0020204698470028BC
:100C6000FFF672AF044416B9002CFFF66DAF674B68
:100C70001B688BB1297C79B10334002E24F0030466
:100C80000CBF0020204698470028FFF65DAF0444C3
:100C900016B9002CFFF658AF5D4B1F68B7B1697CE1
:100CA000A1B10334002E2B7D24F0030408BF0020E3
:100CB000009318BF2046EB7CAA7CB8470028FFF6BB
:100CC00043AF044416B9002CFFF63EAF072000F0F6
:100CD000F5FC98B1A97989B10334002EAA7D24F0DE
:100CE00003040CBF0020204600F0FAFF0028FFF6A6
:100CF0002BAF044416B9002CFFF626AFB6FA86F7E0
:100D000095F821007F09A0B10334EB7E297E24F001
:100D1000070419443B4644F00404C9B2224601F0DA
:100D200021F80028FFF610AF044416B9002CFFF696
:100D30000BAF95F82210002957D00734002EAA8C4B
:100D400024F007080CBF002040460CF022FA041ED5
:100D5000FFF6FAAE444416B9002CFFF6F5AE1EB10C
:100D6000A98C404609F050FA297F00293FD095F818
:100D70002030002B3BD0EA8B0734002E24F00708EC
:100D800002F124020CBF0020404692B20CF001FA9E
:100D9000041EFFF6D9AE444416B9002CFFF6D4AEBB
:100DA0000334AB7E297E24F0070495F82000194413
:100DB0003B4644F00404C9B2224600F0C5FF0028B7
:100DC000FFF6C2AE044416B9002CFFF6BDAE36B134
:100DD000EA8B4046297F083292B209F01BFAEB6A8F
:100DE0005BB176B1EC620020B0E68846B7E7002E32
:100DF000F5D0002211461046EFE7002EF3D1204631
:100E0000A4E62834FBD59FE69C000020A400002027
:100E1000A00000201FB572B6194B1D6BE5B9BFF3DA
:100E20004F8F1849184BCA6802F4E0621343CB6035
:100E3000BFF34F8F00BFFDE7B4FBF6F4D3B201322E
:100E4000002CF9D103F110026A4402F80C4C0A227A
:100E500033B901A8A847E2E7044600220A26EDE7D5
:100E6000013BDBB203F110040DEB0406B0FBF2F41E
:100E700002FB1400303006F80C0C2046E8E700BFF7
:100E8000080F002000ED00E00400FA0513B5114C36
:100E90006846A37A8DF80130637A8DF80030237AA2
:100EA000ADF80430E379ADF8023003F0EFFA18B191
:100EB000D9210320FFF7AEFF207D03F017FB08B117
:100EC000DC21F6E7E07C03F00BFB08B1DD21F0E765
:100ED00002B010BD080F002038B5054600284AD0E2
:100EE0000BF0F8F818B94FF0FF34204638BD0FF07A
:100EF00045FFB0F5FA7FF6D8204C21482563002540
:100F000000F0B4FA26222946A01C84F8345025703B
:100F100084F82850E56210F04BFB40F201130121E8
:100F20002A4663801B2308462171E37140F21B337C
:100F3000A175238140F2023363811F23A3814FF403
:100F40000273E38144F601136382F723E383FB23F7
:100F5000A38402F051FD044620B140F24931032040
:100F6000FFF758FFEFF3108572B600F00BFF002D6E
:100F7000BBD162B6B9E76FF01504B6E7080F0020E1
:100F80008D0E000038B51446002840F0C280624D36
:100F900095F83430032B00F0B980B9B112B96FF075
:100FA000150038BD0139162900F2B380DFE801F0E1
:100FB0000C1D20305A63813666697B3C4250558750
:100FC0008A989B9E90A1A5001378AB700020FFF734
:100FD000ADFD0028B7BF012302236FF00B0085F899
:100FE0003430A8BF85F83430DBE71378EB70EDE7D9
:100FF0009378002BD3D0D378002BD0D013781A2B32
:10100000CDD953781A2BCAD91368C5F80730DDE754
:1010100013786A799342C2D32B71D7E713782A7970
:101020009342BCD86B71D1E713782A799342B6D832
:101030006B74CBE71378002BB1D05378013BDBB254
:10104000F82BACD8138892786B82344B9A70BDE73A
:101050001078687507F0B6FDB8E71378002B9ED0BE
:10106000AB75B3E7012000F029FB237808B1012B11
:1010700095D9EB72AAE71388AB81A7E71378AB7118
:10108000A4E7072000F01AFB10B92378012B86D9BA
:10109000072000F013FB18B12378002B3FF47FAF3B
:1010A0002378EB7392E71378082B3FF678AF2B7415
:1010B0008CE71388FF2B3FF672AFAB7386E713788C
:1010C000EB7583E713780E2B3FF669AF2B767DE740
:1010D0002368134AEB61636853602389138175E7C2
:1010E00013786B7672E71378EB766FE71378AB764D
:1010F0006CE7137885F8263068E792786178207875
:1011000002F07AFC00283FF461AF4AE74FF0FF306D
:1011100047E76FF02C0044E7080F00201A0F00206B
:10112000240F002070B50C46054600283BD000294E
:1011300039D04B0737D11D4E96F83430012B02D1F0
:101140006FF00B0070BD032B02D14FF0FF30F9E7B9
:1011500000F0C0F80028F8D02046FFF7E7FC002890
:10116000EEDB134BD3F8A828B2F1004F0ED1114A91
:10117000C3F8A828104AC3F8AC28104AC3F8B0280E
:101180000F4AC3F8B4280F4AC3F8B8280FF078FD07
:101190002846F16A03F02CFAFFF778FE03230020BB
:1011A00086F83430CEE76FF01500CBE7080F00204B
:1011B00000A008505F00500308001C000400540108
:1011C0001FAAF8000700D00010B5084C94F834307E
:1011D000032B05D103F028FA09F00CF804F0A8F964
:1011E0000CF000F9002084F8340010BD080F002036
:1011F00050B1074B03F1140253F8041B934240F81B
:10120000041BF9D1002070476FF01500704700BF34
:10121000AE220300074B10B593F834403CB903F0FD
:10122000B1F90320044900F041FA204610BD4FF007
:10123000FF30FBE7080F0020090B0000074B10B53B
:1012400093F834403CB903F0B1F90220044900F0AE
:101250002DFA204610BD4FF0FF30FBE7080F0020AD
:10126000E50A0000054B10B593F834401CB903F0B3
:101270004BF9204610BD4FF0FF30FBE7080F002070
:10128000054B10B593F834401CB90DF068FB2046AF
:1012900010BD4FF0FF30FBE7080F0020054B10B5E5
:1012A00093F834401CB90DF05DFB204610BD4FF0A3
:1012B000FF30FBE7080F002002680020014B1A6096
:1012C000704700BF400F0020014B1B68184700BF4C
:1012D000400F0020024B1868003818BF01207047EB
:1012E000400F0020F7B504462D4E071D2C483760EF
:1012F00004F036F90228054606D1294920460BF0AC
:1013000010F9284603B0F0BD042842D13378092BE8
:101310000AD0252B1ED0314620460BF07CF9B0F5C3
:10132000817F2DD3722112E005213E200BF0CCF8F5
:101330000028F0D1F37801A93279684643EA022304
:10134000ADF800300BF0E8FC0028CFD05321082086
:10135000FFF760FD1A213E200BF0B6F80028DAD125
:101360007368694601A8C3F30F23ADF80430112355
:101370008DF806300BF0F2FC0028B7D06521E6E7C7
:101380000028B3D0A17820780BF09EF80028B8D1BF
:10139000ACE70828B5D1024920460BF0FAF8B0E7CF
:1013A000440F0020074B4FF0FF3141F6FF72C3E9B5
:1013B000001205490022C1E900221F21C3E90212DF
:1013C000704700BF40000020481000203F280CD884
:1013D00001380B4BC0F3421200F01F0053F82230CB
:1013E00023FA00F000F001007047FF2806D04038D3
:1013F000044BC0F3421200F01F00EFE701207047DA
:101400004000002048100020074B01460068496852
:101410001A4603C240F48C221A6041F0107242F462
:10142000FF625A60704700BF400000200246024B36
:101430000068516803C37047481000200246024B01
:101440000068516803C37047480000200138064B0C
:10145000C0F3421200F01F0003EB82039B6823FAE3
:1014600000F000F00100704740000020014B1860C0
:10147000704700BF5010002010B5FFF793FF0CF02D
:101480004DFD034B04461B6803B19847204610BD31
:101490005010002038B5274B0446D3F8A023D3F8CA
:1014A000A413013106D1D3F8A8334FF6FF719BB2D4
:1014B0008B423DD0D3073BD51E4DD5F8A423D5F89C
:1014C000A833C4F80120A4F80530C3F3072363F060
:1014D0003F03A371D5F89033013323D0D5F894336B
:1014E00001331FD0D5F8983301331BD0D5F89C3386
:1014F000013317D0002003F0FDF998B9D5F8900317
:10150000D5F89413D5F89823D5F89C33C4F8070080
:10151000C4F80B10C4F80F20C4F8133001230020C6
:10152000237038BD10220021E01D10F041F8F5E7CE
:101530000023F4E700C0FF0070B5274D1022002102
:101540000446D5F8A06310F033F810220021A0184B
:1015500010F02EF8D5F8803301330BD1D5F8843351
:10156000013307D1D5F88833013303D1D5F88C3353
:1015700001330BD0D5F88003D5F88413D5F8882330
:10158000D5F88C3320616161A261E361002003F032
:10159000B1F908B9F3071CD40F4BD3F890230132EB
:1015A0000BD1D3F89423013207D1D3F89823013219
:1015B00003D1D3F89C2301320BD0D3F89003D3F896
:1015C0009413D3F89823D3F89C3320606160A26011
:1015D000E360002070BD00BF00C0FF0070B50C8844
:1015E000C27CA6B2C4F30E04931C058804F1140255
:1015F0001D44825AADB21A4443882A44013AB2FBD0
:10160000F5F202FB054292B29342044B8BBF33408A
:10161000B34313439BB20B8070BD00BF0080FFFF3C
:101620004A1E062A08B50346084604D84FF4D1716D
:101630001520FFF7EFFB094A914202D940F2A311AE
:10164000F6E711B903B1196008BD2BB11B68002280
:10165000C3E901211A1D1A600430F5E7FAFFFF7F84
:1016600010B5114B00EB41041A786389B3FBF2F318
:1016700003FB0223013A1A44B2F5706F027928BFC6
:1016800000231A448378B2FBF3F0194403FB1020C3
:10169000091AB1FBF3F003FB101313446FEA434341
:1016A0006FEA5343638110BD54100020024B03EBDB
:1016B00080035960704700BF54100020034B03EBB8
:1016C00080035868003818BF01207047541000206C
:1016D0002DE9F04F10F0070A85B0054604D040F21E
:1016E00061111720FFF796FB544F04464FF0010B92
:1016F00007F14806B146B04657F8043B8DF80BA0F9
:101700003BB101A898479DF80A30082B01D9E82180
:10171000E7E79DF80B1081BB05B13160B94506F1D3
:101720000406E9D12DB30023DFF814E111221E468F
:101730008EF8003058F82200013A60B190F804A009
:101740008178BAF1FF0F64D14FF000078E42077124
:101750003CBFCEB20123511CECD10BB18EF800601E
:10176000112640F6FF6A58F82670002F63D1013E1B
:10177000F9D2601B05B0BDE8F08F9DF80AC04A1D84
:10178000BCF1020FE64604EB420438BF4FF0020EF4
:1017900053000EF1FF300444CEF100002040BDF8AC
:1017A00008406444CCF1000C013C04EA0C04B4F59C
:1017B000803F01D3F82194E775B1C31A3360997063
:1017C0001C8083F803B09DF80C201A71019A4FEA2F
:1017D000124C1A81A3F806C004FB01049EE758F8D6
:1017E0002C90B9F1000F06D099F804B0D34504BF8E
:1017F00099F802904F440CF1FF3CBCF1000FEEDA77
:101800003944FF29A2D90BB18EF8006040F22711AC
:1018100067E794460027F0E707EB410309F1010968
:101820003846A3F80AA0FFF71BFF5FFA89F1BB78DF
:101830008B42F1D89BE74FF00009F6E758100020E3
:1018400054100020F8B54FF6FF7305460380184B7F
:1018500003EB8103D86CB8B186780379B3FBF6F259
:1018600006FB1233DBB219460A1D00EB4202B2F945
:1018700002705488002F09DB0131B1FBF6F206FB40
:101880001211C9B28B42EFD10020F8BDFF29FBD065
:10189000C4F30E03C4782B8024B94FF4D5711720FC
:1018A000FFF7B8FA5380BDE8F8400BF03CBC00BF2E
:1018B000541000201D4B03EB810370B5DC6C054612
:1018C00044B3030404D54FF4DC711720FFF7A2FAE8
:1018D000014620460BF00AFCFF28014604D02046B2
:1018E000BDE870400BF01FBCA078B5FBF0F300FB27
:1018F0001353DBB219460A1D04EB4206B6F9026027
:10190000002E09DB0131B1FBF0F200FB1211C9B26C
:101910008B42F0D1002070BDFF29FBD08B4204EB3D
:1019200042021CBF0023E3705580D8E7541000200A
:10193000094B03EB8103014610B5DC6C20460BF02C
:10194000D5FBFF28014604D02046BDE810400BF02F
:10195000EABB002010BD00BF54100020F8B5104BAA
:10196000074603EB81030146DC6C20460BF0BEFB0F
:10197000FF28054611D0E688238953EA064606D09B
:10198000014620460BF0CFFB01463846B0472046C3
:101990002946FFF765FE0020F8BD0520FCE700BFE3
:1019A0005410002038B50E4B0446827903EB8203B5
:1019B000D86C08B9052038BD8278E1799142F9D216
:1019C0004B1CE37100EB41035D89B3F90A30002B36
:1019D000F3DBA5800BF0A7FB20600020EBE700BF46
:1019E0005410002008B50E4B03EB8103DA6C22B9CA
:1019F00040F226211720FFF70DFA9178831A481D2F
:101A0000A3EB40031088B3FBF0F3002B01DB9942FA
:101A100002DC40F22921EDE702EB4303588908BDBF
:101A20005410002070B5044610F003000E4603D099
:101A30004F211820FFF7EEF9FFF7F2FD054624B11C
:101A4000034831460460FFF7EBFD284670BD00BF38
:101A5000E81000202DE9F14FDFF870B01E46074670
:101A60000D46DBF8003090469DF828A09DF82C909C
:101A70001BB961211820FFF7CDF9524609214046D4
:101A80000BF0BBF94A4684B2092130460BF0B5F998
:101A900081B2DBF8000021440BF0FDFA386018B980
:101AA000286001B0BDE8F08F044453464146092246
:101AB0002C6038680BF05AF94B46092231462868E9
:101AC00001B0BDE8F04F0BF051B900BFE8100020A5
:101AD00070B50E4604460BF0A3F9054630460BF0F0
:101AE0009FF9044B2A1821461868BDE870400BF096
:101AF000F6BA00BFE8100020014B18680BF0BFBA1F
:101B0000E81000201F2AF8B5044613460ED89200AC
:101B1000033222F00303B3F5803F2DD2184DACB150
:101B2000A00710D05F210920FFF774F9FF2B4FEABF
:101B3000420204D9FF339A42A8BF1A46E8E77C2A3A
:101B4000B8BF7C22E4E729706C602B8122F003028D
:101B500028230127120403FB01F06B680025120CF7
:101B6000EEB28E4200D3F8BD14B126181F705E602D
:101B7000104401352833F3E74FF0FF30F3E700BF9F
:101B8000EC100020144A002138B553681478C8B20C
:101B9000844203D8AB210920FFF73CF918460131F4
:101BA00028330578002DF2D000218170012412899C
:101BB0008161051D44709208C16100F120014468F3
:101BC00021F8022B994245F8044B1444F8D1002324
:101BD0004361037038BD00BFEC1000200A4B1B8925
:101BE000B3F5FF7F4FEA930006D25A089B1A9BB2C7
:101BF000984238BF18467047B3F5EE6F01D8FF2200
:101C0000F4E740F27263F3E7EC1000202DE9F843AB
:101C10004B7880460C4602F0040602F0FB07D3B175
:101C2000DFB12E4BD4F804901D89B7BB0123AD085A
:101C30004A46211D637004F1280004F12003A761C6
:101C4000E76123F8025B984241F8042B2A44F8D15B
:101C50000023636101E0002FE3D0FF23A370002E77
:101C600018BF0226A3191B7D032B03D1022F1CBF13
:101C70000136F6B2A31901221A7506F10C020023EF
:101C800004EB860624F812307268A3704046C8F848
:101C90000020A8F80430BDE8F88300211422617008
:101CA000A0180FF085FCB5F5FF7F0FD26B08ED1A79
:101CB000ADB209EB0502C4F804902584A2606384E8
:101CC000C4F80C90A5842261E384C6E7B5F5EE6FF5
:101CD0004FF0FF03EBD940F27265EAE7EC10002009
:101CE0002DE9F84305460C46F720052191460BF0F7
:101CF00084F8061E22DB1DB906FB04F0BDE8F8835C
:101D000015F0030703D098211920FFF783F8DFF8B7
:101D10003480C8F81050A5B2A8F81460BBB29D4238
:101D2000EAD9B8F814C04B46D8F810000522F721BC
:101D300007FB0C0001370BF019F8EFE74FF0FF300D
:101D4000DCE700BF0011002007B5CDE900230B46FA
:101D500003490246081D0BF01FFB03B05DF804FBAE
:101D60001811002013B5064CCDE900230B4602469E
:101D700004F1080104F10C000BF00EFB02B010BDE1
:101D800018110020124B01224FF0FF3000211B6878
:101D90005A60C3F80803C3F80015C3F804250D4BB7
:101DA0001B685A6040F6FE72C3F808034020C3F86F
:101DB0000015094B0949C3F80825C1F88800BFF38D
:101DC0004F8FBFF36F8FC1F88801C3F808257047A4
:101DD000C01F0020BC1F00200020085000E100E0D0
:101DE0000A460648382302F8033BC368C1F80330AB
:101DF0000369536043699360704700BF2811002056
:101E0000024B5A8C02435A845B6A184728110020FF
:101E1000014B00215B6A18472811002010B5154CB2
:101E200007F0FAFD07F014F9208DFFF7F1FF237E8C
:101E300063B12246104904F1190052F80C3BE360EB
:101E400063685360A36893600DF012FD0B4B228D05
:101E500093E8030004F012FB236B188804F038FAAF
:101E6000A36B94F8341094F835009847002384F855
:101E70003C3010BD28110020E11D0000541100204D
:101E8000034B93F83C300BB1FFF7C8BF704700BF5E
:101E90002811002070B5224C0646636C256B236424
:101EA00095F8A43094F848000BB10430C0B295F80E
:101EB0007D102EB9FF2803D195F87C308B4201D0DC
:101EC00007F01EFC95F8A43023B3E06C07F086FE03
:101ED00094F82C30E16C003B206C18BF012384F88F
:101EE0007030D5E94223C4E9182306F0CBFF46B988
:101EF00095F87D30033B012B94BF2820002007F08C
:101F0000ABFE95F87C10002007F006FF022384F852
:101F10003C3070BD206C07F061FE07F099F8E6E7F1
:101F2000281100200138C0B2032808B504D940F2B6
:101F30002B410620FEF76EFF014B185C08BD00BF69
:101F400050CE020008B5094B93F83C20022A04D079
:101F500040F253212720FEF75DFFDA7A42F00102BA
:101F6000DA72BDE80840FFF759BF00BF2811002012
:101F700010B50E4CA26F137803F00303032B04D1AA
:101F8000D378022B01D1002010BDE06F0AF0DAFFF8
:101F90000028F9D1A36F1B7803F00303032BF2D0C1
:101FA00002F068FC80F00100C0B2EDE728110020CB
:101FB00038B51E4C0546D4F88030984708B9012042
:101FC00038BD94F83430002BF9D194F82C301BB97B
:101FD000012D03D00020F3E7002DFBD194F88430CD
:101FE000DD06C3F3001001D5FFF7C2FF636CD4F820
:101FF00088201B78C3F300132AB9B4F88C2013B1DE
:10200000B2FA82F35B0994F82C10628C39B1910713
:1020100005D5A36FD878023818BF0120D0E7002A71
:10202000CDD10028D6D183F00100C9E728110020C6
:102030002DE9F341324C06460F4694F83C30256BAF
:10204000012B5FFA83F804D040F2A4412720FEF769
:10205000E1FE95F8943053B10021042085F89410E6
:10206000FFF7CEFE94F82C300BB185F89680A16F67
:102070000B7803F00303032B05D195F89A3013B9BD
:102080000220FFF7BDFEA26F137803F00303032BBA
:1020900002D053782BBB012385F89A3095F8A430F1
:1020A000CBB194F82C30226B003B94F84880D5E9F2
:1020B000420118BF0123C4E9180192F87D0084F899
:1020C0007030FFF72FFF002203460E4902200092D6
:1020D000424606F06FFE36B102B0BDE8F041FFF7B0
:1020E0009DBE0223D8E7002FF6D03046FFF760FFF1
:1020F0000028F1D102B0BDE8F041FFF7CBBE00BF30
:10210000281100207811002037B5684C0023256B7A
:102110008DF8053095F8A42094F848300AB10433BE
:10212000DBB295F87C1028B9FF2B03D195F87D30F0
:102130008B4202D0FF2007F0E3FA95F89A30032B88
:1021400000F2AB80DFE803F0023B899C94F88E300C
:102150005748ADF80630A5F86C3002F061FB80B14D
:10216000A16F4FF48070FFF74BFE0121A36F85F83C
:102170009510DB781B2B1ED105F1100007F0F0FA4B
:1021800019E00DF105020DF10601E06F0AF070FE95
:10219000A067A0B195F8E1308BB99DF805302BB957
:1021A000038001218370A06F0DF0FEF9BDF80610C9
:1021B000A06F0DF004FB012384F88F3001E03D4B4C
:1021C000A36795F89B30A16FDB0003F008020B7842
:1021D00003F0F303134395F89C20920002F00402ED
:1021E000134323F010030B70FFF7C2FE0028A06F0B
:1021F00014BF1023002302781343037095F8A33013
:10220000002B4DD04378002B4AD0E06C07F0E6FC61
:1022100094F82C30A16FB3FA83F3E06C5B0984F877
:102220007030D5E94023C4E9182306F02BFEA06FD7
:102230000BF0EAF895F87D10012007F06DFDA26F14
:102240000123118884F8E030A4F8841091781A4AA8
:1022500084F83C30917003B030BDB5F86C300DF1AE
:1022600005020DF10601E06FADF806300AF000FE40
:10227000A06700289FD140F2F3212720FEF7CAFD76
:102280000B4802F0CDFA10B940F2FD21F5E7A36F3B
:10229000DB781B2B8FD101216EE740F20B31ECE78D
:1022A00007F09CFC06F0D4FEC1E700BF2811002017
:1022B000A0110020B8110020AC110020064B10B571
:1022C00093F83C2002F0FF0422B91C7604F0CEF80B
:1022D000204610BD0C24FBE7281100200A4B0B4AB6
:1022E00070B506460D461A60FFF7E8FF18B1E12108
:1022F0002720FEF78FFD064C012104F190000DF020
:1023000053F96664E56470BDB8000020A8000020A1
:1023100028110020024B012283F8E120704700BF02
:10232000281100202DE9FF41B14D02AE0A9F86E839
:10233000030095F83C1001F0FF0411B90AB103B194
:1023400027B940F26F112720FEF764FD96E80300DD
:1023500005F12C0C85F8E14085F8344085F8E24021
:1023600085F8354085F8E04085F88F406C842C85F1
:102370006A62C5F88030AF638CE803002C6B07F00D
:1023800011FA06F065FE94F9800007F07FFAA06B61
:1023900007F008FC206A07F07FFA94F8B40007F011
:1023A000A1FA95F82C60E26941F64B53002E40F0FB
:1023B000CB809A4200F2B7804D2007F031F93046C9
:1023C00007F0F6FA6E2194F87C20002007F010FB4D
:1023D000884B186807F0ECFB6369EB67A369C5F8E5
:1023E000E43094F88B307BB9D4F8842062B1B4F82F
:1023F000CE10B4F898308B4206D1B4F888100B4454
:10240000A4F8CE300123136004F588737A4E04F5E6
:1024100090771868083353F8041C3246BB4203C255
:102420001646F6D15968D4F820012B6B734A03C2C3
:1024300093F89E2093F87C00A2F12601012904D98B
:1024400093F89F10262940F0948095F82C20002ABC
:1024500040F08C8093F84A120AF0C6FF064604F159
:102460004407314638460DF0C1FA31460CF0DCFD28
:10247000B4F8503094F87D10834228BF03463846A4
:1024800085F88E300DF078FA94F87D1094F8A460F9
:102490000429B4F8588008BF03210CF0C5FD0EB91B
:1024A000043080B2404528BF40465FFA80F885F886
:1024B000E88003F05DF920B1B8F1490F38BF4FF063
:1024C000490895F82C6085F84880002E76D194F85C
:1024D000A3308BB1012394F87C0085F87030D4E9E7
:1024E0004023C5E91823FFF71DFDFB22034642499F
:1024F0000420009606F05EFC0120FFF705FE002395
:102500002B606B60AB60B4F898306B8023882B80B5
:1025100094F8B4302B71D4F88C300BB101221A60CE
:1025200004B0BDE8F081962007F07AF894F87C209A
:10253000334B03EB820359684FF47A7301F5FA7158
:10254000B1FBF3F16E313EE79A420AD84D2007F015
:1025500067F8012007F02CFA9B2194F87D200120D8
:1025600034E7962007F05CF8C421F6E793F8D6121A
:1025700072E7213A012A0FD824290FD095F82C2090
:10258000BAB193F84E315A0711D413F001017FF418
:1025900063AF03F002015FE724290AD195F82C20EC
:1025A0003AB193F84E2193F875301340EBE70421CC
:1025B00052E7032814BF0646042650E794F8A430D7
:1025C00093B1012394F87D00D4E9426785F8703017
:1025D000C5E91867FFF7A6FC0022034606490092EA
:1025E0000220424606F0E6FB0120FFF753FC86E797
:1025F00028110020B8000020781100209011002040
:1026000050CE020008B5114B93F83C201AB9BDE832
:102610000840FFF703BC93F82C2042B993F83C30F4
:10262000012B12D040F231212720FEF7F3FB93F863
:102630003C20022A02D040F23521F5E71B6BD3F88B
:102640001802BDE8084007F0DBBA08BD28110020D9
:10265000014B1876704700BF28110020014B93F8FA
:10266000E000704728110020044B93F88F201AB91E
:10267000188DC0F3003070470120704728110020EA
:10268000024B188DC0F3C020704700BF28110020F6
:10269000014B93F8E2007047281100202DE9F34127
:1026A00082071E4D06460F462C6B22D5D5F8883082
:1026B00023B940F295412720FEF7ACFBB5F88C20FA
:1026C0001846296C033291F801800EF046FF0DF197
:1026D000020201A92864D5F8E4000AF0C6FC0198BA
:1026E0000AF0ADFC012238604146D5F8E4000AF05A
:1026F00073FCF3070ED5D4E94232013342F10002F4
:10270000C4E9423294F89C30012B0CBF0023012312
:1027100084F89C3002B0BDE8F08100BF2811002091
:102720002DE9FF47B54C002380468946276BCDE94C
:10273000023394F83C30022B04D04FF4A3612720DD
:10274000FEF768FB238D590606D44020FFF760FB97
:10275000238D43F04003238597F8A430B8F1000F90
:1027600000F05281B3B106F09DFC06F07FFC88B901
:10277000236C5A7872B11B7897F89C20C3F3C0037E
:102780009A4207D1012384F83530FFF747FB04B0A4
:10279000BDE8F087236C5978A4F88C1009B3D4F8FD
:1027A000E4000AF0F0FBC4F88800238D97F89B2022
:1027B00043F400732385236C1B78C3F380039A4290
:1027C00000F0C280256B95F89A30002B40D0022B88
:1027D00011D102A9E06F0AF06DFB28B940F20E4159
:1027E000ADE7C4F88810E0E7D5E94032013342F1A3
:1027F0000002C5E94032002194F82C3085F89A1087
:102800003BB195F8963023B1102085F89610FFF76C
:10281000F7FA95F895309BB1002685F8956002F09F
:1028200011F810B940F2254189E731460820FFF739
:10283000E7FAD5E94032013342F10002C5E94032FE
:1028400095F89B30012B0CBF0023012385F89B30AA
:10285000238D4FF0000A43F400632385216C97F821
:102860009C200D78C5F3C0039A426FD00025206CE0
:102870000AF0CAFD97F8A330B3B194F82C3097F85A
:102880007C00B3FA83F35B0984F87030D7E9402306
:10289000C4E91823FFF746FB00220346584900927B
:1028A0000420FB2206F086FAB9F1000F00F0C38085
:1028B000012607F057FA1DB103A90220FFF7EEFE2B
:1028C000BAF1000F10D094F82C3043B1B4F80720BF
:1028D000B4F805301343B7F89820134304D0B4F884
:1028E00009300133A4F80930B8F1000F00F0BD80C1
:1028F000B4F805300133A4F80530002384F8E23041
:10290000404803F0D3FC029830B10AF098FB216BE9
:102910000022027202F074FE039B33B1216B00228D
:102920001A720C22039802F039FE002E7FF42DAFAC
:10293000238D1B063FF52BAF8020FFF769FA238D0F
:1029400043F08003238522E7C24687E705F00305AD
:10295000266B032D14D0F5B996F89C30013B18BFB7
:10296000012386F89C30236C5B78002B3FF47FAF0B
:10297000D6E94232013342F10002C6E9423276E73B
:10298000238D0120002543F4805386F8940023858D
:10299000FFF736FAE0E74D78002DDDD0238D96F86D
:1029A000A45043F48053238506F054FE042894F881
:1029B000E83006D1002D14BF1B221F22934228BFEE
:1029C0001346226C52789A420BD8D4F88830002BE8
:1029D0003FF44CAF94F8E1306BB12020FFF718FAC8
:1029E00044E794F83430012043F0100384F8343085
:1029F00008F0C6F83AE74546AEE700BF28110020C8
:102A000078110020541100200BB106F059FB94F806
:102A1000E230013384F8E230238D43F48063238570
:102A200097F87D30033B012B02D8012008F0A8F86D
:102A30000025AA461EE794F82C2094F8E2303AB11B
:102A4000628C120704D5A26FD278022A3FF430AF0D
:102A5000012B3FF62DAF0120FFF7AAFA064600280A
:102A60007FF426AFFFF750FB25E7B4F807300133BA
:102A7000A4F8073044E700BF2DE9F04F04468BB0BF
:102A80001E4600230D461746069390F87D800BF0F6
:102A9000C5FF94F806320B2B04D940F2C131062051
:102AA000FEF7B8F9C64A32F813B094F89F30834461
:102AB000039387F001031FFA8BFB0493A7BB94F8E1
:102AC0004432032B30D1039B0E2B2DD1B4F8D432DA
:102AD000AB4229D1D4F84C322046B4F81C22C4F8B9
:102AE0003832E369C4F83C32B4F892321344C4F883
:102AF000403205F091FFE269D4F8DC329A4203D00B
:102B000004F128000EF0ACF8D4F8D832E363B4F83E
:102B1000D632A4F84030D4F8DC32E361D4F8E032A5
:102B20006362022384F84432B4F890A204F5187367
:102B3000B4F89890A5EB0A0A0593A5EB09090FFADA
:102B40008AF30FFA89F9002B17DAD4E99E23C4E936
:102B5000A2230023012284F85B324B4694F844A25E
:102B6000984F5FFA8AFABAF1030F00F2CE81DFE8DC
:102B70001AF006002B0163004B013246EEE794F891
:102B80007D1094F816020CF076FA8046E06B5946F8
:102B900040440EF0EBF85946C4F84802E0690EF0E4
:102BA000E5F8E26941F64B5307A99A4298BF4FF006
:102BB000020A5044C4F84C0208A807F0DBF8079B4F
:102BC000D4E9A2010093DDE908230EF09EFB8146C3
:102BD00020460AF03EFCD4F8943294F87D00D4F8F4
:102BE0003CA0069307F0F8F9069B00F52240D4F8C4
:102BF0004812BB3BB1309A444FF47A73AAEB010AF6
:102C00003031B0FBF3F0D044B4F84030A8EB090801
:102C100003EB4101A8EB0000069094F87D000AF058
:102C200024FCD4F89422069B38609B1ACC2B68D8DD
:102C300040F2C641302033E7E36B5946D4F83C02FA
:102C400018440EF093F85946C4F84802E0690EF0B3
:102C50008DF841F64B53E2699A4288BF4FF0000A63
:102C60005044C4F84C0220460AF0F3FBB4F81C327E
:102C7000D4F83C80D4F83CA2002B40F09A80002E7F
:102C800000F09780D04494F87D0007F0A5F9D4F8BF
:102C90004832A8F1BB0800F5224994F87D004FF4B2
:102CA0007A7BA8EB0308D4F8803209F1B109984483
:102CB000C31ED4E99E12012BA8EB0108B9FBFBF956
:102CC00074D907F089F900F2E730B0FBFBFBA8EB01
:102CD000090808EB0B000690D4F84812D4F83832F3
:102CE000D4F84022303194F87D0002FB0311B4F88F
:102CF000403003EB41010AF0B8FB0123386084F84F
:102D00004432E3694FF00008D4F84C2204F1440047
:102D1000A3F5A2733F6806999B1A84F860829F42CC
:102D200028BF1F46D4E9A232C4F818725B1842F1DA
:102D30000002C4E99C320CF01DFE0744A4F8905236
:102D4000C4F86472D4E99C23C4E9A22305F066F8B0
:102D500020B1D4F864321E33C4F86432B4F80812D7
:102D600084F868824D1B2DB2002DC4BF022384F865
:102D70006832039B0E2B00F0CB80002E40F0C98000
:102D800094F84432002B00F0E180E16904F51870FA
:102D9000D4F84C32C91A0CF016F980B2002800F0B1
:102DA000D580149B03B118800120DFE04FF03E0B6B
:102DB0008DE7D044D4F84832A8EB030306938BE7A1
:102DC00068CE020014120020D4F84C22E169D4F835
:102DD0003802891A4B43D4F840120693B4F81C32D7
:102DE0009944CB439944D4F84832303300FB013343
:102DF000B4F8401094F87D0002FB093301EB430165
:102E00000AF033FB38607CE7E069584306905EB314
:102E1000B4F81C1241BB84F85B12D4F84C1201FBCD
:102E2000130A94F89E30262BCDF818A003D094F8FE
:102E30009F30262B09D1B4F8D432EB1A1B0404D4EA
:102E400094F8D732002B18BF9846002A3AD0B4F82D
:102E50001C32BBBBD4E99E23D4E9A00182428B4142
:102E600008D340F21A51E5E694F85B1200297FF48A
:102E700048AFD2E794F87D00C31E012B40D907F07C
:102E8000ABF800F522404FF47A7BB130B0FBFBF099
:102E900000F1AB0BD4F8803294F87D00103BD4E9FC
:102EA0009E125A1AC31E012B92442CD907F094F893
:102EB0004FF47A7300F2E730B0FBF3F0AAEB0B0AA1
:102EC00050440690B4F81C1240468944D4F84C1281
:102ED00001FB09F909F130094FEA490949460AF0AD
:102EE000C4FA244A41F64B531060E06998423FF619
:102EF00008AF06AB49460CF0DBF884F85B0200E74C
:102F00004FF4897BC6E73E20D8E740F2325191E684
:102F1000E6B1B4F8301219B3B4F8322294F834326E
:102F2000501CA4F8322202FB033399420EDD94F8C0
:102F300068325BB10023A4F8320284F8683202F0F0
:102F40001DFC00F00700013084F8340204F518710C
:102F500094F85C0208F070FC20B940F27B5169E6FD
:102F60000A46DBE7049B84F8583200200BB0BDE82A
:102F7000F08F00BF14120020F0B5044685B018B9D8
:102F8000A6213020FDF746FF072900F20B81DFE87C
:102F900011F008003E003E0039000901F500FD0077
:102FA000070190F858321BB3B0F85632B0F89820A9
:102FB000934217D1B0F80C22D31AA0F89820A0F8A9
:102FC0000E322046D4E99C23C4E99E2305F012FC6E
:102FD00094F81332002B00F09F8005B0BDE8F0405C
:102FE0000DF0BFBD9A1AA0F80E22A4F89830E8E7B9
:102FF000B0F85432B0F898209B1AA0F80E32B0F80E
:103000005432F2E705B0BDE8F04006F0BFBE0EF066
:103010000CF9D4E99E23801A61EB0301012871F1B8
:10302000000302DA40F20661ABE76FF0010383426E
:103030004FF000038B4102DA40F20761A1E7E36938
:103040000BB1B0FBF3F394F89F10B4F856220E299D
:1030500042D10132A4F85622B4F8923202AEB4F84A
:1030600098500133504FA4F89232B4F8D4301D4434
:10307000B4F8D230013DED1AADB23B685BB1B4F8A3
:10308000561200222046013989B29847B4F85632C8
:103090001844A4F85602B4F856126B1A18043DD41A
:1030A0000023204600961A46FFF7E6FC88B3012865
:1030B0002CD1B4F85622B4F80812BDF808301344E5
:1030C000521A12049BB204D5EA1A12F4004F18BF28
:1030D0000B46A4F85632D0E7B4F898100B449BB2D4
:1030E000D11A0D0454BF531C01339BB2A4F85632BD
:1030F00094F85932002BAFD1B4F80C32B4F8562200
:10310000934204BF0133A4F85632A5E740F254615C
:1031100037E7D4F88430F3B905B0F0BD94F8A230A5
:1031200030460394002B0CBF3E23082384F8C130A3
:1031300001238DF8083002F061FE20460DF013FDEA
:10314000002394F85C0284F8443208F0FBFA202350
:1031500084F85C32E0E7B4F8CE20B4F856329B1A1B
:103160001BB2002BD8DDB4F888100B44013BB3FB35
:10317000F1F303FB0123A4F8CE30CDE7012007F0E3
:10318000FFFC05B0BDE8F0400AF04EB990F84432BB
:10319000042B01D0C521F4E6002380F84432BBE7BC
:1031A000CB21EEE6CF21ECE6C40000202DE9F04172
:1031B00004460E46154690F8403103F0FF071BB158
:1031C0000C273846BDE8F08101464C4808F09CFACF
:1031D00020288046F4D05822394604F58C700EF031
:1031E000E7F984F81881C4F81C61FF2384F84031A2
:1031F00036B102F0DBFA00F00700013086F8340245
:1032000002234FF00008A4F8503184F848810DF0F3
:10321000B7FD00F1490620460DF0D5FA0146B6B2D9
:10322000D8B30BF0FBFB00F5CD61284689B20DF059
:103230009DFD2844C4F84C010DF0F7FF30184FF005
:103240000106A4F8268041F1000184F82061C4E958
:10325000560120460DF0CDFAD0B1A5F59465314662
:1032600020460DF031FA2D1AC4F824514FF0FF32E8
:103270006FF00043C4E9582304F5A47194F81801D1
:1032800008F0DAFA70BB40F2C1113020FDF7C2FD40
:103290003046A43D0DF077FBE5E72046DFF860807F
:1032A0000DF012FAA430C4F84C01B8F8040048B18B
:1032B000E08C38B102F07AFAB8F80430B0FBF3F2DF
:1032C00002FB130006440DF0B0FF361841F1000177
:1032D000C4E95661002DC9D0AE1941F10001C4E91D
:1032E0005861C9E7D4E9562300212046C4E94C239C
:1032F000C4E94E230DF0AAFA63E700BF39D50000F8
:1033000014120020F0B5002385B0CDE9003303236B
:103310008DF806306846FEF745FB88B11D4E012347
:103320000027B3710223CDE902778DF80E3002A891
:10333000FEF738FB0546A8B10023B37105B0F0BD18
:1033400000980AF0DFF9E5E790F85C0208F090FDDC
:1033500094F85C0284F8445208F0F4F9202384F8CD
:103360005C32DFE7029B002BE1D093F85C22202A3D
:10337000DDD018884FF6FF739842DDD00221FEF7AA
:10338000D7FA04460028DFD140F22B113020FDF798
:1033900041FD00BF14120020044B0022DA719A7123
:1033A00042F210729A80FFF7ADBF00BF14120020E6
:1033B000014BD871704700BF1412002010B50446AD
:1033C00006F04EF9074B9A68824208D3E16941F64C
:1033D0004B52914203D9987980F0010010BD002032
:1033E000FCE700BF14120020F0B5044685B090F849
:1033F000133203F0FF05002B6ED190F84432032BFB
:103400006AD10DF012FFD4E99E23801A61EB03010B
:10341000012871F100035FDB6FF00103834275EB5C
:10342000010304DA40F2AF513020FDF7F3FCE2690A
:10343000B4F898300AB1B0FBF2F2013313449BB2F6
:10344000A4F85432B4F80C32B4F854229B1A1BB2CC
:10345000002B41DD94F85C0208F0F4FA00283BD020
:10346000FF2384F85932B4F8D4300DF10E07B4F8C4
:1034700098501A4E1D44B4F8D230013DED1AADB249
:10348000336863B1B4F8541200222046013989B27E
:103490009847B4F85432184480B2A4F85402B4F8EF
:1034A0005432EB1A1B0417D4B4F85412002301222F
:1034B000204689B20097FFF7DFFA68B1012808D1EA
:1034C000B4F85432BDF80E2013449BB2A4F8543221
:1034D000D6E740F2F651A7E705B0F0BDC4000020E2
:1034E0002DE9B343044606297FD8DFE801F004281C
:1034F00015252C3179003E4B9B7903F0FF025BB917
:1035000000920123B0F80C12FFF7B6FA38B140F27E
:10351000CA613020FDF77EFC042384F8443206F0B3
:10352000D7FA07F0F3FF0023B4F89820A4F89232FA
:10353000A4F8562284F8593202B0BDE8B0830323C0
:1035400080F84432F8E706F0ABF8C4E9A001F3E7ED
:10355000284B1B6803B1984794F87D30E569033B1D
:10356000DFF88C90012BD4F84C3294BF4FF0280830
:103570004FF000089D4208F5807888BFED1A99F851
:10358000073098BF00251BB9636C9D4228BF1D46BC
:10359000D4F8187204F144000CF0ECF9074402204E
:1035A00008F0BAFB0221ED1B25EAE575854228BF2C
:1035B0000546284608F0F6FB00B92F444246394636
:1035C00020460CF068FAD4F81832C9F80800E0690F
:1035D000184408F073FB0028AED140F2793198E727
:1035E00002B0BDE8B04309F034BF40F2657190E726
:1035F00014120020BC000020012A70B505460C46BC
:10360000164615D0022A18D042BB06F029F83246D9
:10361000014620460AF046F82A46124994F8180155
:1036200007F09EFA40B94FF4EF613020FDF7F2FB4E
:1036300006F016F8C5F8940270BDD0F89412012275
:1036400020460AF02FF82A46064994F8180107F098
:1036500087FA0028F0D140F28971E6E740F28F71D5
:10366000E3E700BF792F0000014B9880704700BF4F
:1036700014120020303270B5054692B20C461E4638
:1036800009F087FD35B1044A00231560147556759D
:103690001471936070BD00BF34120020014B18708C
:1036A000704700BF5100002038B50A4B0D4653F853
:1036B0002040084606F090FC033D04F58564012D8A
:1036C00004444FF47A70B4FBF0F494BF2820002037
:1036D000204438BDC0CE02002DE9F84F05460C4607
:1036E000174691F89EB01E461BB10121204605F0F9
:1036F00019FA94F83032032B55D8DFE803F0025260
:103700004C5227B940F223213520FDF783FB0123DA
:103710000027204684F830320AF0A7F8DFF8A4A189
:10372000DAF80030002B41D031462046984700FBA4
:10373000077800F01BF9D8BB0221B4F92C020CF079
:10374000CFF9B4F82C321B1AA4F82C32D4E9823207
:1037500018EB030342F100021B1842EBE070C4E9CE
:103760008230C5E9043000232B7094F89E9009F054
:10377000FD030C2B1ED0A9F12603D3F1000949EB60
:10378000030920460DF0FEF910B1B9F1000F14D075
:1037900000232B7217E00323D4F8387284F83032F8
:1037A000BCE7E769BAE740F25D21ADE7B846C0E79C
:1037B0000020CBE74FF00109E3E794F83032012B0A
:1037C000DAB22DD12A72002304F144006B720CF09E
:1037D000D1F86860002E72D0ABF10E0BBBF1010F77
:1037E0006DD9394628460BF0EEFB86B220460DF027
:1037F000C9F98346B9F1000F1AD1864218D308FBE4
:1038000000F185F80890D4E982325B1842F1000299
:10381000C5E90432B8F1000F04D140F2A72173E7E3
:103820000223B6E7394628460BF0CDFB584486B252
:103830003146204605F076F9DAF8003063B101210F
:103840002046984747433044D5E9043286B2DF1911
:1038500042F10002C5E9047200F088F8B0B97100C5
:10386000B4F92C02B1F5803FB4BF89B24FF6FF71B5
:103870000CF036F9B4F82C321B1AA4F82C32D5E926
:1038800004321B1842EBE070C5E90430D5E904238B
:10389000C4E98223D4F884308BB1B4F8CE20B4F8D4
:1038A00098309B1A1BB2002B09DDB4F888100B442A
:1038B000013BB3FBF1F303FB0123A4F8CE30BDE8D9
:1038C000F88F00BFC8000020014B5870704700BF40
:1038D0005012002010B5044604293FD8DFE801F05B
:1038E000031A161E3A00204B1B7803F0FF026BB937
:1038F000012109F0C9FFB4F898300133A4F89830D9
:1039000006F0E6F8BDE8104007F000BE042384F896
:103910003032F5E7032384F8303210BDC369D0F8A4
:103920005822C0F83832934202D028300DF098F96E
:10393000D4F854322046E363B4F85032A4F840304F
:10394000D4F85832E361D4F85C32636209F08DFF39
:103950000223E0E7BDE8104009F087BF40F23D31A7
:103960003520FDF757FA00BF50120020014B18799F
:10397000704700BF581200200138C0B2032808B5B4
:1039800004D940F217310620FDF744FA014B185CC8
:1039900008BD00BFECCE02000138C0B2032808B554
:1039A00004D940F217310620FDF734FA014B185CB8
:1039B00008BD00BF70CF02000138C0B2032808B5AF
:1039C00004D940F217310620FDF724FA014B185CA8
:1039D00008BD00BFE4CF02000138C0B2032808B51B
:1039E00004D940F217310620FDF714FA014B185C98
:1039F00008BD00BF78D00200431E032B0DD84B1E1C
:103A0000032B0AD8064B01291A7114BF0A2200227F
:103A10009870597000209A7270476FF015007047C7
:103A20002204002010B500880C460E21FDF780FF0F
:103A300090F86C3053B980F86D40FF2380F8B130B6
:103A400003496430BDE810400BF009BF10BD00BF52
:103A500021D90000F8B58D1F40F67A4C0746BDF815
:103A60002460ADB21046BDF8182065453BD8841FD0
:103A7000A4B264458CBF002401242546AFBB1D4F72
:103A80003F796FB15CB96FF450654D19062D06D8BA
:103A90006FF450640419062C8CBF002401242546C1
:103AA000FDB1814224D803FB0666B6F5FA7F1FDC20
:103AB000A2F10A0340F676449BB2A34218D809F05B
:103AC00091FF42F2107300FB06F15A43B2EB410F33
:103AD0000ED9BDF81C50BDF8200085428CBF0025D2
:103AE00001252846F8BD0024C7E797F88170C8E78C
:103AF0000025F6E728130020304BF0B5B0F87070C1
:103B00000C4611461A88B0F86E6085B097425D8801
:103B100028BF1746964228BF16461B2E2ED0B5F555
:103B2000A47F2DD040F6480301AA9D4228BF1D4620
:103B300009F081FFBDF80A309F4228BF1F46BDF83B
:103B40000C30AB42E78028BF2B462381BDF80630FE
:103B50009E4228BF1E46BDF808309D42668028BFA1
:103B60001D46A580FF232370E3881B3B9BB2E02BFF
:103B700008D940F2F7513920FDF74CF91B2FCED16F
:103B800005B0F0BD63881B3B9BB2E02B02D940F22D
:103B9000F951F0E7238940F64812A3F5A4739BB2CC
:103BA000934202D940F2FB51E5E7A388A3F5A47341
:103BB0009BB29342E4D940F2FD51DCE72813002088
:103BC000114BF7B59C7E0646DD7E9F8B14B900F045
:103BD00075FD0446A5B900F071FD054614B909202C
:103BE00003B0F0BD0028FAD0304601A98DF804409A
:103BF0008DF80550ADF806700BF039FA0020EFE7AC
:103C0000002CF1D1EBE700BFDC17002010B5032139
:103C10000020FDF78DFE044670B90321FDF74AFE32
:103C2000044620B940F23D313920FDF7F3F8034B4B
:103C300093F950100CF0FEFC204610BD2813002014
:103C400038B50BF04DF9002500F0BCFF1F4C00F01B
:103C500043FD0BF0E5FD01F051FA02F097FB01F096
:103C600075FA012000F0FCFC194B1A4A29465D83C5
:103C70001A601B22DD839A80F9221D841D76164B63
:103C800022835868154A1B8922601422E06104F1DE
:103C900024002384A576A580A5750DF089FC012359
:103CA00042F2107204F13A0084F8445084F824304F
:103CB00084F83930C4E90A220CF0D8FF002200232E
:103CC00084F86050C4E9162338BD00BF28130020D3
:103CD000DC17002003021B0070CF02001B0048010C
:103CE000044B41F64C521B215A611974C3E902225C
:103CF000FFF7A6BFDC17002073B5384D0446AB684C
:103D000040F8443F09F035FD064600F0D1FC2B7C1D
:103D100010F0200FA4F84E6084F84C30304B0EBFEA
:103D20001B22AA8869881B6814BFA4F86E10A4F827
:103D30006E20A4F870201BB194F980102088984759
:103D400028490B79003B18BF012384F88130264BAA
:103D50001B6813B108312088984794F881302046B9
:103D6000002B41F64C5318BF4FF47A73E361FFF711
:103D700027FF064648B102212088FDF7EFFD40B33A
:103D800040F2B9513920FDF745F8184B1B6813B1C3
:103D900001462088984704F128000CF061FF6978FB
:103DA000AB8804F114006A88019103332978033247
:103DB0009BB2009192B204F11801FDF74BFE6369CA
:103DC00013B940F2CE51DDE7A3691BB940F2CF51E0
:103DD000D8E70926304602B070BD00BFDC170020CE
:103DE000D000002028130020E0000020DC0000208C
:103DF0002DE9F34105460E460CF061FC002800F069
:103E0000AE8028460CF0DFFC30B1B6F80130013B43
:103E10007F2B01D9122404E028460CF0D8FC20B9ED
:103E20000C24204602B0BDE8F081284609F0EDFCE4
:103E30000028F5D128460CF0E7FB80460028EFD19A
:103E4000284603F0F7F80028E4D042F21073B6F8E1
:103E50000170F17828465F430CF0A1FC0421307812
:103E6000FDF766FD044606213078FDF761FD002C64
:103E700077D038B141F661113920FCF7CBFF044609
:103E800090F8BD80404E3368002B6CD04034204603
:103E90000CF0CAFE002866D020460CF0B9FE0028BF
:103EA00061D1B8F1000F08D0384B20461B68984705
:103EB000002858D041F67511DEE73549424633688F
:103EC00020464969984700284DD041F67A11D3E73A
:103ED00028460CF078FC40B902210DF10600FDF7F0
:103EE000B1FC064658B90D249BE728460CF07DFC32
:103EF0000028F1D1274B1B79002BEDD18AE7002157
:103F000001F01EF8BDF806302846314633800CF02B
:103F10008EFC28460CF069FCA0B928460CF06FFC1A
:103F200001463046FFF7E8FE044600287FF479AFEB
:103F30003A4631462846FFF739F9044620B141F6A2
:103F4000A61199E70121ECE7124BDB6C002B3FF443
:103F500068AF024606F5A1713046984761E74224F2
:103F60005FE700288BD128460CF025FC014600288D
:103F7000AED13A462846FFF719F9044600283FF427
:103F800050AF41F6831177E7D8000020D40000201D
:103F9000DC17002028130020034B5A8802801B786E
:103FA00083700020704700BFDC1700207FB5837846
:103FB00006461A2B09D8042B05D9012202FA03F36D
:103FC000314A134205D112251AE0292B01D03B2B8F
:103FD000F9D13088B0F5706FF5D269460AF0CFFF9D
:103FE00088B9019B93F8402102F0FF05C2B9B2786D
:103FF00083F84121FF2283F8402168460BF0E9FB5A
:10400000284604B070BD09213088FDF791FC0446B4
:10401000002837D002A9B0F8AC010AF0B0FF08B10F
:104020000C25EDE70821B4F8AE01FDF781FC20B9BD
:1040300040F6E8013920FCF7EDFE03781BB994F84F
:10404000C831032BECD1039B93F85621002AE7D10A
:1040500094F8F02102F0FF05002AE1D1B4F8B02174
:10406000A3F8582194F8B42183F85A21027D83F8EB
:104070005B21B27883F85C2184F8F021FF2283F879
:104080005621BDE70225BBE7200038040188A1F1D5
:104090001B039BB2E02B0CD8428844F24810A2F5D7
:1040A000A4739BB2834204D8034B002019805A802A
:1040B00070471220704700BF28130020034B1A8856
:1040C0005B88028043800020704700BF28130020D7
:1040D00038B50478427804F00103857804F00204CE
:1040E00052EA030101D1112038BDBCB9002DFAD02C
:1040F000002B08BF144601E000242546204609F0A5
:1041000035FD0028EFD0284609F030FD0028EAD020
:10411000054B00209C76DD769883E5E7002BEBD1FC
:1041200014461D46EAE700BFDC17002013B50088DF
:1041300069460AF024FF18B10224204602B010BDDF
:10414000684609F0B1FD0028F6D0019890F8523188
:104150000BB13A24F1E790F8EC3003F0FF04002BA8
:10416000F7D190F8E3309B0706D1FF2380F8523156
:1041700068460BF02EFBE0E70249E4300BF078FBD9
:10418000DBE700BFC70001002DE9FF4107780446C7
:104190000E46EF2F04D91226304604B0BDE8F08158
:1041A000B0F80130ADF80C309DF90C209DF80C30C2
:1041B000002AF0DB9DF80D209507ECD1D80660D4DD
:1041C000990603F0030259D5002AE4D11D0703D54F
:1041D00003F06703012BDED16378180711D421792E
:1041E000E278E07942EA0122617942EA0142A1796A
:1041F00041EA0021207A41EA00418A42CBD81F2AB5
:10420000C9D9627A013A062AC5D8A27A032AC2D845
:1042100013F0040102D1023A012A03D8E27A012AFA
:10422000B9D811B9A27C032AB5D813F01001227DA8
:1042300037D0012AAFD1237E012BACD8002940D042
:104240006378D90703D500F0CDF9002840D0637812
:10425000227D03F01803082B4AD1022A38D11FFA15
:1042600087F803214046FDF763FB0546002845D04B
:1042700009F0CBFA00284DD00C268DE7032AA5D1F2
:1042800089E713F0600F86D103F00F0203F00703F4
:10429000052BA1D0931E012B9ED9002A7FF47BAF62
:1042A0009AE7022A04D103F06F03092B7FF473AF5E
:1042B000A37D013B022B3FF66EAFE37D0F2BBAD9F6
:1042C00069E700F0FBF9820707D4237D022B01D1B7
:1042D000112661E7A37D022BFAD000F0EFF9430726
:1042E000AED4237D032BF3D0A37D032BA8D1EFE71E
:1042F000022AB4D0A37E002BB1D0E9E703214046C7
:10430000FDF7D8FA0546002842D0224B93F9501009
:104310000CF090F9002138460CF066FC28BB2846CA
:104320000CF046FA21463070E074284602F0DAFEBE
:10433000637E0646002B3FF42FAF00287FF42CAF9E
:104340000246E96C6846FDF761FC3246E86C0121E3
:1043500008F074FFE96C68460422FDF757FC32460A
:104360003146E86C08F06AFF16E740300CF05CFC60
:104370000028D4D0637813F0330F7FF40CAFA77DFF
:1043800028460CF03CFAFFF707FB8742C7D073E7DB
:10439000072601E72813002030B502798BB00346C9
:1043A000042A58D84488B4F5804F54D82B480021AB
:1043B0001044ADF804108DF80C10827C457B42F05F
:1043C00010028DF8211042EA4502C57D007F42EAC5
:1043D000850242EAC00202F01F028DF80420BDF8F7
:1043E0000420ADF80D201A888DF81240240A8DF8AB
:1043F0000F20120A8DF811108DF814108DF810206E
:104400008DF813405A7BD3F807008DF815205A79A0
:10441000069003A88DF816209A798DF81720B3F826
:104420000B209B7BADF81C208DF81E307F238DF870
:104430001F3001238DF820308DF822308DF82310A5
:104440008DF824108DF825108DF8261001A9FFF79E
:104450009BFE0BB030BD1220FBE700BF70CF020007
:1044600013B50378044653B1002301A8019305F066
:10447000D9FE019B9B0702D00C2002B010BD227810
:104480000020014B1A71F8E7281300200278034638
:1044900072B1427862B142881A2A09D982881A2AEE
:1044A00006D90068034A106000209B8893807047FB
:1044B00012207047DC17002002680020014B9A6030
:1044C000704700BFDC1700200378A3F10A02112A0D
:1044D0009BBF024A0020122013747047DC17002093
:1044E000014B18760020704728130020014B5876A6
:1044F0000020704728130020024B1B6803B11847A7
:1045000011207047CC00002008B5052000F0B4F859
:1045100004F0BCFA014B024ADA6408BD28130020FB
:10452000F93A000008B502F067FDFEF735FF0248D2
:10453000BDE8084002F04ABD8C13002008B50AF01F
:10454000CDFC064800F58471FDF7C8FE022008F096
:10455000F2FD0020BDE8084008F0EDBD8C130020FE
:1045600008B50122064B83F80A2202F04DFD03F044
:1045700047FCFFF7E3FFBDE8084000F0E9BF00BFDC
:104580008C13002010B5064C064904F503700AF0A0
:1045900005FA04F504700449BDE810400AF0FEB9BC
:1045A0008C130020E4000020EC00002010B5094C22
:1045B000094904F503700AF0F1F904F5047007499C
:1045C0000AF0ECF904F505700549BDE810400AF061
:1045D000E5B900BF8C130020FC000020040100207E
:1045E000F4000020014B93F80A0270478C1300205E
:1045F00038B5094C0D4600F087FFD4F80C02C4F81A
:1046000004510AF0C3F9FFF76BFB01F0E7F801234F
:1046100084F8183238BD00BF8C130020014B93F88A
:10462000180270478C13002010B50C4CD4F81002FF
:104630000AF0ACF9D4F814020AF0A8F9FFF700FB6D
:10464000202000F027F82F2000F024F8262000F08A
:1046500021F8002384F8183210BD00BF8C1300200D
:10466000014B83F8190270478C130020014B93F81B
:10467000190270478C130020C2080549012300F07D
:10468000070003FA00F08B5C18438854704700BFA2
:1046900058000020C208054900F0070001238340AC
:1046A000885C20EA03008854704700BF580000204F
:1046B000014BD3E90001704758000020054B1868F2
:1046C000C0F3C022C0F30020400040EA820040F066
:1046D000010070475800002008B50CF04FFB002384
:1046E000074A32F82310814205D302EB83039B78FB
:1046F000044A137008BD01330C2BF2D10023F7E7F5
:10470000B4CF0200A6150020024B1878072828BF56
:1047100007207047A615002010B54468238884F848
:10472000AD11A4F8AE3194F87C00FFF745F984F898
:10473000B00194F87D00FFF73FF9054984F8B10115
:1047400004F5D2700BF094F8002384F84C3110BDBE
:1047500021EA0000406807490388A0F8A03190F8DA
:10476000743080F8A23190F8753000F2971003731E
:104770000BF078B837EA0000064B002283F850208F
:104780004FF6FF72A3F85220A3F85420A3F8562046
:10479000704700BFA8150020064BB3F85220824294
:1047A00001BF002283F850204FF6FF72A3F8522079
:1047B000704700BFA8150020014BA3F854007047B4
:1047C000A8150020094A03464FF6FF71B2F85200BF
:1047D000884206D192F85010012905D001201A60B4
:1047E000704700201860704700207047A81500200F
:1047F000074B93F85020012A1BBF0120B3F8542027
:10480000002083F8500018BFA3F85220704700BF63
:10481000A8150020014BA3F856007047A8150020EA
:10482000074B0246B3F85610B3F85200884205D140
:1048300093F8500018B101201360704700207047B2
:10484000A81500200A4BB3F85210B3F85620914235
:1048500001D0002070474FF6FF72A3F8522093F862
:104860005020002AF5D00022012083F85020704704
:10487000A8150020064BB3F85210B3F85620914209
:1048800003BF93F85000B0FA80F040090120704750
:10489000A815002050B90A4A0120134603F8010B5D
:1048A0000868C2F801008A889A807047012805D1FB
:1048B000034B0A68D8719A608A889A81704700BF52
:1048C0000016002048B90A4B187880B1D3F80120AF
:1048D000B3F805300A608B807047012806D1044B7D
:1048E000D87920B19A689B890A60F4E70020704764
:1048F0000016002020B9054B187800F00100704721
:1049000001280ABF014B0020D879F6E700160020E5
:10491000F7B58B8800228DF80600ADF804300868E2
:104920000B4B8DF8072001461C7803F5AC73019DF5
:10493000D0B2844201D8082007E0D3E900760132E2
:104940000833AE4208BF8F42F2D103B0F0BD00BFC2
:1049500010160020084B0146002230B55C7803F5A4
:104960008173D0B2844201D8082004E013F8015BBF
:1049700001328D42F5D130BD10160020F8B52D4C16
:1049800063782218013B92F80251DBB283426370D4
:1049900030D01A010101961C8F1C2644274406F1D1
:1049A000100C56F804EB664547F804EBF9D1823257
:1049B00082312244214402F1100652F8047BB242B3
:1049C00041F8047BF9D1E118221891F8026182F8CC
:1049D000026106267343704303F5857300F5857005
:1049E000E618E35827182350B388BB8091F83A3172
:1049F00082F83A312846FFF7ADFF082818D123780E
:104A0000013BDBB29D42237012D02B3305F12B0208
:104A100004EBC30304EBC20293E8030082E8030043
:104A20002078FFF797FF08281CBF241884F802514C
:104A3000F8BD00BF10160020F0B5254D89B095F8DF
:104A4000984105F29911684622460CF086FD2146F0
:104A500068460AF064FA0446B8B300EB400102A8C5
:104A6000C9B2FCF731FC601E95F8A1610124C0B207
:104A700095F8982105E0731CB3FBF2F102FB1133AA
:104A8000DEB206F120030DEB030111F8203C002BF0
:104A9000F1D100EB400201F8204C06EB4603203236
:104AA0002B446A4412F8187C83F8A27112F8177C20
:104AB00012F8162C83F8A37183F8A4210138AB19DE
:104AC000C0B283F89941FF28D2D109B0F0BD00BF30
:104AD0001016002070B5064688B00C46002A4FD04C
:104AE0002A4A92F8A131D01890F8991121B94FF4BF
:104AF00080712820FCF78EF903EB43010133114448
:104B000091F8A251E57091F8A35191F8A411257183
:104B10006171002180F8991192F89811B3FBF1F0BE
:104B200001FB103382F8A13192F8C23123B9184940
:104B300002F5DD700AF099FE65790D2200216846C4
:104B400005F03F0545F0400565710CF031FDE37857
:104B500004AA69468DF80F30304623798DF80D5040
:104B60008DF80E3004230CF03CFC9DF81F302370B0
:104B70009DF81E3063709DF81D30A37008B070BDA5
:104B800003216018FCF7A0FBD6E700BF1016002039
:104B9000394A0000044B5A78824286BF1B1893F8AA
:104BA0004A010020704700BF10160020044B5A78BD
:104BB000824286BF1B1893F842010020704700BF55
:104BC00010160020064B00224FF461711A8083F802
:104BD000C32183F8C421A3F8C61183F8C22170470A
:104BE00010160020014B83F8C401704710160020F6
:104BF0002DE9F0478246894617469846FFF788FE1A
:104C000008280546064603D0FFF7A4FE082863D10E
:104C1000334C6378072B61D8082D18D12678731C84
:104C2000072E237003D96B212820FCF7F3F806F137
:104C30002B03D9F80000DAB204EBC30344F83200C6
:104C400004EBC201B9F804208A8083F806A06578D5
:104C500007F110026B1C290163704B1C234412F8EE
:104C6000010DBA4203F8010FF9D1813108F11003A7
:104C7000214413F8012D984501F8012FF9D125445D
:104C8000102140460AF093F9102185F84201384678
:104C90000AF08DF9002385F80261667885F84A01EB
:104CA00085F83A3131460F480AF039F90546314660
:104CB0000D480AF034F9012D03D8002818BF01353A
:104CC000EDB284F898510025284684F8A151FFF7E9
:104CD000B3FE2846BDE8F0871220FBE70720F9E77E
:104CE00010160020521700205A170020064B10B54E
:104CF0005878013840B2002800DA10BDC4B220460E
:104D0000FFF73CFE601EF5E710160020014B83F80C
:104D1000C301704710160020014B93F8C301704780
:104D200010160020431E4AF2B7129BB293429DBF59
:104D3000024BA3F8C6010120002070471016002086
:104D4000014BB3F8C6017047101600200A4B30B56E
:104D50005C7884420ED9184490F802012B3003EBA2
:104D6000C004A5790D7053F8300010600120A388AD
:104D7000938030BD0020FCE7101600200246074853
:104D800010B590F8C34124B1417821B1023003F04D
:104D900039FF204610BD0C46FBE700BF101600206F
:104DA0002DE9F74F2F4C9A46804689466378834217
:104DB00056D9231893F8425185F00105F9B193F8BB
:104DC0004A31E3B945F002070135BAF1000F18D1B5
:104DD000FA070AD5062104EB0810524601FB0841E8
:104DE000823001F58571FFF775FEBB0734D504EB02
:104DF0000810524649460230FFF76CFE2CE02F4661
:104E0000E3E794F8A1614FF0010B002DE0D0A31966
:104E100093F89911019399B90092DAB100F0AEFCC0
:104E2000019B06EB4601009A4FEA102C83F899B1DA
:104E3000214481F8A201000C81F8A3C181F8A401EA
:104E4000013694F89831013DB6FBF3F103FB11668E
:104E5000F6B2DAE747F00407384603B0BDE8F08F52
:104E60000027F9E710160020074B5A78824209D92B
:104E70001A1892F842212AB9062202FB003000F5E6
:104E8000857070470020704710160020064B5A7836
:104E9000824281BF1B1893F83A01B0FA80F04009B2
:104EA00098BF0020704700BF10160020F8B50E46CE
:104EB00007460621154630460AF079F8044640B107
:104EC0000A482946427800F59D700CF071FB204697
:104ED000F8BD314638460AF03EF808281FBF034B9C
:104EE0000124C01880F83A51F1E700BF10160020E5
:104EF00030B5002442F21075A0F84240B0F84640A8
:104F00004C43B4FBF2F4A0F84640541E05FB0343A7
:104F1000B3FBF2F3A0F84430084BB3FBF2F30133D8
:104F2000A0F84A30838F05FB0344436B5943B4FB1D
:104F3000F2F4B1FBF2F28463426330BD005A6202C4
:104F400070B504460D4649BB4FF442720CF030FB7D
:104F5000012384F8F85084F8A6306FF0360384F803
:104F6000F95084F8F330042384F8F4306FF03B03F5
:104F700084F8F5306F2384F8F6306FF03F0384F83F
:104F8000F7302B2384F8F230FE2384F832317F236C
:104F900084F89D30202384F85C3270BD012917D13C
:104FA0000023A0F81C3280F813320D4BC269134461
:104FB0001146B3FBF2F3C0F8C83040F6B833A0F89E
:104FC000CC30C38C04F19000BDE87040FFF790BF77
:104FD0000229E2D1B0F8E232D0F8DC22C169F1E76F
:104FE0007FC3C90170B504460D4649BB4FF42A7210
:104FF0000CF0DEFA012384F8F85084F8A6306FF044
:10500000360384F8F95084F8F330042384F8F4303C
:105010006FF03B0384F8F5306F2384F8F6306FF0BF
:105020003F0384F8F7302B2384F8F230FE2384F812
:1050300032317F2384F89D30202384F8313270BDD3
:10504000012912D1C2690D4B11461344B3FBF2F38F
:10505000C0F8C83040F6B833A0F8CC30C38C04F1A7
:105060009000BDE87040FFF743BF0229E7D1B0F8D8
:105070005E32D0F85822C169F1E700BF7FC3C90191
:10508000034B80F880101B680BB1008818477047ED
:105090000C010020074B93F900301844142804DC5D
:1050A00010F17F0F03DB40B27047142070476FF0A0
:1050B0007E007047D81700207F2307B50DF1070049
:1050C0008DF8073004F01CFE9DF9073068B10A4ADC
:1050D0005078404240B21844142808DC10F17F0F89
:1050E00007DB40B203B05DF804FB1846FAE7142072
:1050F000F8E76FF07E00F5E7D8170020024B00229A
:105100001A705A70704700BFD8170020054B1B78E3
:1051100033B9054B1A681B7902600371012070478F
:1051200000207047DA17002060000020054BFF22A6
:105130001A70054A016811600179117100221A7014
:10514000704700BFDA17002060000020064B07B54B
:1051500018681B79009068468DF80430FFF7E6FF69
:1051600003B05DF804FB00BFC8220300034640788B
:1051700048B1DB783A2B05D8034AD35C1B1A584256
:105180005841704701207047E8CF02003A2908B51E
:10519000C17003D8064B5B5C437008BDFF2904D087
:1051A0004FF489612A20FBF735FE0123F4E700BFA5
:1051B000E8CF02002DE9F04385B0894614469846B1
:1051C00002A909F0DCFE054600283DD1039E34B952
:1051D000012486F8A540204605B0BDE8F083776934
:1051E0002146384607F0E3FD014678B3194B5B884A
:1051F000A3422DD301AA384607F01BFF96F8A5302D
:105200000198002B0CBF494602210AF0CDF9019804
:105210002246414603300CF0A0F92146384607F0FB
:105220000BFE044618B97A212B20FBF7F3FD9DF8FD
:1052300008302BB102A80AF0CCFA039BA3F80A525B
:10524000002386F8A530C6E70124C4E70446C2E778
:105250002C46C0E7DC170020024B987FC04300F0CB
:1052600001007047DC170020034B987F80F002009C
:10527000C0F34000704700BFDC17002083230B7091
:10528000014B1B78CB707047001800207FB5054696
:105290000C4621B94FF48B711020FBF7BBFD03883E
:1052A0008B8000234B728669304607F0B4FE0146BE
:1052B00010B940F21F11EFE701AA304607F0B9FE1E
:1052C000E08010B94FF49271E6E7FB2802D94FF461
:1052D0009371E1E701980AF06FF9012801D00228E3
:1052E00005D12072206828B940F23D11D4E74FF46F
:1052F0009B71D1E70199E28803310CF02EF9304619
:1053000007F09FFE10B94FF4A171C5E700213046A8
:1053100007F0F5FD10B940F24711BDE70A4BDA7FFF
:1053200082B11A8C02A92888013A1A8409F027FE52
:1053300010B14FF4A871AFE7039AB2F8B630013359
:10534000A2F8B63004B070BDDC1700202DE9F34799
:1053500006460D464FF005080027DFF850912B69EF
:105360003BB11B7A2BB12C699CB9002002B0BDE87F
:10537000F0876C68237A012BF7D0EFF3108372B6B5
:105380006A6812686A6003B962B6237A002BE6D0B5
:105390002C6194F808A05FFA8AFA84F808800AF170
:1053A000FF330B2B74D8DFE803F0700612266D3D37
:1053B0004C3D3D3D3D60636823B94FF4EE711020D4
:1053C000FBF728FD31462046984704201BE0636820
:1053D00013B940F2E511F2E73146204698470346FB
:1053E000ADF80400C0B2C3F30723012B53D0022B46
:1053F00009D12F6151E0636813B940F2EF11DEE784
:10540000204698470020EFF3108372B6227A052ACF
:10541000D1B201D0002944D127722F61002B3CD199
:1054200062B63AE0D9F80030002BEBD05246314654
:1054300060689847BAF10A0FC7D100232B61042096
:1054400094E763680BB9DB21B9E70D2200243270C1
:10545000012219885869A6F803102146B2707271AA
:10546000B47107F04CFD2C61E9E7606810B940F2B7
:105470001A21A4E70E4B31461B68984700230220EF
:105480002B6173E740F2232199E740F2262196E74A
:1054900040F2292193E70323237200283FF45FAFF2
:1054A00064E7002B7FF45BAF62B658E7140100207D
:1054B0001001002070B5134C14260021231D324624
:1054C00018460CF075F8034601252574043332465E
:1054D000002104F11800C4E901330CF069F884F8E4
:1054E000245004F11C03C4E906330023E362236360
:1054F00084F83430C4F83530C4F8393084F83D309D
:1055000070BD00BF0018002010B5084C2378FF2B99
:1055100004D04FF4B7711020FBF77CFC06F0AEFE10
:105520002070BDE81040FFF7C5BF00BF6500002038
:1055300010B5034C207806F0BDFEFF23237010BD8C
:1055400065000020014B187806F0C4BE65000020FD
:10555000014B024A1A607047100100208D52000072
:1055600038B50B4D044605F11801FFF7EFFE70B991
:10557000AB681B7A0C2B04D1064BDA7F0AB11B8C6B
:105580002BB120460449BDE83840FFF7DFBE38BDE7
:1055900000180020DC17002004180020134610B566
:1055A000027A22B140F2C9211020FBF733FC0A46EF
:1055B00001460248BDE810400AF034B90418002042
:1055C000044890F834301BB903492C300AF047B92D
:1055D000704700BF0018002017F800000346064877
:1055E00090F83E203AB190F83D2022B9034900F8E6
:1055F000353B0AF034B97047001800207D52000096
:105600000A4610B5037A23B140F2D1211020FBF7EE
:1056100001FC014607230248BDE810400AF002B928
:10562000181800201346027A0AB1037270470A461E
:10563000014601480AF0F6B8041800201B234FF079
:105640001B128384038482618382C260038541B913
:105650004FF4A473094AC3844384C261C3820261C4
:1056600070474FF429634FF4A472C384438403F159
:105670002963C282C3610361704700BF48014801CA
:1056800003460846B3F86820B3F85C10B3F852C07C
:105690008A42F0B493F87D4028BF0A46B3F86060B0
:1056A000B3F86A10033CB3F85870B142E4B2B3F8EF
:1056B000565028BF3146012CA3F852208BBFB3F8B7
:1056C0005A604FF429660C464FF429649742A3F8B8
:1056D000564038BF17468E4238BF0E469445A3F851
:1056E0005870A3F85A6026D12C1B18BF0124B3F8B8
:1056F0006420B3F85E50B3F850609542B3F854108C
:1057000028BF154693F87C20033A012A15D9B3F82F
:105710006220B3F86670BA4228BF3A46AE42A3F898
:105720005050A3F8542002D1914200D144B1054910
:10573000F0BC0AF09DB80124D9E74FF42962EDE7E7
:10574000F0BC704777F800000B8BA2F809001046F8
:10575000A2F80B304B8BA2F80D308B8BA2F80F30D8
:10576000CB8B0249A2F811300AF07CB8D9F80000BE
:10577000014B1878704700BF3F180020094AD2E952
:105780000003434083EAB01181EA43214FEAF34327
:1057900011605360044B58434FEAF06000EB800007
:1057A000704700BF40180020BB79379E094AD2E9F4
:1057B0000003434083EAB01181EA43214FEAF343F7
:1057C00011605360044B58434FEAF06000EB8000D7
:1057D000704700BF68000020BB79379E10B50A4CA7
:1057E00008210948FBF770FDD4E900231343F7D0E3
:1057F000064CFFF7DBFF2060FFF7D8FF23686060EF
:105800000343F6D010BD00BF680000204018002000
:10581000174B184A9A60184A5A60184A1A60184A70
:105820009A62184ADA62184ADA60184A9A61184A83
:105830001A63184A1A62184ADA64184A9A64184AAB
:105840005A62184B184A9A60184A5A62184ADA6221
:10585000184A1A61184A5A61184A9A61184A1A6312
:10586000184A9A64184ADA64184A9A63704700BF63
:1058700018010020DDFB000013FC00008BFC000081
:1058800065FE0000D7FE0000215F0000EDFE000075
:10589000DD61000029600000FFFF0000270001001B
:1058A000A160000004020020FFFB0000ABFF00002D
:1058B0000FFF0000B3FE000033FF0000C95F0000CF
:1058C000E5000100850001006900010091FF000072
:1058D000044B054A5A65054B054A1A65054A5A653F
:1058E000704700BF1801002087FD0000040200205F
:1058F0006DFD00000DFE0000054B064A9A65064A44
:105900001A66064B064A9A65064ADA65704700BF72
:1059100018010020F3EB00009BEC000004020020C3
:10592000BBEA0000A1EE00003A2A73B505460C461A
:105930003ED83A2A3FD8DFE812F0430084008E00B8
:105940009A00B20098009800C100C300C9009800F6
:105950009800CE00D900C3003E003E00DD00980054
:105960009800F800F800FF00060112013E003E001A
:1059700031014E015B016101670172017401760121
:10598000780183018B01C201C4013E003E009301F6
:105990003E003E00B401A201AC01AE01B001B6016F
:1059A000BA01B801BE0198003E00BC01B201C001BD
:1059B000FF2A00F0888140F2FE315120FBF72AFADD
:1059C000416841F64B50D1F85832B1F85022834229
:1059D00094BF642040F2E240B2FBF0F241F64B503B
:1059E000D2B283422271D1F8542294BF642040F293
:1059F000E240B2FBF0F292B2A3F57A706271120A41
:105A0000A27141F270729042204695BF4FF47A72B3
:105A100040F2E242B3FBF2F3B3FBF2F398BF03F5BB
:105A200050639BB2E3711B0A2372B1F85C3263725C
:105A30001B0AA372B1F85E1202B0BDE8704009F013
:105A4000DFBD43682046D3F84012013102B0BDE803
:105A5000704009F009BE02784368012A02D193F828
:105A6000343101E093F84131237102B070BD4568D3
:105A7000204605F5217109F006FE05F52371204643
:105A800009F00BFE05F51971204609F00CFE05F52D
:105A90009071204602B0BDE8704009F012BE416826
:105AA000204601F2262109F014FE6968204601F51E
:105AB000927102B0BDE8704009F00DBE4368CEE7B8
:105AC000084602B0BDE8704000F03EBB02B0BDE841
:105AD000704000F04BBB0E230B7159234B71002318
:105AE0008B716B23CB7130230B72BEE7436893F845
:105AF0002A31B9E7037846687BB996F8343163B147
:105B000096F82D11204609F052FE96F82C112046E9
:105B100002B0BDE8704009F04EBE96F82B11204649
:105B200009F045FE96F82A11F1E74168204602B0D7
:105B3000BDE870400AF03AB8436893F84E212271EC
:105B400093F84F3109E0436893F84C21012AF4D0CF
:105B500093F878200A7193F87930637185E7456886
:105B600095F84B0209F03BF80146204609F00AFE81
:105B700095F84A02C31E012B07D895F87C30DA1E2F
:105B8000012A02D8984218BF002009F028F80146DF
:105B9000204602B0BDE8704009F0F0BD4568002322
:105BA000204601218DF8043009F00AFD2A7C01A964
:105BB0006B7C2046032A03F01F0308BF002243EA40
:105BC00082139DF8042002F0200213438DF8043064
:105BD00009F0FFFC49E7436811211888FBF7A8FE8C
:105BE00000F15B01204602B0BDE8704009F0A3BDA2
:105BF000084602B0BDE870400BF022B8084602B07B
:105C0000BDE870400BF024B8344B1B68002B3FF408
:105C10002CAF2946204602B0BDE870401847304BF3
:105C2000F3E7304BF1E7304BEFE7304B1B68002BCD
:105C30003FF41BAF0246232002B0BDE87040184776
:105C40002A4B1B68002B3FF410AF02462420F3E7D9
:105C5000264B1B68002B3FF408AF02462520EBE7DC
:105C6000436811211888FBF763FE00F17D0200F103
:105C70005B01204602B0BDE8704009F068BD1C4BD6
:105C80001B68002B3FF4F1AE204602B0BDE8704027
:105C90001847184BF4E7184BB7E7184BB5E7184B04
:105CA000B3E7184BB1E7184BAFE7184BADE7184B0C
