:10000000E0C00020D9460100CB650200C5460100D2
:10001000C5460100C5460100C5460100C5460100B0
:100020000000000000000000000000008D480100FA
:10003000C5460100000000004D480100C546010012
:10004000094A0100094A0100094A0100094A010060
:10005000094A0100094A0100094A0100094A010050
:10006000094A0100094A0100094A0100094A010040
:10007000094A0100094A0100094A0100094A010030
:10025000094A010069930200094A0100094A0100A4
:10026000094A0100094A0100B3930200094A01004A
:10027000094A0100094A0100094A0100094A01002E
:10028000094A0100094A0100094A0100094A01001E
:10029000094A0100094A0100094A0100094A01000E
:1002A000094A0100094A0100094A0100094A0100FE
:1002B000094A0100094A0100094A0100094A0100EE
:1002C000094A0100094A0100094A0100094A0100DE
:1002D000094A0100094A0100094A0100094A0100CE
:1002E000094A0100094A0100094A0100094A0100BE
:1002F000094A0100094A0100094A0100094A0100AE
:10030000094A0100094A0100094A0100094A01009D
:10031000094A0100094A0100094A0100094A01008D
:10032000094A0100094A0100094A0100094A01007D
:10033000094A0100094A0100094A0100094A01006D
:10034000094A0100094A0100094A0100094A01005D
:10035000094A0100094A0100094A0100094A01004D
:10036000094A0100094A0100094A0100094A01003D
:10037000094A0100094A0100094A0100094A01002D
:10038000094A0100094A0100094A0100094A01001D
:10039000094A0100094A0100094A0100094A01000D
:1003A000094A0100094A0100094A0100094A0100FD
:1003B000094A0100094A0100094A0100094A0100ED
:1003C000094A0100094A0100094A0100094A0100DD
:1003D000094A01009D930200094A0100094A0100EF
:1003E000094A0100094A0100094A0100094A0100BD
:1003F000094A0100094A0100094A0100094A0100AD
:10040000094A0100094A0100094A0100094A01009C
:10041000094A0100094A0100094A0100094A01008C
:10042000094A0100094A0100094A0100094A01007C
:10043000094A0100094A0100094A0100094A01006C
:10044000094A0100094A0100094A0100094A01005C
:10045000094A0100094A0100094A0100094A01004C
:10046000094A0100094A0100094A0100094A01003C
:0C047000094A0100094A0100094A010084
:04047C00FFFFFFFF80
:1004800053B94AB9002908BF00281CBF4FF0FF31FB
:100490004FF0FF3000F00CB8ADF1080C6DE904CE60
:1004A0000CF092F8DDF804E0DDE9022304B07047B7
:1004B000704700BF2DE9F00791E8F807B2E8021095
:1004C0005B1854EB0C04B2E802104D4156EB0C06DD
:1004D000B2E802104F4158EB0C08B2E8021059EB99
:1004E00001095AEB0C0A80E8F80780410130BDE8A9
:1004F000F00770472DE9F00791E8F807B2E802101D
:100500005B1A74EB0C04B2E802108D4176EB0C061A
:10051000B2E802108F4178EB0C08B2E8021079EBD8
:1005200001097AEB0C0A80E8F80780414042BDE8F7
:10053000F00770472DE9F007524290E87800B1E8E3
:1005400080071740DB1918EA020854EB080419EA7F
:10055000020955EB09051AEA020A56EB0A0678C0A9
:1005600090E87800B1E8800717407B4118EA02085C
:1005700054EB080419EA020955EB09051AEA020AC4
:1005800056EB0A0678C080410130BDE8F00770479D
:100590002DE9F007524290E87800B1E88007174053
:1005A000DB1B18EA020874EB080419EA020975EB70
:1005B00009051AEA020A76EB0A0678C090E8780084
:1005C000B1E880071740BB4118EA020874EB080441
:1005D00019EA020975EB09051AEA020A76EB0A061E
:1005E00078C080414042BDE8F00770472DE9F00136
:1005F00052424FF0040890E8300091E8C000A31B7D
:100600001340E41AF618EB1B1340ED1AFF1830C024
:10061000C0C1B8F10108EED1BDE8F001704700BFDC
:1006200000B592E8DC072DE9DC07B1E8805702B499
:10063000A7FB02510A95A8FB020BE7FB6310E9FB3D
:1006400062B00B91A8FB0351EAFB6201E7FB64B5C2
:10065000E7FB6605E8FB6615CDF830B0A9FB03B6ED
:10066000EAFB6316ECFB6356E8FB640BE9FB641BD7
:10067000EAFB645BECFB646B0D90ACFB0230059C09
:10068000EEFB6250E9FB6460EAFB64B0E7FB6431B7
:10069000E8FB6451069CE8FB6461E9FB64B1EAFB9A
:1006A00064010E93A7FB0432079CE7FB6462E8FB3E
:1006B00064B2E9FB6402EAFB6412049CE9FB645344
:1006C000EAFB6463089CE7FB64B3E8FB6403E9FBB3
:1006D0006413EAFB64230F955DF8049B99E8000618
:1006E000DDF80080A9FB0854EAFB68B4DDF810804F
:1006F000ECFB6804EEFB6814E9FB6824EAFB683451
:10070000DDF80480EEFB6865E9FB68B5EAFB680587
:10071000DDF81480ECFB6815EEFB6825E9FB683515
:10072000EAFB68450F96DDF80880AEFB0876E9FB2A
:100730006806EAFB6816DDF81880ECFB6826EEFB1D
:100740006836E9FB6846EAFB6856DDF80C80ECFB8E
:1007500068B7EEFB6807E9FB6817EAFB6827DDF876
:100760001C80ECFB6837EEFB6847E9FB6857EAFB47
:10077000686708B000BD00BF2DE9F14F87B0FFF7F3
:100780004FFFDDF81C8008F1200888E8FF00FFBC5F
:1007900087E87F08BDE8F08F00B591E89857A3FB84
:1007A00003520195A3FB0401E3FB6420E3FB671004
:1007B0000292A3FB0752E3FB6802E4FB6415E3FB30
:1007C0006805E3FB69250391A4FB07B6E3FB6926F3
:1007D000E3FB6A56E4FB670BE4FB682BE3FB6A5B15
:1007E000E3FB6C6B0490A4FB0810E4FB6950E3FB93
:1007F0006C60E3FB6EB0E7FB6721E4FB6951E4FB4F
:100800006A61E3FB6EB1E4FB6E010592A7FB08325F
:10081000E4FB6A62E4FB6CB2E4FB6E02E7FB6E127F
:10082000E7FB6853E7FB6963E4FB6CB3E7FB6C032E
:10083000E7FB6E13E8FB6E230695A7FB0954E7FB65
:100840006AB4E7FB6C04E8FB6C14E8FB6E24E9FB7C
:100850006E34E8FB6865E7FB6AB5E8FB6A05E8FB10
:100860006C15E9FB6C25E9FB6E35EAFB6E450796D6
:10087000A8FB0976E8FB6A06E9FB6A16E9FB6C2629
:10088000EAFB6C36EAFB6E46ECFB6E56E8FB69B79A
:10089000E9FB6907E9FB6A17EAFB6A27EAFB6C37A1
:1008A000ECFB6C47ECFB6E57EEFB6E6700BD00BFC8
:1008B0002DE9F14F87B0FFF76FFFDDF81C8008F1DD
:1008C000200888E8FF00FFBC87E87F08BDE8F08FBC
:1008D00030B44FF0000310F8014B11F8015B013AFE
:1008E00084EA050443EA0403F5D1A3F101034FEAC6
:1008F000D37030BC704700BF4FF0000310F8012BDD
:10090000013943EA0203F9D1A3F101034FEAD3709D
:10091000704700BF30B411F8014B12F8015B6C4016
:1009200000F8014B013BF6D130BC70472DE9F007D0
:1009300091E8F807B2E802105B1854EB0C04B2E837
:1009400002104D4156EB0C06B2E802104F4158EB35
:100950000C08B2E8021059EB01095AEB0C0A894164
:10096000B3F1FF3374F1FF3475F1FF3576F1000612
:1009700077F1000778F1000879F101097AF1FF3A7F
:1009800051F100015B184C414D4156F1000657F101
:10099000000758F1000859EBD1795AEB010A80E8B9
:1009A000F807BDE8F00770472DE9F00791E8F80770
:1009B000B2E802105B1A74EB0C04B2E802108D412D
:1009C00076EB0C06B2E802108F4178EB0C08B2E827
:1009D000021079EB01097AEB0C0A89415B184C4152
:1009E0004D4156F1000657F1000758F1000859EB48
:1009F000D1795AEB010A80E8F807BDE8F0077047A3
:100A000018EB040859EB05095AEB060A5BEB070BD8
:100A10005FF0000C4CF1000C18EB050859EB0609CF
:100A20005AEB070A5BEB070B50EB0C005FF0000C76
:100A300051EB0C0152EB0C0263414CF1000CB8EB92
:100A4000070879F100097AF1000A7BEB040BA84151
:100A5000B141A241B3416CF1000CBBEB050BB041BD
:100A6000B941AA41BB416CF1000C4CF001068CF07D
:100A7000020718EB060859EB6C095AEB6C0A7BEB82
:100A80006C0B70EB6C0471EB6C0572EB670653EB4F
:100A90006C076CEB6C0C18EB0C0059EB0C015AEB6F
:100AA0000C025BF1000354F1000455F1000556EB14
:100AB000DC7657EB0C0770472DE9F14F87B0FFF755
:100AC000AFFDDDF81080DDF81490DDF818A0FFF719
:100AD00097FFBDE8000FFFF793FF03B05DF8048BAD
:100AE00088E8FF00BDE8F08F2DE9F14F87B0FFF7F0
:100AF00053FEDDF81080DDF81490DDF818A0FFF744
:100B00007FFFBDE8000FFFF77BFF03B05DF8048BAC
:100B100088E8FF00BDE8F08F1FB50B4B01A90193DA
:100B20004FF4B873ADF8083008238DF80A30837895
:100B300003208DF80B30FF238DF80C3000F078FE89
:100B400005B05DF804FB00BF8B0A01001FB50B4B1D
:100B500001A901934FF44273ADF8083008238DF8D2
:100B60000A30437802208DF80B3000238DF80C30CA
:100B700000F05EFE05B05DF804FB00BFEF0E010063
:100B80001FB572B6194B5D68E5B9BFF34F8F1849B1
:100B9000184BCA6802F4E0621343CB60BFF34F8F77
:100BA00000BFFDE7B4FBF6F4D3B20132002CF9D15B
:100BB00003F110026A4402F80C4C0A2233B901A86E
:100BC000A847E2E7044600220A26EDE7013BDBB234
:100BD00003F110040DEB0406B0FBF2F402FB140069
:100BE000303006F80C0C2046E8E700BFA80D0020C6
:100BF00000ED00E00400FA0513B5114C6846237CB3
:100C00008DF80130E37B8DF80030A37BADF8043024
:100C1000637BADF8023003F00BFD18B1DE21032039
:100C2000FFF7AEFFA07E03F033FD08B1E121F6E748
:100C3000607E03F027FD08B1E221F0E702B010BDAD
:100C4000A80D00202DE9F34104460D4671B91C4B57
:100C500093F82E3053B9012101A80193FFF7F2FF59
:100C600020B94FF403710320FFF78AFF2368002D9A
:100C7000144F4FF0000603F10703DFF84C800CBF60
:100C80002046002023F00703236000F0A9FD57F859
:100C9000043B0BB1404698470136122EF7D100F0C5
:100CA00017FE031E09DB206818440DB1002804DB81
:100CB0002060012002B0BDE8F0810020FAE700BF0B
:100CC000A80D00205C000020B00D00202DE9FF41A0
:100CD000B0FA80F60546039003A876093146FFF77F
:100CE000B1FF20B96FF00B0004B0BDE8F0818F4C6C
:100CF000A17B607B0331237CE27B03300CF000FCA2
:100D0000011EEFDB0398002D237A627A00F10300C5
:100D1000134420F0030003FB01F1039008BF0020FF
:100D200000F038FF039B0DB9C342DBD41844A37A0B
:100D30000390C3B1E17D1944E37A1944FF29D1DC62
:100D40000330002D628AC9B220F00300039008BF6F
:100D5000002000F08FFF031EC4DB039818440DB978
:100D60000028BFDB0390724F7B68F3B1617CE1B177
:100D700094F82F300398002B00F1070014BF402394
:100D8000252320F0070014BF4FF481722822002D84
:100D9000039008BF002002F041FD031EA2DB039870
:100DA00018440DB900289DDB0390217DC1B1A37AC1
:100DB0001BB97B68A3B1637C93B10398002D00F14C
:100DC000070020F00700039008BF002005F07EFB1D
:100DD000031E87DB039818440DB9002882DB0390BB
:100DE000544B1B68B3B1217BA1B10398002D627DE8
:100DF00000F1030020F00300039008BF0020984793
:100E0000031EFFF66FAF0398184415B90028FFF6CC
:100E100069AF0390484B1B68ABB1A17D99B10398B2
:100E2000002D00F1030020F00300039008BF002014
:100E30009847031EFFF656AF0398184415B90028CB
:100E4000FFF650AF03903D4BD3F80080B8F1000F90
:100E500019D0E17DB9B10398002DA37E00F1030004
:100E6000227E009320F00300637E039008BF0020E1
:100E7000C047031EFFF636AF0398184415B9002883
:100E8000FFF630AF0390FB69BBB1217BA9B103989A
:100E9000002D227F00F1030020F00300039008BF23
:100EA000002000F0D5FF031EFFF61CAF0398184486
:100EB00015B90028FFF616AF039094F82700C0B1CB
:100EC000039A94F821300332A17F22F007021944DB
:100ED000334642F00402C9B2039200F0FBFF031E46
:100EE000FFF600AF0398184415B90028FFF6FAAED4
:100EF000039094F82810002975D0039F002D628D6F
:100F000007F1070708BF002027F0070718BF38467A
:100F100003970CF00AFB031EFFF6E4AE0398184497
:100F200075B90028FFF6DEAE0AE000BFA80D00206C
:100F30005C000020A4000020AC000020A8000020DD
:100F400003901DB1618D384609F0FCF994F8221028
:100F500000294AD094F82630002B46D00398002D63
:100F6000A28C00F1070002F1240220F0070092B2E7
:100F7000039008BF00200CF0D8FA021EFFF6B2AEB4
:100F8000039F3A4415B9002AFFF6ACAE033294F839
:100F90002030A17F22F0070294F82600194433463E
:100FA00042F00402C9B2039200F086FF031EFFF66E
:100FB00099AE0398184415B90028FFF693AE039034
:100FC0003DB1A28C384694F82210083292B209F052
:100FD000BFF9236BA3B1039B05B1236328330393AC
:100FE0004DB1002080E60F46ABE7002DF1D0002286
:100FF00011461046EBE7002BFFF674AE039873E63C
:10100000002DEED1FAE700BF38B50546002850D0D4
:101010000BF012F918B94FF0FF34204638BD10F02C
:1010200098F8B0F5FA7FF6D8234C2448656000257F
:1010300000F0B6FA48222946214884F82E5010F0D4
:1010400090FC2622294604F10800257084F82F50D0
:10105000256310F086FC40F2011301212A4623810A
:101060001B230846A172637340F21B332177E3818F
:1010700040F2023323821F2363824FF40273A38260
:1010800044F601132383F723A384FB23638502F033
:1010900087FD044620B140F273310320FFF770FD55
:1010A000EFF3108572B600F025FF002DB5D162B6C2
:1010B000B3E76FF01504B0E7A80D0020F90B0000AE
:1010C0005C00002010B5002840F0AF80584C94F828
:1010D0002E30032B00F0A680A1B1002A70D0013978
:1010E000152900F2A280DFE801F00B1C1F2F575FCB
:1010F00078356265733B414E537D808E919585991D
:10110000137823720020FFF7E1FD0028B7BF012309
:1011100002236FF00B0084F82E30A8BF84F82E3025
:1011200010BD13786372EDE79378002B48D0D37825
:10113000002B45D013781A2B42D953781A2B3FD95C
:101140001368C4F80D30DDE71378E27A934237D3A1
:10115000A372D7E71378A27A934231D8E372D1E72A
:101160001378A27A93422BD8E375CBE713783BB37D
:101170005378013BDBB2F82B22D813889278238373
:101180002C4B9A70BEE71078E07607F0CDFDB9E7FA
:101190001378ABB12377B5E71378274A52680AB1C1
:1011A000012B0DD96374ADE713886382AAE7137826
:1011B0002373A7E720491378C96921B9012B04D803
:1011C0006FF01500ACE7002BFAD01378637599E740
:1011D0001378082BF4D8A37594E71388FF2BEFD866
:1011E00023758FE7137863778CE713780E2BE7D896
:1011F000A37787E713681149C4F8223053684B601E
:1012000013890B817EE71378E3777BE7137884F803
:10121000213077E7137884F8203073E7137884F867
:101220002C306FE74FF0FF307AE76FF02C0077E754
:10123000A80D0020C00D00205C000020CA0D002079
:1012400070B50D460646002841D000293FD04B0717
:101250003DD1204C94F82E30012B02D16FF00B00C1
:1012600070BD032B02D14FF0FF30F9E700F0CCF84E
:101270000028F8D02846FFF729FD0028EEDB164BA2
:10128000D3F8A828B2F1004F0ED1144AC3F8A82809
:10129000134AC3F8AC28134AC3F8B028124AC3F85B
:1012A000B428124AC3F8B82830460BF089F884F8FD
:1012B00034000FF0D0FE94F83400216B03F06AFA8A
:1012C000FFF79AFC0323002084F82E30C8E76FF064
:1012D0001500C5E7A80D002000A008505F005003CE
:1012E00008001C00040054011FAAF8000700D000E9
:1012F00010B5094C94F82E30032B07D103F066FA91
:1013000009F016F894F834000BF076F80CF036FA81
:10131000002084F82E0010BDA80D002050B1074B0E
:1013200003F1140253F8041B934240F8041BF9D153
:10133000002070476FF01500704700BF4112030096
:10134000074B10B593F82E4034B903F0EDF9054B77
:10135000054A2046DA6010BD4FF0FF30FBE700BFC2
:10136000A80D00205C000020190B0000074B10B5F1
:1013700093F82E4034B903F0EBF9054B054A2046AB
:101380009A6010BD4FF0FF30FBE700BFA80D0020B2
:101390005C0000204D0B0000054B10B593F82E406B
:1013A0001CB903F083F9204610BD4FF0FF30FBE776
:1013B000A80D0020054B10B593F82E401CB90DF078
:1013C000CAFC204610BD4FF0FF30FBE7A80D0020FF
:1013D000054B10B593F82E401CB90DF0BFFC20460C
:1013E00010BD4FF0FF30FBE7A80D00200268002081
:1013F000014B1A60704700BFE00D0020014B1B68D5
:10140000184700BFE00D0020024B1868003818BFD5
:1014100001207047E00D0020F7B504462D4E071D52
:101420002C48376004F06AF90228054606D129499C
:1014300020460BF044FA284603B0F0BD042842D100
:101440003378092B0AD0252B1ED0314620460BF0CD
:10145000B0FAB0F5817F2DD3722112E005213E2034
:101460000BF000FA0028F0D1F37801A93279684630
:1014700043EA0223ADF800300BF01AFE0028CFD06B
:1014800053210820FFF77CFB1A213E200BF0EAF9DC
:101490000028DAD17368694601A8C3F30F23ADF8B9
:1014A000043011238DF806300BF024FE0028B7D04D
:1014B0006521E6E70028B3D0A17820780BF0D2F9B7
:1014C0000028B8D1ACE70828B5D1024920460BF076
:1014D0002EFAB0E7E40D0020074B4FF0FF3141F644
:1014E000FF72C3E9001205490022C1E900221F2151
:1014F000C3E90212704700BF00000020E80E002080
:101500003F280CD801380B4BC0F3421200F01F00EB
:1015100053F8223023FA00F000F001007047FF2852
:1015200006D04038044BC0F3421200F01F00EFE732
:101530000120704700000020E80E0020074B014604
:10154000006849681A4603C240F48C221A6041F0D0
:10155000107242F4FF625A60704700BF0000002022
:101560000246024B0068516803C37047E80E002032
:101570000246024B0068516803C370470800002010
:101580000138064BC0F3421200F01F0003EB820348
:101590009B6823FA00F000F0010070470000002073
:1015A000014B1860704700BFF00E002010B5FFF728
:1015B00093FF0CF09CFE034B04461B6803B1984755
:1015C000204610BDF00E002038B5274B0446D3F856
:1015D000A023D3F8A413013106D1D3F8A8334FF6D2
:1015E000FF719BB28B423DD0D3073BD51E4DD5F842
:1015F000A423D5F8A833C4F80120A4F80530C3F318
:10160000072363F03F03A371D5F89033013323D050
:10161000D5F8943301331FD0D5F8983301331BD05C
:10162000D5F89C33013317D0002003F035FA98B970
:10163000D5F89003D5F89413D5F89823D5F89C33B2
:10164000C4F80700C4F80B10C4F80F20C4F8133016
:1016500001230020237038BD10220021E01D10F06E
:1016600080F9F5E70023F4E700C0FF0070B5274DCF
:10167000102200210446D5F8A06310F072F9102260
:101680000021A01810F06DF9D5F8803301330BD18B
:10169000D5F88433013307D1D5F88833013303D12A
:1016A000D5F88C3301330BD0D5F88003D5F88413EB
:1016B000D5F88823D5F88C3320616161A261E3619C
:1016C000002003F0E9F908B9F3071CD40F4BD3F855
:1016D000902301320BD1D3F89423013207D1D3F8F0
:1016E0009823013203D1D3F89C2301320BD0D3F8D5
:1016F0009003D3F89413D3F89823D3F89C33206045
:101700006160A260E360002070BD00BF00C0FF0008
:1017100070B50C88C27CA6B2C4F30E04931C058875
:1017200004F114021D44825AADB21A4443882A447B
:10173000013AB2FBF5F202FB054292B29342044B2E
:101740008BBF3340B34313439BB20B8070BD00BFCC
:101750000080FFFF4A1E062A08B50346084604D843
:101760004FF4D1711520FFF70BFA094A914202D9C3
:1017700040F2A311F6E711B903B1196008BD2BB10E
:101780001B680022C3E901211A1D1A600430F5E725
:10179000FAFFFF7F10B5114B00EB41041A78638903
:1017A000B3FBF2F303FB0223013A1A44B2F5706F64
:1017B000027928BF00231A448378B2FBF3F019445E
:1017C00003FB1020091AB1FBF3F003FB10131344C1
:1017D0006FEA43436FEA5343638110BDF40E002068
:1017E000124B10B5E0B15A78022A04D040F22B1106
:1017F0001720FFF7C5F903225A70026812F007019B
:1018000002D04FF49871F3E75C685A602244BDE857
:101810001040026003F10C009A60482210F0A1B859
:101820000122C3E901005A7010BD00BFF40E002070
:101830002DE9F041254E96F801E00EF0FD0CBCF1CB
:10184000010F04D040F245111720FFF799F991F8E4
:101850000680B8F1080F02D940F24711F4E7CF79BA
:1018600097B345467B1D7268022D4FEA430402EB95
:10187000430338BF02256A1E6D421344C8F10002BB
:101880002B408D884544013D2A40B2F5803F02D36C
:101890004FF4A971D8E7BEF1030F12D106EB800017
:1018A0001C1BC56815B140F25711CDE7C460A77085
:1018B000228084F803C0087A09682071080C21810D
:1018C000E08007FB02337360BDE8F081F40E002076
:1018D0002DE9F047364C6378012B65D0032B04D0FB
:1018E00040F267111720FFF74BF9D4E901329A4211
:1018F00002D04FF4B571F5E70023254611221E46AC
:10190000994605F80C3B55F82200013A58B190F879
:1019100004808178B8F1FF0F2FD180F804908E42B7
:101920003CBFCEB20123511CEDD103B1267011266C
:1019300040F6FF6955F826709FBB013EFAD204239A
:1019400000206370BDE8F08755F82CE0BEF1000F71
:1019500006D09EF804A0C24504BF9EF802E077447A
:101960000CF1FF3CBCF1000FEEDA3944FF2907D936
:1019700003B126704FF48371B4E794460027F1E772
:101980000771CCE707EB410308F101083846A3F8DB
:101990000A90FFF7FFFE5FFA88F1BB788B42F1D81F
:1019A000CBE74FF00008F6E7022360686370C9E7F1
:1019B000F40E0020F8B54FF6FF7305460380184B70
:1019C00003EB8103D868B8B186780379B3FBF6F2EC
:1019D00006FB1233DBB219460A1D00EB4202B2F9D4
:1019E00002705488002F09DB0131B1FBF6F206FBCF
:1019F0001211C9B28B42EFD10020F8BDFF29FBD0F4
:101A0000C4F30E03C4782B8024B94FF4D971172086
:101A1000FFF7B6F85380BDE8F8400BF050BD00BFAB
:101A2000F40E00201D4B03EB810370B5DC68054606
:101A300044B3030404D54FF4E0711720FFF7A0F876
:101A4000014620460BF01EFDFF28014604D020462B
:101A5000BDE870400BF033BDA078B5FBF0F300FBA0
:101A60001353DBB219460A1D04EB4206B6F90260B5
:101A7000002E09DB0131B1FBF0F200FB1211C9B2FB
:101A80008B42F0D1002070BDFF29FBD08B4204EBCC
:101A900042021CBF0023E3705580D8E7F40E0020FB
:101AA000094B03EB8103014610B5DC6820460BF0BF
:101AB000E9FCFF28014604D02046BDE810400BF0A9
:101AC000FEBC002010BD00BFF40E0020F8B5104B86
:101AD000074603EB81030146DC6820460BF0D2FC8D
:101AE000FF28054611D0E688238953EA064606D02A
:101AF000014620460BF0E3FC01463846B04720463D
:101B00002946FFF747FE0020F8BD0520FCE700BF8F
:101B1000F40E002038B50E4B0446827903EB8203A5
:101B2000D86808B9052038BD8278E1799142F9D2A8
:101B30004B1CE37100EB41035D89B3F90A30002BC4
:101B4000F3DBA5800BF0BBFC20600020EBE700BFBF
:101B5000F40E002008B50E4B03EB8103DA6822B9BE
:101B600040F22E211720FFF70BF89178831A481DB9
:101B7000A3EB40031088B3FBF0F3002B01DB994289
:101B800002DC40F23121EDE702EB4303588908BD46
:101B9000F40E002070B5044610F003000E4603D08A
:101BA0004F211820FEF7ECFFFFF7D4FD054624B1C6
:101BB000034831460460FFF7CDFD284670BD00BFE5
:101BC000480F00202DE9F14FDFF870B01E460746A0
:101BD0000D46DBF8003090469DF828A09DF82C902B
:101BE0001BB961211820FEF7CBFF52460921404660
:101BF0000BF0CFFA4A4684B2092130460BF0C9FAFD
:101C000081B2DBF8000021440BF011FC386018B9F8
:101C1000286001B0BDE8F08F0444534641460922D4
:101C20002C6038680BF06EFA4B4609223146286862
:101C300001B0BDE8F04F0BF065BA00BF480F0020BF
:101C400070B50E4604460BF0B7FA054630460BF069
:101C5000B3FA044B2A1821461868BDE870400BF00F
:101C60000ABC00BF480F0020014B18680BF0D3BB23
:101C7000480F00201F2AF8B5044613460ED89200DC
:101C8000033222F00303B3F5803F2DD2184DACB1DF
:101C9000A00710D05F210920FEF772FFFF2B4FEA4B
:101CA000420204D9FF339A42A8BF1A46E8E77C2AC9
:101CB000B8BF7C22E4E729706C602B8122F003021C
:101CC00028230127120403FB01F06B680025120C86
:101CD000EEB28E4200D3F8BD14B126181F705E60BC
:101CE000104401352833F3E74FF0FF30F3E700BF2E
:101CF0004C0F0020144A002138B553681478C8B23C
:101D0000844203D8AB210920FEF73AFF184601317F
:101D100028330578002DF2D000218170012412892A
:101D20008161051D44709208C16100F12001446881
:101D300021F8022B994245F8044B1444F8D10023B2
:101D40004361037038BD00BF4C0F00200A4B1B8954
:101D5000B3F5FF7F4FEA930006D25A089B1A9BB255
:101D6000984238BF18467047B3F5EE6F01D8FF228E
:101D7000F4E740F27263F3E74C0F00202DE9F843DB
:101D80004B7880460C4602F0040602F0FB07D3B104
:101D9000DFB12E4BD4F804901D89B7BB0123AD08E9
:101DA0004A46211D637004F1280004F12003A76155
:101DB000E76123F8025B984241F8042B2A44F8D1EA
:101DC0000023636101E0002FE3D0FF23A370002E06
:101DD00018BF0226A3191B7D032B03D1022F1CBFA2
:101DE0000136F6B2A31901221A7506F10C0200237E
:101DF00004EB860624F812307268A3704046C8F8D7
:101E00000020A8F80430BDE8F88300211422617096
:101E1000A0180FF0A6FDB5F5FF7F0FD26B08ED1AE5
:101E2000ADB209EB0502C4F804902584A260638476
:101E3000C4F80C90A5842261E384C6E7B5F5EE6F83
:101E40004FF0FF03EBD940F27265EAE74C0F002038
:101E50002DE9F84305460C46F720052191460BF085
:101E600098F9061E22DB1DB906FB04F0BDE8F883D5
:101E700015F0030703D098211920FEF781FEDFF843
:101E80003480C8F81050A5B2A8F81460BBB29D42C7
:101E9000EAD9B8F814C04B46D8F810000522F7214B
:101EA00007FB0C0001370BF02DF9EFE74FF0FF3087
:101EB000DCE700BF600F002007B5CDE900230B462B
:101EC00003490246081D0BF033FC03B05DF804FB28
:101ED000780F002013B5064CCDE900230B460246CF
:101EE00004F1080104F10C000BF022FC02B010BD5B
:101EF000780F0020124B01224FF0FF3000211B68A9
:101F00005A60C3F80803C3F80015C3F804250D4B45
:101F10001B685A6040F6FE72C3F808034020C3F8FD
:101F20000015094B0949C3F80825C1F88800BFF31B
:101F30004F8FBFF36F8FC1F88801C3F80825704732
:101F400028040020240400200020085000E100E0C4
:101F50000A460648382302F8033BC368C1F8033039
:101F60000369536043699360704700BF880F002086
:101F7000024B5A8C02435A845B6A1847880F002030
:101F8000014B00215B6A1847880F00200138C0B25E
:101F9000032808B504D940F21F410620FEF7F0FDE2
:101FA000014B185C08BD00BF00BF020010B50E4C0D
:101FB000A26A137803F00303032B04D1D378022B16
:101FC00001D1002010BDE06A0BF088F90028F9D19A
:101FD000A36A1B7803F00303032BF2D002F01CFD6D
:101FE00080F00100C0B2EDE7880F002038B51D4C2D
:101FF0000546236B984708B9012038BD94F8343062
:10200000002BF9D194F838301BB9012D03D00020F2
:10201000F3E7002DFBD194F84030DD06C3F3001048
:1020200001D5FFF7C3FF636CA26C1B78C3F30013E9
:102030002AB9B4F84C2013B1B2FA82F35B0994F8D0
:102040003810628C39B1910705D5A36AD878023867
:1020500018BF0120D1E7002ACED10028D7D183F0C4
:102060000100CAE7880F0020014BD86B9030704701
:10207000880F0020014BD86B704700BF880F0020ED
:1020800010B5174C07F06CFD07F094F8B4F84E004B
:10209000FFF776FF237E63B12246124904F119004F
:1020A00052F80C3BE36063685360A36893600DF0E3
:1020B000BEFD0D4BB4F84E2093E8030004F090FAF7
:1020C000FFF7D8FF008804F0B5F9636D94F8341079
:1020D00094F850009847002384F8583010BD00BF92
:1020E000880F0020511F0000C00F0020034B93F801
:1020F00058300BB1FFF7C4BF704700BF880F0020F6
:1021000008B5094B93F85820022A04D040F2532115
:102110002720FEF735FDDA7A42F00102DA72BDE8D7
:102120000840FFF7ADBF00BF880F0020F8B5244C72
:102130000746FFF79FFF0546FFF796FF636C0646CD
:1021400094F86000E365337D0BB1031DD8B295F8B8
:102150007D102FB9FF2803D195F87C308B4201D038
:1021600007F0FAFA337D23B3606E07F0D5FD94F8DB
:102170003830616E003BE06D18BF012384F8883071
:10218000D6E91E23C4E91E2306F02EFF47B995F8B1
:102190007D30033B012B94BF2820002007F0FAFD7F
:1021A00095F87C10002007F055FE022384F8583083
:1021B000F8BDE06D07F0B0FD06F0FCFFE6E700BFFC
:1021C000880F00202DE9F347314D0646FFF74CFFFD
:1021D0000F4695F858300446012B5FFA83F804D077
:1021E00040F2A4412720FEF7CBFC03794BB100213C
:1021F00001710420FFF7BCFE95F838300BB184F86C
:102200000680A96A0B7803F00303032B04D1A37A99
:1022100013B90220FFF7ACFEAA6A137803F0030398
:10222000032B02D0537823BB0123A372237DD3B1A8
:10223000FFF720FF95F8383090F87D00003B95F8C7
:1022400060A018BF0123D4E91E8985F88830C5E94C
:102250001E89FFF79BFE002203460E4900920220D2
:10226000524606F059FE36B102B0BDE8F047FFF71E
:1022700007BF0223D9E7002FF6D03046FFF7B6FE9E
:102280000028F1D102B0BDE8F047FFF74FBF00BF13
:10229000880F0020F00F002073B50246FFF7E4FE20
:1022A0000546664CFFF7E6FE0023297D06468DF8BD
:1022B000053094F8603009B10433DBB296F87C1035
:1022C0002AB9FF2B03D196F87D308B4202D0FF2034
:1022D00007F042FAAB7A032B00F2A780DFE803F0A5
:1022E000023A859894F890305548ADF80630A6F833
:1022F0006C3002F067FB78B1A16A4FF48070FFF791
:1023000037FE0121A36A6971DB781B2B1ED106F110
:10231000100007F051FA19E00DF105020DF1060168
:10232000E06A0AF071FFA062A0B195F851308BB954
:102330009DF805302BB9038001218370A06A0DF050
:102340002FFBBDF80610A06A0DF035FC012384F8C0
:10235000913001E03B4BA362EB7AA16ADB0003F012
:1023600008020B7803F0F30313432A7B920002F078
:102370000402134323F010030B70FFF717FE00282D
:10238000A06A14BF10230023027813430370EB7C70
:10239000002B4DD04378002B4AD0606E07F0BCFC78
:1023A00094F83830A16AB3FA83F3606E5B0984F85D
:1023B0008830D5E91C23C4E91E2306F015FEA06A67
:1023C0000BF0EEF996F87D10012007F043FDA26AAC
:1023D0000123118884F8E230A4F8401091781A4A59
:1023E00084F85830917002B070BDB6F86C300DF1C1
:1023F00005020DF10601E06AADF806300AF004FFAF
:10240000A0620028A2D140F2F3212720FEF7B8FBFA
:102410000B4802F0D7FA10B940F2FD21F5E7A36AA4
:10242000DB781B2B92D1012171E740F20B31ECE7F5
:1024300007F072FC06F0BEFEC1E700BF880F002067
:10244000B00F00201A100020C80F0020064B10B556
:1024500093F8582002F0FF0422B91C7604F0B8F873
:10246000204610BD0C24FBE7880F00200A4B0B4AC6
:1024700070B506460D461A60FFF7E8FF18B1E12176
:102480002720FEF77DFB064C012104F192000DF0A0
:1024900087FA6664656670BDC0000020B000002049
:1024A000880F0020024B012283F8E320704700BF11
:1024B000880F00202DE9F04385B0B54C02AE0C9F8B
:1024C00086E8030094F8581001F0FF0511B90AB12D
:1024D00003B127B940F26F112720FEF751FB04F139
:1024E000380C23636262676584F8E35084F83450E3
:1024F00084F8E45084F8505084F8E25084F8915005
:102500006584A4F84E5096E803008CE80300FFF7BA
:10251000ABFD0746FFF7AEFD054607F06FF906F085
:1025200049FE95F9800007F0DBF9A86B07F0D8FBAE
:10253000286A07F0DBF997F8240007F0FDF994F812
:102540003860EA6941F64B53002E40F0CB809A4246
:1025500000F2B7804D2007F08FF8304607F054FAAC
:102560006E2195F87C20002007F06EFA894B1868E0
:1025700007F0BCFB6B69E362AB69C4F8E83095F81F
:102580008B3063B9D5F884204AB1F98F3B898B42EF
:1025900005D1B5F888100B44FB870123136007F1C0
:1025A00080037D4E07F1900C1868083353F8041C23
:1025B0003246634503C21646F6D15968D7F89000F3
:1025C000764A03C2FFF756FD0146FFF74DFD837BB8
:1025D0000246A3F12600012891F87C0003D9D27BA2
:1025E000262A40F0948094F83820E36B002A40F0CB
:1025F0008B8093F84A120BF0C3F8064605F14408A5
:10260000314640460DF0D1FB31460CF009FFB5F8DC
:10261000503095F87D10834228BF0346404684F829
:1026200090300DF088FB95F87D1097F81480042900
:10263000B5F8586008BF03210CF0F2FEB8F1000FA6
:1026400001D1043080B2B04228BF3046C6B284F80F
:10265000EC6003F049F910B1492E38BF492694F8CF
:10266000388084F86060B8F1000F77D1FB7C93B1BB
:10267000012395F87C0084F88830D7E91C23C4E94D
:102680001E23FFF783FCFB22034643490420CDF8B9
:10269000008006F041FC0120FFF7FEFD00232360CF
:1026A0006360A3603B8963802B88238097F8243084
:1026B0002371D5F88C300BB101221A6005B0BDE84A
:1026C000F083962006F0D8FF95F87C20344B03EB7E
:1026D000820359684FF47A7301F5FA71B1FBF3F193
:1026E0006E313EE79A420AD84D2006F0C5FF012020
:1026F00007F08AF99B2195F87D20012034E7962088
:1027000006F0BAFFC421F6E793F8D61273E7213B2F
:10271000012B10D8242A10D094F83830CBB1E36BB9
:1027200093F84E315A0712D413F001017FF463AFCE
:1027300003F002015FE7242A0BD194F8383043B14B
:10274000E26B92F84E3192F875201340EAE70421CB
:1027500051E7032814BF064604264FE73B7D93B19B
:10276000012395F87D00D7E91E8984F88830C4E9F3
:102770001E89FFF70BFC0022034607490092022046
:10278000324606F0C9FB0120FFF7D0FC86E700BF08
:10279000880F0020C0000020F00F0020081000204B
:1027A00000BF020008B5114B93F858201AB9BDE8D4
:1027B0000840FFF765BC93F8382042B993F85830C9
:1027C000012B12D040F231212720FEF7D9F993F8DE
:1027D0005820022A02D040F23521F5E7DB6BD3F80E
:1027E0001802BDE8084007F0A9BA08BD880F00200C
:1027F000014B1876704700BF880F0020014B93F8FB
:10280000E2007047880F0020054B93F8912022B911
:10281000B3F84E00C0F3003070470120704700BF8E
:10282000880F0020024BB3F84E00C0F3C020704761
:10283000880F0020014B93F8E4007047880F0020B8
:102840002DE9F3410646FFF70FFC0F460446B20799
:1028500022D51A4DAB6C23B940F295412720FEF7E3
:102860008FF9B5F84C201846E96D033291F80180D4
:102870000FF04CF80DF1020201A9E865D5F8E80067
:102880000AF0BFFD01980AF0A6FD0122386041461A
:10289000D5F8E8000AF06CFDF3070CD5D4E91E3238
:1028A000013342F10002C4E91E32237B012B0CBF2D
:1028B00000230123237302B0BDE8F081880F0020BC
:1028C0002DE9F04F85B08046B54CFFF7CDFB0746AC
:1028D000FFF7D0FB00238A468146CDE9023394F806
:1028E0005830022B04D04FF4A3612720FEF748F99B
:1028F000B4F84E30590608D44020FFF741FBB4F835
:102900004E3043F04003A4F84E303B7DB8F1000F49
:1029100000F04C81ABB106F077FC06F059FC80B9B1
:10292000E36D5A786AB11B783A7BC3F3C0039A42CD
:1029300007D1012384F85030FFF7A2FB05B0BDE8B2
:10294000F08FE36D5978A4F84C1011B3D4F8E80077
:102950000AF0E5FCA064B4F84E30FA7A43F4007350
:10296000A4F84E30E36D1B78C3F380039A4200F065
:10297000BD80FFF779FB837A0546002B38D0022B08
:1029800010D102A9E06A0AF061FC20B940F20E41C0
:10299000ABE7A164DFE7D5E91C32013342F1000265
:1029A000C5E91C32002194F83830A9722BB1AB79FB
:1029B0001BB11020A971FFF7DBFA6B7993B10026E8
:1029C0006E7102F011F810B940F225418DE73146E1
:1029D0000820FFF7CDFAD5E91C32013342F100029D
:1029E000C5E91C32EB7A012B0CBF00230123EB72EB
:1029F000B4F84E304FF0000B43F40063A4F84E30AF
:102A0000E16D3A7B0D78C5F3C0039A4270D0002582
:102A1000E06D0AF0C5FEFB7CB3B194F8383099F84C
:102A20007C00B3FA83F35B0984F88830D7E91C2370
:102A3000C4E91E23FFF7AAFA00220346594900926F
:102A40000420FB2206F068FABAF1000F00F0C780FC
:102A5000012607F025FA1DB103A90220FFF7F0FEB9
:102A6000BBF1000F0FD094F838303BB1B4F8072019
:102A7000B4F8053013433A89134304D0B4F809304D
:102A80000133A4F80930B8F1000F00F0C280B4F8A7
:102A900005300133A4F80530002384F8E4304248BF
:102AA00003F0B6FC029830B10AF095FCE16B00220D
:102AB000027202F061FE039B33B1E16B00221A72D5
:102AC0000C22039802F038FE002E7FF435AFB4F8E4
:102AD0004E301B063FF532AF8020FFF751FAB4F8B5
:102AE0004E3043F08003A4F84E3027E7C34687E713
:102AF00005F00305FFF7B8FA0646032D12D0EDB92D
:102B0000337B013B18BF01233373E36D5B78002BEC
:102B10003FF47EAFD6E91E32013342F10002C6E92E
:102B20001E3275E7B4F84E300120002543F480537F
:102B30003071A4F84E30FFF71BFAE1E74D78002D15
:102B4000DED0B4F84E30057D43F48053A4F84E3007
:102B500006F0ACFD042894F8EC3006D1002D14BF2B
:102B60001B221F22934228BF1346E26D52789A42DD
:102B70000AD8A36C002B3FF44AAF94F8E3306BB152
:102B80002020FFF7FDF942E794F83430012043F0AC
:102B9000100384F8343008F091F838E74546AFE781
:102BA000880F0020F00F0020C00F00200BB106F0AE
:102BB00039FB94F8E430013384F8E430B4F84E3053
:102BC00043F48063A4F84E3099F87D30033B012B29
:102BD00002D8012008F072F80025AB461BE794F8F4
:102BE000382094F8E4303AB1628C120704D5A26A16
:102BF000D278022A3FF42CAF012B3FF629AF0120F7
:102C0000FFF7F4F9064600287FF422AFFFF744FBF4
:102C100021E7B4F807300133A4F807303FE700BFDD
:102C20002DE9F04F04468BB01E4600230D46174693
:102C3000069390F87D800CF0EDF894F806320B2B9B
:102C400004D940F2B5310620FDF79AFFC64A32F8A2
:102C500013B094F89F308344039387F001031FFA65
:102C60008BFB0493A7BB94F84432032B30D1039B16
:102C70000E2B2DD1B4F8D432AB4229D1D4F84C323A
:102C80002046B4F81C22C4F83832E369C4F83C3258
:102C9000B4F892321344C4F8403205F06FFFE26991
:102CA000D4F8DC329A4203D004F128000EF0C3F9C4
:102CB000D4F8D832E363B4F8D632A4F84030D4F86C
:102CC000DC32E361D4F8E0326362022384F84432F8
:102CD000B4F890A204F51873B4F89890A5EB0A0A1A
:102CE0000593A5EB09090FFA8AF30FFA89F9002B6E
:102CF00017DAD4E99E23C4E9A2230023012284F831
:102D00005B324B4694F844A2984F5FFA8AFABAF1C4
:102D1000030F00F2CE81DFE81AF006002B016300FA
:102D20004B013246EEE794F87D1094F816020CF051
:102D30009EFB8046E06B594640440EF002FA59462D
:102D4000C4F84802E0690EF0FCF9E26941F64B5321
:102D500007A99A4298BF4FF0020A5044C4F84C02A7
:102D600008A807F0A5F8079BD4E9A2010093DDE9C4
:102D700008230EF0B3FC814620460AF036FDD4F855
:102D8000943294F87D00D4F83CA0069307F0C2F981
:102D9000069B00F52240D4F84812BB3BB1309A4460
:102DA0004FF47A73AAEB010A3031B0FBF3F0D04450
:102DB000B4F84030A8EB090803EB4101A8EB000090
:102DC000069094F87D000AF01CFDD4F89422069B2E
:102DD00038609B1ACC2B68D840F2C641302033E7CC
:102DE000E36B5946D4F83C0218440EF0AAF9594650
:102DF000C4F84802E0690EF0A4F941F64B53E269C9
:102E00009A4288BF4FF0000A5044C4F84C02204652
:102E10000AF0EBFCB4F81C32D4F83C80D4F83CA2A5
:102E2000002B40F09A80002E00F09780D04494F858
:102E30007D0007F06FF9D4F84832A8F1BB0800F51F
:102E4000224994F87D004FF47A7BA8EB0308D4F86C
:102E5000803209F1B1099844C31ED4E99E12012BB6
:102E6000A8EB0108B9FBFBF974D907F053F900F29C
:102E7000E730B0FBFBFBA8EB090808EB0B00069062
:102E8000D4F84812D4F83832D4F84022303194F8CB
:102E90007D0002FB0311B4F8403003EB41010AF05E
:102EA000B0FC0123386084F84432E3694FF0000835
:102EB000D4F84C2204F14400A3F5A2733F680699AC
:102EC0009B1A84F860829F4228BF1F46D4E9A23231
:102ED000C4F818725B1842F10002C4E99C320CF08D
:102EE00028FF0744A4F89052C4F86472D4E99C23E4
:102EF000C4E9A22305F044F820B1D4F864321E33AB
:102F0000C4F86432B4F8081284F868824D1B2DB2FC
:102F1000002DC4BF022384F86832039B0E2B00F0FF
:102F2000CB80002E40F0C98094F84432002B00F092
:102F3000E180E16904F51870D4F84C32C91A0CF03C
:102F40003EFA80B2002800F0D580149B03B11880AF
:102F50000120DFE04FF03E0B8DE7D044D4F848323B
:102F6000A8EB030306938BE718BF0200781000203C
:102F7000D4F84C22E169D4F83802891A4B43D4F8CA
:102F800040120693B4F81C329944CB439944D4F8C8
:102F90004832303300FB0133B4F8401094F87D0020
:102FA00002FB093301EB43010AF02BFC38607CE79C
:102FB000E069584306905EB3B4F81C1241BB84F834
:102FC0005B12D4F84C1201FB130A94F89E30262BA6
:102FD000CDF818A003D094F89F30262B09D1B4F86F
:102FE000D432EB1A1B0404D494F8D732002B18BF48
:102FF0009846002A3AD0B4F81C32BBBBD4E99E23D1
:10300000D4E9A00182428B4108D340F21A51E5E68F
:1030100094F85B1200297FF448AFD2E794F87D0062
:10302000C31E012B40D907F075F800F522404FF47C
:103030007A7BB130B0FBFBF000F1AB0BD4F88032FF
:1030400094F87D00103BD4E99E125A1AC31E012B3E
:1030500092442CD907F05EF84FF47A7300F2E7300F
:10306000B0FBF3F0AAEB0B0A50440690B4F81C1224
:1030700040468944D4F84C1201FB09F909F13009A2
:103080004FEA490949460AF0BCFB244A41F64B5332
:103090001060E06998423FF608AF06AB49460CF075
:1030A00003FA84F85B0200E74FF4897BC6E73E2011
:1030B000D8E740F2325191E6E6B1B4F8301219B3D4
:1030C000B4F8322294F83432501CA4F8322202FBB5
:1030D000033399420EDD94F868325BB10023A4F803
:1030E000320284F8683202F005FC00F0070001307B
:1030F00084F8340204F5187194F85C0208F040FC7E
:1031000020B940F27B5169E60A46DBE7049B84F86C
:10311000583200200BB0BDE8F08F00BF78100020BF
:10312000F0B5044685B018B9A6213020FDF728FD7A
:10313000072900F20B81DFE811F008003E003E0095
:1031400039000901F500FD00070190F858321BB362
:10315000B0F85632B0F89820934217D1B0F80C224C
:10316000D31AA0F89820A0F80E322046D4E99C2368
:10317000C4E99E2305F0F0FB94F81332002B00F015
:103180009F8005B0BDE8F0400DF0D6BE9A1AA0F8B9
:103190000E22A4F89830E8E7B0F85432B0F898203E
:1031A0009B1AA0F80E32B0F85432F2E705B0BDE831
:1031B000F04006F089BE0EF023FAD4E99E23801A6F
:1031C00061EB0301012871F1000302DA40F20661AC
:1031D000ABE76FF0010383424FF000038B4102DA4B
:1031E00040F20761A1E7E3690BB1B0FBF3F394F898
:1031F0009F10B4F856220E2942D10132A4F856226B
:10320000B4F8923202AEB4F898500133504FA4F89B
:103210009232B4F8D4301D44B4F8D230013DED1AE6
:10322000ADB23B685BB1B4F85612002220460139BA
:1032300089B29847B4F856321844A4F85602B4F844
:1032400056126B1A18043DD40023204600961A46E5
:10325000FFF7E6FC88B301282CD1B4F85622B4F865
:103260000812BDF808301344521A12049BB204D558
:10327000EA1A12F4004F18BF0B46A4F85632D0E7F2
:10328000B4F898100B449BB2D11A0D0454BF531CD0
:1032900001339BB2A4F8563294F85932002BAFD1C7
:1032A000B4F80C32B4F85622934204BF0133A4F8A8
:1032B0005632A5E740F2546137E7D4F88430F3B9C9
:1032C00005B0F0BD94F8A23030460394002B0CBF3B
:1032D0003E23082384F8C13001238DF8083002F022
:1032E0004BFE20460DF02AFE002394F85C0284F881
:1032F000443208F0CDFA202384F85C32E0E7B4F8D9
:10330000CE20B4F856329B1A1BB2002BD8DDB4F88D
:1033100088100B44013BB3FBF1F303FB0123A4F83A
:10332000CE30CDE7012007F0C9FC05B0BDE8F04084
:103330000AF046BA90F84432042B01D0C521F4E6D5
:10334000002380F84432BBE7CB21EEE6CF21ECE648
:10335000CC0000202DE9F04104460E46154690F8B9
:10336000403103F0FF071BB10C273846BDE8F08160
:1033700001464C4808F06CFA20288046F4D05822C8
:10338000394604F58C700EF0ECFA84F81881C4F814
:103390001C61FF2384F8403136B102F0C3FA00F01B
:1033A0000700013086F8340202234FF00008A4F829
:1033B000503184F848810DF0CEFE00F149062046D8
:1033C0000DF0ECFB0146B6B2D8B30BF023FD00F5CF
:1033D000CD61284689B20DF0B4FE2844C4F84C01F2
:1033E0000EF00EF930184FF00106A4F8268041F1D6
:1033F000000184F82061C4E9560120460DF0E4FB89
:10340000D0B1A5F59465314620460DF048FB2D1A44
:10341000C4F824514FF0FF326FF00043C4E9582341
:1034200004F5A47194F8180108F0AAFA70BB40F2F0
:10343000C1113020FDF7A4FB3046A43D0DF08EFCF9
:10344000E5E72046DFF860800DF029FBA430C4F8E2
:103450004C01B8F8040048B1E08C38B102F062FACF
:10346000B8F80430B0FBF3F202FB130006440EF090
:10347000C7F8361841F10001C4E95661002DC9D0E2
:10348000AE1941F10001C4E95861C9E7D4E95623F6
:1034900000212046C4E94C23C4E94E230DF0C1FBB2
:1034A00063E700BFD1D8000078100020F0B50023FA
:1034B00085B0CDE9003303238DF806306846FEF76A
:1034C00029FB88B11D4E01230027B3710223CDE9EA
:1034D00002778DF80E3002A8FEF71CFB0546A8B156
:1034E0000023B37105B0F0BD00980AF0D7FAE5E704
:1034F00090F85C0208F06EFD94F85C0284F8445287
:1035000008F0C6F9202384F85C32DFE7029B002B29
:10351000E1D093F85C22202ADDD018884FF6FF73A3
:103520009842DDD00221FEF7BBFA04460028DFD125
:1035300040F22B113020FDF723FB00BF7810002054
:10354000044B0022DA719A7142F210729A80FFF7EE
:10355000ADBF00BF78100020014BD871704700BF8D
:103560007810002010B5044606F0A6F8074B9A68BC
:10357000824208D3E16941F64B52914203D99879CE
:1035800080F0010010BD0020FCE700BF7810002093
:10359000F0B5044685B090F8133203F0FF05002B18
:1035A0006ED190F84432032B6AD10EF029F8D4E999
:1035B0009E23801A61EB0301012871F100035FDB98
:1035C0006FF00103834275EB010304DA40F2AF515F
:1035D0003020FDF7D5FAE269B4F898300AB1B0FBB3
:1035E000F2F2013313449BB2A4F85432B4F80C3213
:1035F000B4F854229B1A1BB2002B41DD94F85C02F4
:1036000008F0C8FA00283BD0FF2384F85932B4F8F8
:10361000D4300DF10E07B4F898501A4E1D44B4F88A
:10362000D230013DED1AADB2336863B1B4F8541233
:1036300000222046013989B29847B4F85432184420
:1036400080B2A4F85402B4F85432EB1A1B0417D415
:10365000B4F8541200230122204689B20097FFF7E4
:10366000DFFA68B1012808D1B4F85432BDF80E2051
:1036700013449BB2A4F85432D6E740F2F651A7E7C0
:1036800005B0F0BDCC0000202DE9B3430446062967
:103690007FD8DFE801F0042815252C3179003E4B56
:1036A0009B7903F0FF025BB900920123B0F80C1282
:1036B000FFF7B6FA38B140F2CA613020FDF760FA80
:1036C000042384F8443206F0A1FA07F0B7FF002380
:1036D000B4F89820A4F89232A4F8562284F859320B
:1036E00002B0BDE8B083032380F84432F8E706F067
:1036F00003F8C4E9A001F3E7284B1B6803B198471E
:1037000094F87D30E569033BDFF88C90012BD4F809
:103710004C3294BF4FF028084FF000089D4208F546
:10372000807888BFED1A99F8073098BF00251BB93B
:10373000636C9D4228BF1D46D4F8187204F1440002
:103740000CF0F7FA0744022008F098FB0221ED1B69
:1037500025EAE575854228BF0546284608F0D4FBD2
:1037600000B92F444246394620460CF073FBD4F88A
:103770001832C9F80800E069184408F051FB002825
:10378000AED140F2793198E702B0BDE8B0430AF01B
:103790002CB840F2657190E778100020C40000203A
:1037A000012A70B505460C46164615D0022A18D0D7
:1037B00042BB05F081FF3246014620460AF03EF941
:1037C0002A46124994F8180107F068FA40B94FF4F4
:1037D000EF613020FDF7D4F905F06EFFC5F89402D3
:1037E00070BDD0F89412012220460AF027F92A462B
:1037F000064994F8180107F051FA0028F0D140F278
:103800008971E6E740F28F71E3E700BF21310000E4
:10381000014B9880704700BF78100020303270B59F
:10382000054692B20C461E4609F07FFE35B1044AA9
:1038300000231560147656761471936070BD00BF36
:1038400090100020014B1870704700BF110000203D
:1038500038B50A4B0D4653F82040084606F05AFC8E
:10386000033D04F58564012D04444FF47A70B4FBE4
:10387000F0F494BF28200020204438BD70BF02001F
:103880002DE9F84F05460C46174691F89EB01E46A6
:103890001BB10121204605F0F7F994F83032032BD3
:1038A00055D8DFE803F002524C5227B940F22321E9
:1038B0003520FDF765F901230027204684F83032D2
:1038C0000AF09FF9DFF8A4A1DAF80030002B41D00C
:1038D00031462046984700FB077800F01BF9D8BB1B
:1038E0000221B4F92C020CF0DAFAB4F82C321B1ACB
:1038F000A4F82C32D4E9823218EB030342F100021F
:103900001B1842EBE070C4E98230C5E904300023A3
:103910002B7094F89E9009F0FD030C2B1ED0A9F19A
:103920002603D3F1000949EB030920460DF015FBEE
:1039300010B1B9F1000F14D000232B7217E003234C
:10394000D4F8387284F83032BCE7E769BAE740F25D
:103950005D21ADE7B846C0E70020CBE74FF0010995
:10396000E3E794F83032012BDAB22DD12A7200232A
:1039700004F144006B720CF0DCF96860002E72D028
:10398000ABF10E0BBBF1010F6DD9394628460BF098
:1039900016FD86B220460DF0E0FA8346B9F1000F1D
:1039A0001AD1864218D308FB00F185F80890D4E9B3
:1039B00082325B1842F10002C5E90432B8F1000F0F
:1039C00004D140F2A72173E70223B6E7394628461F
:1039D0000BF0F5FC584486B23146204605F054F908
:1039E000DAF8003063B1012120469847474330445C
:1039F000D5E9043286B2DF1942F10002C5E904724A
:103A000000F088F8B0B97100B4F92C02B1F5803F2C
:103A1000B4BF89B24FF6FF710CF041FAB4F82C3202
:103A20001B1AA4F82C32D5E904321B1842EBE070C3
:103A3000C5E90430D5E90423C4E98223D4F88430ED
:103A40008BB1B4F8CE20B4F898309B1A1BB2002B7F
:103A500009DDB4F888100B44013BB3FBF1F303FB21
:103A60000123A4F8CE30BDE8F88F00BFD0000020BD
:103A7000014B5870704700BFB010002010B50446CD
:103A800004293FD8DFE801F0031A161E3A00204B44
:103A90001B7803F0FF026BB901210AF0C1F8B4F8FA
:103AA00098300133A4F8983006F0B0F8BDE8104023
:103AB00007F0C4BD042384F83032F5E7032384F80B
:103AC000303210BDC369D0F85822C0F83832934262
:103AD00002D028300DF0AFFAD4F854322046E36318
:103AE000B4F85032A4F84030D4F85832E361D4F836
:103AF0005C3263620AF085F80223E0E7BDE810401B
:103B00000AF07FB840F23D313520FDF739F800BFAB
:103B1000B0100020014B1879704700BFB81000208A
:103B20000138C0B2032808B504D940F20B31062091
:103B3000FDF726F8014B185C08BD00BF9CBF0200D2
:103B40000138C0B2032808B504D940F20B31062071
:103B5000FDF716F8014B185C08BD00BF1CC0020041
:103B60000138C0B2032808B504D940F20B31062051
:103B7000FDF706F8014B185C08BD00BFA8C00200A5
:103B80000138C0B2032808B504D940F20B31062031
:103B9000FCF7F6FF014B1844007D08BD3CC1020054
:103BA000431E032B08D84B1E032B05D8044B9870DB
:103BB000002059701A7170476FF01500704700BFF0
:103BC0003A04002010B500880C460E21FDF768FF6E
:103BD00090F86C3053B980F86D40FF2380F8AC301A
:103BE00003496430BDE810400CF018B810BD00BFA8
:103BF000E5DC0000F8B58D1F40F67A4C0746BDF8AD
:103C00002460ADB21046BDF8182065453BD8841F2E
:103C1000A4B264458CBF002401242546AFBB1D4FD0
:103C20003F796FB15CB96FF450654D19062D06D818
:103C30006FF450640419062C8CBF0024012425461F
:103C4000FDB1814224D803FB0666B6F5FA7F1FDC7E
:103C5000A2F10A0340F676449BB2A34218D80AF0B8
:103C6000A3F842F2107300FB06F15A43B2EB410F86
:103C70000ED9BDF81C50BDF8200085428CBF002530
:103C800001252846F8BD0024C7E797F88170C8E7EA
:103C90000025F6E788110020304BF0B5B0F87070C1
:103CA0000C4611461A88B0F86E6085B097425D8860
:103CB00028BF1746964228BF16461B2E2ED0B5F5B4
:103CC000A47F2DD040F6480301AA9D4228BF1D467F
:103CD0000AF093F8BDF80A309F4228BF1F46BDF88E
:103CE0000C30AB42E78028BF2B462381BDF806305D
:103CF0009E4228BF1E46BDF808309D42668028BF00
:103D00001D46A580FF232370E3881B3B9BB2E02B5D
:103D100008D940F2FF513920FCF732FF1B2FCED1DA
:103D200005B0F0BD63881B3B9BB2E02B02D940F28B
:103D30000161F0E7238940F64812A3F5A4739BB212
:103D4000934202D940F20361E5E7A388A3F5A47387
:103D50009BB29342E4D940F20561DCE78811002070
:103D600010B503210020FDF79BFE044670B9032126
:103D7000FDF758FE044620B940F245313920FCF7E2
:103D8000FFFE034B93F944100CF03FFE204610BD9C
:103D900088110020114BF7B59C7E0646DD7E9F8B77
:103DA00014B900F05DFD0446A5B900F059FD0546C3
:103DB00014B9092003B0F0BD0028FAD0304601A99B
:103DC0008DF804408DF80550ADF806700BF04BFBF4
:103DD0000020EFE7002CF1D1EBE700BF3416002004
:103DE00038B50BF079FA002500F0BEFF1F4C00F04B
:103DF00045FD0BF011FF01F053FA02F079FB01F0E1
:103E000077FA012000F0FEFC194B1A4A29465D831F
:103E10001A601B22DD839A80F9221D841D76164BC1
:103E200022835869154A1B8B22601422E06104F139
:103E300024002384A576A580A5750DF092FD0123AD
:103E400042F2107204F13A0084F8455084F82430AC
:103E500084F83930C4E90A220DF0F3F80022002377
:103E600084F85850C4E9142338BD00BF88110020DD
:103E70003416002003021B001CC002001B00480176
:103E8000044B41F64C521B215A611974C3E90222BA
:103E9000FFF7A6BF3416002073B5384D0446AB6853
:103EA00040F8443F09F031FE064600F0D3FC2B7C7D
:103EB00010F0200FA4F84E6084F84C30304B0EBF49
:103EC0001B22AA8869881B6814BFA4F86E10A4F886
:103ED0006E20A4F870201BB194F9801020889847B8
:103EE00028490B79003B18BF012384F88130264B09
:103EF0001B6813B108312088984794F88130204618
:103F0000002B41F64C5318BF4FF47A73E361FFF76F
:103F100041FF064648B102212088FDF7D7FD40B396
:103F200040F2C1513920FCF72BFE184B1B6813B12E
:103F300001462088984704F128000DF07CF8697844
:103F4000AB8804F114006A880191033329780332A5
:103F50009BB2009192B204F11801FDF733FE636940
:103F600013B940F2D651DDE7A3691BB940F2D7512E
:103F7000D8E70926304602B070BD00BF34160020D5
:103F8000D800002088110020E8000020E400002074
:103F90002DE9F34105460E460CF07CFD002800F0AB
:103FA000AE8028460CF0FAFD30B1B6F80130013B86
:103FB0007F2B01D9122404E028460CF0F3FD20B930
:103FC0000C24204602B0BDE8F081284609F0E9FD46
:103FD0000028F5D128460CF002FD80460028EFD1DC
:103FE000284603F0D9F80028E4D042F21073B6F85E
:103FF0000170F17828465F430CF0BCFD0421307855
:10400000FDF74EFD044606213078FDF749FD002CF2
:1040100077D038B141F665113920FCF7B1FD04467F
:1040200090F8BD80404E3368002B6CD04034204661
:104030000CF0E5FF002866D020460CF0D4FF0028E5
:1040400061D1B8F1000F08D0384B20461B68984763
:10405000002858D041F67911DEE7354942463368E9
:1040600020464969984700284DD041F67E11D3E794
:1040700028460CF093FD40B902210DF10600FDF732
:1040800099FC064658B90D249BE728460CF098FD8C
:104090000028F1D1274B1B79002BEDD18AE70021B5
:1040A00001F020F8BDF806302846314633800CF088
:1040B000A9FD28460CF084FDA0B928460CF08AFD25
:1040C00001463046FFF7E8FE044600287FF479AF4A
:1040D0003A4631462846FFF73DF9044620B141F6FD
:1040E000AA1199E70121ECE7124BDB6C002B3FF49E
:1040F00068AF024606F5A1713046984761E7422451
:104100005FE700288BD128460CF040FD01460028CF
:10411000AED13A462846FFF71DF9044600283FF481
:1041200050AF41F6871177E7E0000020DC00002067
:104130003416002088110020034B5A8802801B7817
:1041400083700020704700BF341600207FB583784D
:1041500006461A2B09D8042B05D9012202FA03F3CB
:104160002F4A134205D1122519E0292B01D03B2BF0
:10417000F9D13088B0F5706FF5D269460BF0FBF8D5
:1041800080B9684609F098FD037803F0FF05ABB9E4
:10419000B3784370FF23037068460BF016FD284682
:1041A00004B070BD09213088FDF77AFC0446A0B345
:1041B00002A9B0F8AC010BF0DEF808B10C25EEE76F
:1041C0000821B4F8AE01FDF76BFC024620B94FF4AC
:1041D0000F613920FCF7D4FC03781BB994F8C8317F
:1041E000032BEBD102A809F067FD817D0029E5D101
:1041F00094F8F01101F0FF050029DFD1B4F8B011F7
:10420000018394F8B4118176127DC276B278027778
:1042100084F8F021FF228275C1E70225BFE700BFC5
:10422000200038040188A1F11B039BB2E02B0CD8BD
:10423000428844F24810A2F5A4739BB2834204D88A
:10424000034B002019805A8070471220704700BF2E
:1042500088110020034B1A885B880280438000206D
:10426000704700BF8811002038B50478427804F008
:104270000103857804F0020452EA030101D1112000
:1042800038BDBCB9002DFAD0002B08BF144601E0A0
:1042900000242546204609F04BFE0028EFD0284692
:1042A00009F046FE0028EAD0054B00209C76DD761A
:1042B0009883E5E7002BEBD114461D46EAE700BFE3
:1042C0003416002013B5008869460BF054F818B175
:1042D0000224204602B010BD684609F0FCFE00280A
:1042E000F6D0684609F0DEFC0346684609F0E4FCB7
:1042F000827C0AB13A24ECE793F85C2002F0FF04D8
:10430000002AF7D193F85320920705D1FF23837435
:1043100068460BF05AFCDCE7024903F154000BF04D
:1043200086FCD6E79D0401002DE9FF41077804468D
:104330000E46EF2F04D91226304604B0BDE8F081B6
:10434000B0F80130ADF80C309DF90C209DF80C3020
:10435000002AF0DB9DF80D209507ECD1D80660D43B
:10436000990603F0030259D5002AE4D11D0703D5AD
:1043700003F06703012BDED16378180711D421798C
:10438000E278E07942EA0122617942EA0142A179C8
:1043900041EA0021207A41EA00418A42CBD81F2A13
:1043A000C9D9627A013A062AC5D8A27A032AC2D8A4
:1043B00013F0040102D1023A012A03D8E27A012A59
:1043C000B9D811B9A27C032AB5D813F01001227D07
:1043D00037D0012AAFD1237E012BACD8002940D0A1
:1043E0006378D90703D500F0CFF9002840D063786F
:1043F000227D03F01803082B4AD1022A38D11FFA74
:1044000087F803214046FDF74BFB0546002845D0C1
:1044100009F0C7FB00284DD00C268DE7032AA5D153
:1044200089E713F0600F86D103F00F0203F0070352
:10443000052BA1D0931E012B9ED9002A7FF47BAFC0
:104440009AE7022A04D103F06F03092B7FF473AFBC
:10445000A37D013B022B3FF66EAFE37D0F2BBAD954
:1044600069E700F0FDF9820707D4237D022B01D113
:10447000112661E7A37D022BFAD000F0F1F9430782
:10448000AED4237D032BF3D0A37D032BA8D1EFE77C
:10449000022AB4D0A37E002BB1D0E9E70321404625
:1044A000FDF7C0FA0546002842D0224B93F944108C
:1044B0000CF0ABFA002138460CF081FD28BB2846F1
:1044C0000CF061FB21463070E074284602F0BCFE1F
:1044D000637E0646002B3FF42FAF00287FF42CAFFD
:1044E0000246E96C6846FDF749FC3246E86C01215A
:1044F00009F070F8E96C68460422FDF73FFC32468B
:104500003146E86C09F066F816E740300CF077FDAC
:104510000028D4D0637813F0330F7FF40CAFA77D5D
:1045200028460CF057FBFFF70BFB8742C7D073E719
:10453000072601E78811002030B502798BB00346C9
:10454000042A5BD84488B4F5804F57D82C48002102
:104550001044ADF804108DF80C1090F82220457F1F
:1045600042F010028DF8211042EA450290F82750DF
:1045700090F82C0042EA850242EAC00202F01F02D3
:104580008DF80420BDF80420ADF80D201A888DF8B0
:104590001240240A8DF80F20120A8DF811108DF8A0
:1045A00014108DF810208DF813405A7BD3F80700B3
:1045B0008DF815205A79069003A88DF816209A795F
:1045C0008DF81720B3F80B209B7BADF81C208DF8DD
:1045D0001E307F238DF81F3001238DF820308DF899
:1045E00022308DF823108DF824108DF825108DF8C9
:1045F000261001A9FFF798FE0BB030BD1220FBE793
:104600001CC0020013B50378044653B1002301A86F
:10461000019305F0A5FE019B9B0702D00C2002B080
:1046200010BD22780020014B1A71F8E78811002094
:104630000278034672B1427862B142881A2A09D9D7
:1046400082881A2A06D90068034A106000209B88D5
:1046500093807047122070473416002002680020B3
:10466000014B9A60704700BF341600200378A3F115
:104670000A02112A9BBF024A0020122013747047BD
:1046800034160020014B1876002070478811002056
:10469000014B58760020704788110020024B1B68A0
:1046A00003B1184711207047D400002008B5052039
:1046B00000F0B4F804F09CFA014B024ADA6408BD39
:1046C00088110020993C000008B502F047FDFEF774
:1046D00037FF0248BDE8084002F02ABDE41100207F
:1046E00008B50AF0F7FD064800F58471FDF7BEFE37
:1046F000022008F0ECFE0020BDE8084008F0E7BE0C
:10470000E411002008B50122064B83F80A2202F0CA
:104710002DFD03F027FCFFF7E3FFBDE8084000F0A4
:10472000E5BF00BFE411002010B5064C064904F5B2
:1047300003700AF02FFB04F504700449BDE8104033
:104740000AF028BBE4110020EC000020F400002057
:1047500010B5094C094904F503700AF01BFB04F578
:10476000047007490AF016FB04F505700549BDE819
:1047700010400AF00FBB00BFE4110020040100202C
:104780000C010020FC000020014B93F80A02704746
:10479000E411002038B5094C0D4600F0A1FFD4F813
:1047A0000C02C4F804510AF0EDFAFFF769FB01F0BE
:1047B000D1F8012384F8183238BD00BFE41100207D
:1047C000014B93F818027047E411002010B50C4C0F
:1047D000D4F810020AF0D6FAD4F814020AF0D2FA89
:1047E000FFF7FEFA202000F027F82F2000F024F831
:1047F000262000F021F8002384F8183210BD00BFF5
:10480000E4110020014B83F819027047E4110020E5
:10481000014B93F819027047E4110020C2080549C2
:10482000012300F0070003FA00F08B5C1843885462
:10483000704700BF18000020C208054900F00700BB
:1048400001238340885C20EA03008854704700BF3E
:1048500018000020014BD3E9000170471800002028
:10486000054B1868C0F3C022C0F30020400040EAA6
:10487000820040F0010070471800002008B50CF0DD
:1048800068FC0023074A32F82310814205D302EB6B
:1048900083039B78044A137008BD01330C2BF2D1BB
:1048A0000023F7E778C00200FE130020024B1878BF
:1048B000072828BF07207047FE13002010B5446862
:1048C000238884F8AD11A4F8AE3194F87C00FFF78A
:1048D00047F984F8B00194F87D00FFF741F90549E4
:1048E00084F8B10104F5D2700BF0A1F9002384F82B
:1048F0004C3110BD19EE0000406807490388A0F84C
:10490000A03190F8743080F8A23190F8753000F240
:10491000971003730BF085B92FEE0000064B0022B1
:1049200083F850204FF6FF72A3F85220A3F85420CA
:10493000A3F85620704700BF00140020064BB3F8C0
:104940005220824201BF002283F850204FF6FF72AE
:10495000A3F85220704700BF00140020014BA3F8B9
:104960005400704700140020094A03464FF6FF71B7
:10497000B2F85200884206D192F85010012905D0B1
:1049800001201A60704700201860704700207047AF
:1049900000140020074B93F85020012A1BBF012070
:1049A000B3F85420002083F8500018BFA3F8522019
:1049B000704700BF00140020014BA3F85600704759
:1049C00000140020074B0246B3F85610B3F852000B
:1049D000884205D193F8500018B101201360704748
:1049E00000207047001400200A4BB3F85210B3F8AF
:1049F0005620914201D0002070474FF6FF72A3F875
:104A0000522093F85020002AF5D00022012083F88C
:104A10005020704700140020064BB3F85210B3F832
:104A20005620914203BF93F85000B0FA80F040093D
:104A3000012070470014002050B90A4A0120134693
:104A400003F8010B0868C2F801008A889A80704751
:104A5000012805D1034B0A68D8719A608A889A8127
:104A6000704700BF5814002048B90A4B187880B12D
:104A7000D3F80120B3F805300A608B807047012815
:104A800006D1044BD87920B19A689B890A60F4E773
:104A9000002070475814002020B9054B187800F00A
:104AA0000100704701280ABF014B0020D879F6E7C2
:104AB00058140020F7B58B8800228DF80600ADF859
:104AC000043008680B4B8DF8072001461C7803F56D
:104AD000AC73019DD0B2844201D8082007E0D3E92D
:104AE000007601320833AE4208BF8F42F2D103B0E4
:104AF000F0BD00BF68140020084B0146002230B50D
:104B00005C7803F58173D0B2844201D8082004E0B8
:104B100013F8015B01328D42F5D130BD68140020DD
:104B2000F8B52D4C63782218013B92F80251DBB2A4
:104B30008342637030D01A010101961C8F1C2644F9
:104B4000274406F1100C56F804EB664547F804EBD1
:104B5000F9D1823282312244214402F1100652F806
:104B6000047BB24241F8047BF9D1E118221891F894
:104B7000026182F8026106267343704303F5857370
:104B800000F58570E618E35827182350B388BB80DA
:104B900091F83A3182F83A312846FFF7ADFF0828FC
:104BA00018D12378013BDBB29D42237012D02B3306
:104BB00005F12B0204EBC30304EBC20293E80300EC
:104BC00082E803002078FFF797FF08281CBF24180D
:104BD00084F80251F8BD00BF68140020F0B5254DDF
:104BE00089B095F8984105F29911684622460CF073
:104BF0008DFE214668460AF08EFB0446B8B300EBF2
:104C0000400102A8C9B2FCF7F9FB601E95F8A1614A
:104C10000124C0B295F8982105E0731CB3FBF2F1B2
:104C200002FB1133DEB206F120030DEB030111F894
:104C3000203C002BF1D100EB400201F8204C06EBA8
:104C4000460320322B446A4412F8187C83F8A27180
:104C500012F8177C12F8162C83F8A37183F8A4219C
:104C60000138AB19C0B283F89941FF28D2D109B0FD
:104C7000F0BD00BF6814002070B5064688B00C4631
:104C8000002A4FD02A4A92F8A131D01890F89911F1
:104C900021B94FF480712820FBF772FF03EB430129
:104CA0000133114491F8A251E57091F8A35191F8A4
:104CB000A41125716171002180F8991192F8981161
:104CC000B3FBF1F001FB103382F8A13192F8C2314D
:104CD00023B9184902F5DD700AF0A6FF65790D22A7
:104CE0000021684605F03F0545F0400565710CF070
:104CF00038FEE37804AA69468DF80F3030462379F0
:104D00008DF80D508DF80E3004230CF004FD9DF845
:104D10001F3023709DF81E3063709DF81D30A37006
:104D200008B070BD03216018FCF768FBD6E700BF30
:104D300068140020DD4B0000044B5A78824286BF85
:104D40001B1893F84A010020704700BF6814002028
:104D5000044B5A78824286BF1B1893F84201002008
:104D6000704700BF68140020064B00224FF46171A9
:104D70001A8083F8C32183F8C421A3F8C61183F8ED
:104D8000C221704768140020014B83F8C4017047AA
:104D9000681400202DE9F047824689461746984658
:104DA000FFF788FE08280546064603D0FFF7A4FE55
:104DB000082863D1334C6378072B61D8082D18D1AC
:104DC0002678731C072E237003D96B212820FBF74C
:104DD000D7FE06F12B03D9F80000DAB204EBC303C7
:104DE00044F8320004EBC201B9F804208A8083F849
:104DF00006A0657807F110026B1C290163704B1C3B
:104E0000234412F8010DBA4203F8010FF9D18131A0
:104E100008F11003214413F8012D984501F8012FE2
:104E2000F9D12544102140460AF0BDFA102185F839
:104E3000420138460AF0B7FA002385F80261667825
:104E400085F84A0185F83A3131460F480AF063FA8D
:104E5000054631460D480AF05EFA012D03D80028B8
:104E600018BF0135EDB284F898510025284684F822
:104E7000A151FFF7B3FE2846BDE8F0871220FBE7FB
:104E80000720F9E768140020AA150020B2150020B9
:104E9000064B10B55878013840B2002800DA10BD32
:104EA000C4B22046FFF73CFE601EF5E76814002000
:104EB000014B83F8C301704768140020014B93F83D
:104EC000C301704768140020431E4AF2B7129BB218
:104ED00093429DBF024BA3F8C601012000207047FA
:104EE00068140020014BB3F8C60170476814002015
:104EF0000A4B30B55C7884420ED9184490F8020110
:104F00002B3003EBC004A5790D7053F8300010600E
:104F10000120A388938030BD0020FCE768140020A6
:104F20000246074810B590F8C34124B1417821B139
:104F3000023003F019FF204610BD0C46FBE700BF0E
:104F4000681400202DE9F74F2F4C9A468046894679
:104F50006378834256D9231893F8425185F00105AE
:104F6000F9B193F84A31E3B945F002070135BAF1D6
:104F7000000F18D1FA070AD5062104EB0810524693
:104F800001FB0841823001F58571FFF775FEBB0713
:104F900034D504EB0810524649460230FFF76CFE48
:104FA0002CE02F46E3E794F8A1614FF0010B002DB0
:104FB000E0D0A31993F89911019399B90092DAB14D
:104FC00000F098FC019B06EB4601009A4FEA102C7A
:104FD00083F899B1214481F8A201000C81F8A3C1A2
:104FE00081F8A401013694F89831013DB6FBF3F144
:104FF00003FB1166F6B2DAE747F00407384603B060
:10500000BDE8F08F0027F9E768140020074B5A78B5
:10501000824209D91A1892F842212AB9062202FBC3
:10502000003000F58570704700207047681400203C
:10503000064B5A78824281BF1B1893F83A01B0FAA6
:1050400080F0400998BF0020704700BF681400201E
:10505000F8B50E4607460621154630460AF0A3F974
:10506000044640B10A482946427800F59D700CF08C
:1050700078FC2046F8BD314638460AF068F9082821
:105080001FBF034B0124C01880F83A51F1E700BF5D
:105090006814002030B5002442F21075A0F8424098
:1050A000B0F846404C43B4FBF2F4A0F84640541E1E
:1050B00005FB0343B3FBF2F3A0F84430084BB3FB0A
:1050C000F2F30133A0F84A30838F05FB0344436BAE
:1050D0005943B4FBF2F4B1FBF2F28463426330BD96
:1050E000005A620270B504460D4649BB4FF4427245
:1050F0000CF037FC012384F8F85084F8A6306FF0E8
:10510000360384F8F95084F8F330042384F8F4303B
:105110006FF03B0384F8F5306F2384F8F6306FF0BE
:105120003F0384F8F7302B2384F8F230FE2384F811
:1051300032317F2384F89D30202384F85C3270BDA7
:10514000012917D10023A0F81C3280F813320D4B2F
:10515000C26913441146B3FBF2F3C0F8C83040F6FD
:10516000B833A0F8CC30C38C04F19000BDE8704097
:10517000FFF790BF0229E2D1B0F8E232D0F8DC228A
:10518000C169F1E77FC3C90170B504460D4649BB4B
:105190004FF42A720CF0E5FB012384F8F85084F8F0
:1051A000A6306FF0360384F8F95084F8F330042306
:1051B00084F8F4306FF03B0384F8F5306F2384F803
:1051C000F6306FF03F0384F8F7302B2384F8F23089
:1051D000FE2384F832317F2384F89D30202384F825
:1051E000313270BD012912D1C2690D4B11461344F1
:1051F000B3FBF2F3C0F8C83040F6B833A0F8CC30B7
:10520000C38C04F19000BDE87040FFF743BF022952
:10521000E7D1B0F85E32D0F85822C169F1E700BF9B
:105220007FC3C901034B80F880101B680BB1008855
:105230001847704714010020074B93F900301844B9
:10524000142804DC10F17F0F03DB40B270471420F8
:1052500070476FF07E007047301600207F2307B53F
:105260000DF107008DF8073004F0E8FD9DF90730D7
:1052700068B10A4A5078404240B21844142808DC09
:1052800010F17F0F07DB40B203B05DF804FB184656
:10529000FAE71420F8E76FF07E00F5E730160020FB
:1052A000024B00221A705A70704700BF301600205F
:1052B000054B1B7833B9054B1A681B7902600371E3
:1052C0000120704700207047321600202000002087
:1052D000054BFF221A70054A0168116001791171AE
:1052E00000221A70704700BF3216002020000020F4
:1052F000064B07B518681B79009068468DF8043096
:10530000FFF7E6FF03B05DF804FB00BF5B1203008C
:105310000346407848B1DB783A2B05D8034AD35C82
:105320001B1A58425841704701207047ACC0020018
:105330003A2908B5C17003D8064B5B5C437008BDC1
:10534000FF2904D04FF489612A20FBF719FC0123BF
:10535000F4E700BFACC002002DE9F04385B08946F8
:105360001446984602A90AF006F8054600283DD1E1
:10537000039E34B9012486F8A540204605B0BDE857
:10538000F08377692146384607F0DDFE014678B3A1
:10539000194B5B88A3422DD301AA384608F015F8B3
:1053A00096F8A5300198002B0CBF494602210AF05F
:1053B000F7FA01982246414603300CF0A7FA21463D
:1053C000384607F005FF044618B97A212B20FBF771
:1053D000D7FB9DF808302BB102A80AF0F6FB039B1F
:1053E000A3F80A52002386F8A530C6E70124C4E7D3
:1053F0000446C2E72C46C0E734160020024B987FD3
:10540000C04300F00100704734160020034B987F22
:1054100080F00200C0F34000704700BF3416002047
:105420007FB505460C4621B940F215111020FBF757
:10543000A7FB03888B8000234B728669304607F0F8
:10544000B6FF014610B94FF48F71EFE701AA30465D
:1054500007F0BBFFE08010B940F22311E6E7FB281C
:1054600002D940F22511E1E701980AF0A1FA0128DA
:1054700001D0022805D12072206828B94FF49E710E
:10548000D4E740F23511D1E70199E28803310CF0FD
:105490003DFA304607F0A1FF10B940F24111C5E7CF
:1054A0000021304607F0F7FE10B94FF4A371BDE7B5
:1054B0000A4BDA7F82B11A8C02A92888013A1A8431
:1054C00009F059FF10B140F24F11AFE7039AB2F85B
:1054D000B6300133A2F8B63004B070BD34160020E7
:1054E00010B521B940F25B211020FBF749FB4A605F
:1054F0000B72EFF3108472B6031D0B6042681AB191
:10550000127A012A08BF036003681960016004B9B8
:1055100062B6034BBDE81040587806F07DBF00BF6F
:10552000581600202DE9F34706460D464FF00508B2
:105530000027DFF850912B693BB11B7A2BB12C6906
:105540009CB9002002B0BDE8F0876C68237A012B7B
:10555000F7D0EFF3108372B66A6812686A6003B915
:1055600062B6237A002BE6D02C6194F808A05FFA8B
:105570008AFA84F808800AF1FF330B2B74D8DFE82D
:1055800003F0700612266D3D4C3D3D3D3D60636865
:1055900023B940F2C7111020FBF7F2FA314620463A
:1055A000984704201BE0636813B94FF4E871F2E7F1
:1055B0003146204698470346ADF80400C0B2C3F315
:1055C0000723012B53D0022B09D12F6151E06368CF
:1055D00013B94FF4ED71DEE7204698470020EFF352
:1055E000108372B6227A052AD1B201D0002944D1A3
:1055F00027722F61002B3CD162B63AE0D9F8003017
:10560000002BEBD05246314660689847BAF10A0F3A
:10561000C7D100232B61042094E763680BB9DA211A
:10562000B9E70D2200243270012219885869A6F8C2
:1056300003102146B2707271B47107F02CFE2C6118
:10564000E9E7606810B940F20521A4E70E4B314646
:105650001B689847002302202B6173E740F20E215C
:1056600099E740F2112196E74FF4057193E7032380
:10567000237200283FF45FAF64E7002B7FF45BAF39
:1056800062B658E71C0100201801002070B5134CC9
:1056900014260021231D324618460CF062F90346F9
:1056A0000125257404333246002104F11800C4E9B1
:1056B00001330CF056F984F8245004F11C03C4E9BA
:1056C00006330023E362236384F83430C4F83530B2
:1056D000C4F8393084F83D3070BD00BF5816002042
:1056E000014B5870FFF7D2BF58160020014B024AF9
:1056F0001A607047180100202154000038B50B4D86
:10570000044605F11801FFF70DFF70B9AB681B7A6D
:105710000C2B04D1064BDA7F0AB11B8C2BB120462F
:105720000449BDE83840FFF7FDBE38BD58160020DB
:10573000341600205C160020134610B5027A22B100
:105740004FF42D711020FBF71BFA0A460146024860
:10575000BDE81040FFF7C4BE5C160020044890F876
:1057600034301BB903492C300AF058BA704700BFD7
:10577000581600200FFC00000A4610B5037A23B12A
:105780004FF42F711020FBF7FBF901460723024865
:10579000BDE81040FFF7A4BE701600201346027A41
:1057A0000AB1037270470A4601460148FFF798BEE6
:1057B0005C1600201B234FF01B128384038482613C
:1057C0008382C260038541B94FF4A473094AC3843C
:1057D0004384C261C382026170474FF429634FF46E
:1057E000A472C384438403F12963C282C361036149
:1057F000704700BF4801480103460846B3F86820D7
:10580000B3F85C10B3F852C08A42F0B493F87D400C
:1058100028BF0A46B3F86060B3F86A10033CB3F8D7
:105820005870B142E4B2B3F8565028BF3146012C4B
:10583000A3F852208BBFB3F85A604FF429660C4688
:105840004FF429649742A3F8564038BF17468E425A
:1058500038BF0E469445A3F85870A3F85A6026D175
:105860002C1B18BF0124B3F86420B3F85E50B3F8C2
:1058700050609542B3F8541028BF154693F87C2029
:10588000033A012A15D9B3F86220B3F86670BA4218
:1058900028BF3A46AE42A3F85050A3F8542002D194
:1058A000914200D144B10549F0BC0AF0C0B90124CD
:1058B000D9E74FF42962EDE7F0BC704735FC0000F2
:1058C0000B8BA2F809001046A2F80B304B8BA2F804
:1058D0000D308B8BA2F80F30CB8B0249A2F8113020
:1058E0000AF09FB997FC0000014B1878704700BF81
:1058F00096160020094AD2E90003434083EAB0111A
:1059000081EA43214FEAF34311605360044B58434B
:105910004FEAF06000EB8000704700BF981600204F
:10592000BB79379E094AD2E90003434083EAB011AC
:1059300081EA43214FEAF34311605360044B58431B
:105940004FEAF06000EB8000704700BF28000020A5
:10595000BB79379E10B50A4C08210948FBF74EFD6C
:10596000D4E900231343F7D0064CFFF7DBFF206098
:10597000FFF7D8FF236860600343F6D010BD00BF77
:105980002800002098160020174B184A9A60184AE1
:105990005A60184A1A60184A9A62184ADA62184A13
:1059A000DA60184A9A61184A1A63184A1A62184A41
:1059B000DA64184A9A64184A5A62184B184A9A606C
:1059C000184A5A62184ADA62184A1A61184A5A6121
:1059D000184A9A61184A1A63184A9A64184ADA648B
:1059E000184A9A63704700BF200100209BFF000007
:1059F000D1FF0000490001004D020100AD0201008D
:105A00009D600000C3020100416300008D61000041
:105A1000D5030100FD030100056200000C02002017
:105A2000BDFF000081030100E502010089020100C1
:105A3000090301002D610000BB0401005B040100AB
:105A40003F04010067030100044B054A5A65054BFA
:105A5000054A1A65054A5A65704700BF20010020B3
:105A6000450101000C0200202B010100CD010100C5
:105A7000054B064A9A65064A1A66064B064A9A6517
:105A8000064ADA65704700BF20010020EBEF0000F6
:105A900093F000000C020020B3EE000099F2000029
:105AA0003A2A73B505460C463ED83A2A3FD8DFE875
:105AB00012F0430084008E009A00B2009800980013
:105AC000C100C300C90098009800CE00D900C300EF
:105AD0003E003E00DD0098009800F900F90000014A
:105AE000070113013E003E0032014F015C016201DB
:105AF0006801730175017701790184018C01C3018B
:105B0000C5013E003E0094013E003E00B501A301E8
:105B1000AD01AF01B101B701BB01B901BF019800EF
:105B20003E00BD01B301C101FF2A00F0898140F2AE
:105B3000FE315120FBF724F8416841F64B50D1F873
:105B40005832B1F85022834294BF642040F2E240C0
:105B5000B2FBF0F241F64B50D2B283422271D1F83F
:105B6000542294BF642040F2E240B2FBF0F292B2C1
:105B7000A3F57A706271120AA27141F270729042BA
:105B8000204695BF4FF47A7240F2E242B3FBF2F343
:105B9000B3FBF2F398BF03F550639BB2E3711B0AAA
:105BA0002372B1F85C3263721B0AA372B1F85E1201
:105BB00002B0BDE8704009F01FBF43682046D3F82B
:105BC0004012013102B0BDE8704009F049BF0278CF
:105BD0004368012A02D193F8343101E093F841314E
:105BE000237102B070BD4568204605F5217109F0AA
:105BF00046FF05F52371204609F04BFF05F51971A5
:105C0000204609F04CFF05F59071204602B0BDE832
:105C1000704009F052BF4168204601F2262109F088
:105C200054FF6968204601F5927102B0BDE87040EA
:105C300009F04DBF4368CEE7084602B0BDE87040AA
:105C400000F034BB02B0BDE8704000F041BB0E2351
:105C50000B7159234B7100238B714E23CB71302371
:105C60000B72BEE7436893F82A31B9E703784668B8
:105C70007BB996F8343163B196F82D11204609F0BE
:105C800092FF96F82C11204602B0BDE8704009F052
:105C90008EBF96F82B112046903609F084FF96F8B7
:105CA0009A10F0E70146204602B0BDE870400AF0C5
