:1000000080740020F14A0000E1E80000DD4A0000B1
:10001000DD4A0000DD4A0000DD4A0000000000006B
:10002000000000000000000000000000C14C0000C3
:10003000DD4A0000000000008D4C0000DD4A000099
:10004000554E0000554E0000554E0000554E000024
:10005000554E0000554E0000554E0000554E000014
:10006000554E0000554E0000554E0000554E000004
:10007000554E0000554E0000554E0000554E0000F4
:10008000554E0000554E0000554E0000554E0000E4
:10009000554E0000554E0000554E0000554E0000D4
:1000A000554E0000554E0000554E0000554E0000C4
:1000B000554E0000554E0000554E0000554E0000B4
:1000C000554E0000554E0000554E0000554E0000A4
:1000D000554E0000554E0000554E0000554E000094
:1000E000554E0000554E0000554E0000554E000084
:1000F000554E0000554E0000554E0000554E000074
:100100007BB972B90029BEBF00204FF0004106E064
:1001100008BF00281CBF6FF000414FF0FF3000F017
:1001200057B8ADF1080C6DE904CE002909DB002BAE
:100130001ADB00F04FF8DDF804E0DDE9022304B03B
:100140007047404261EB4101002B1BDB00F042F89D
:10015000DDF804E0DDE9022304B0404261EB410137
:10016000524263EB43037047524263EB430300F098
:1001700031F8DDF804E0DDE9022304B0404261EB30
:1001800041017047524263EB430300F023F8DDF86E
:1001900004E0DDE9022304B0524263EB43037047FD
:1001A00053B94AB9002908BF00281CBF4FF0FF31DE
:1001B0004FF0FF3000F00CB8ADF1080C6DE904CE43
:1001C00000F008F8DDF804E0DDE9022304B0704730
:1001D000704700BF2DE9F04786468C460846089ECA
:1001E000154674461946002B40F0C2808542B2FA8B
:1001F00082F245D94AB1C2F1200300FA02FC2EFA7C
:1002000003F3954043EA0C0C94404FEA154EA8B214
:10021000BCFBFEF8230C0EFB18CC08FB00F943EAEC
:100220000C43994528D9EB1808F1FF3704D29945BA
:1002300002D9A8F102072B44A3EB0903A4B2B3FB34
:10024000FEFC0EFB1C330CFB00F044EA0344A0420E
:1002500014D92C190CF1FF3304D2A04202D9ACF10D
:1002600002032C44241A43EA07401EB1D440002361
:1002700034607360BDE8F0874746DDE76346F1E729
:1002800092BB431B01214FEA154EAFB2B3FBFEFCFC
:10029000200C0EFB1C330CFB07F840EA0343984587
:1002A00062D9EB180CF1FF3004D2984502D9ACF1B9
:1002B00002002B44A3EB0803A4B2B3FBFEFC0EFB2D
:1002C0001C330CFB07F744EA0344A7424ED92C1910
:1002D0000CF1FF3304D2A74202D9ACF102032C4443
:1002E000E41B43EA0040C0E7C2F1200320FA03F117
:1002F000954090402EFA03F303434FEA154EAFB2F8
:10030000B1FBFEFC0EFB1C10190C0CFB07F841EABC
:100310000041884504FA02F422D969180CF1FF3033
:1003200004D2884502D9ACF102002944A1EB0801AE
:100330009BB2B1FBFEFC0EFB1C110CFB07F743EA62
:1003400001439F420ED9EB180CF1FF3104D29F42BA
:1003500002D9ACF102012B44DB1B41EA004192E7D8
:100360006046E3E76146F7E76046A3E76346B7E721
:10037000834206D916B9002108467BE7C6E900E0AA
:10038000F9E7B3FA83F78FB9834201D3724508D8EE
:10039000BEEB020460EB030301209C461EB9002162
:1003A00068E73846FAE7C6E9004CF8E7C7F1200CE1
:1003B000BB4022FA0CF41C432EFA0CF120FA0CF389
:1003C000B84001434FEA14490EFA07F5B3FBF9F8B8
:1003D0001FFA84FE09FB18300B0C08FB0EFA43EAE7
:1003E00000439A4502FA07F240D9E31808F1FF30BA
:1003F00004D29A4502D9A8F102002344A3EB0A03D0
:1004000089B2B3FBF9F809FB183308FB0EFE41EA89
:1004100003418E452CD9611808F1FF3304D28E4573
:1004200002D9A8F10203214443EA0040A0FB02984C
:10043000A1EB0E014145CE46434602D306D14D45C0
:1004400004D2B9EB020E68EB04030138002EA6D0EB
:10045000B5EB0E0261EB030101FA0CFC22FA07F383
:100460004CEA0303F940C6E9003198E74046C5E786
:100470004346D9E710F8012B11F8013B012A28BFA8
:100480009A42F7D0D01A7047034611F8012B03F8AF
:10049000012B002AF9D17047034613F8012B002ADB
:1004A000FBD1181A013870472DE9F047064688B08D
:1004B0000F4690460FF05DF94FF47A73A0FB0345A9
:1004C00003FB0155E40B012F44EA45444FEAD535BF
:1004D00007D1294922462B4630460DF0B8F90020B5
:1004E00012E0D8F8047025483946FFF7C3FF70B111
:1004F00023483946FFF7BEFF48B1304621493A4606
:100500000DF0C1F96FF0040008B0BDE8F087204697
:10051000294617A3D3E90023FFF7F2FD05460C4651
:1005200010461946184A0023FFF7EAFD80460F4699
:10053000104619464EF660220023FFF7E1FD824681
:100540008946104619464FF47A720023FFF7D8FD0A
:10055000CDE902A9CDE90623CDE90401CDE9008763
:100560000A492A46234630460DF071F9B7E700BF25
:10057000005C260500000000CF100100E010010023
:10058000E3100100EC10010080EE360004110100C0
:10059000014807F069BD00BFC004002070B5AA2360
:1005A000037006238CB004464370102200210230F1
:1005B0000FF06EFC1323079300238DF820301223D5
:1005C00001AD0A930723069409958DF82C30154840
:1005D0009DF82C30826843F002038DF82C30966829
:1005E0005423022206A9B047031E0BDA0E48026804
:1005F000520703D00D4A01210CF00EFF4FF0FF30DF
:100600000CB070BD2B4605AD1A4603CAAA42206045
:100610006160134604F10804F6D11388238000209A
:10062000EEE700BFACFF000070070020FC0B0100EC
:1006300030B5012987B0054607D013490DF023F9DD
:100640006FF01504204607B030BD10490DF0FFF8DB
:100650001322002101A80FF01BFC01A8FFF79EFF49
:10066000041E04DA0A4928460DF00DF9EAE70949A3
:1006700028460DF0ECF810220DF1060128460DF089
:1006800010F90024DEE700BF2C0C0100400C010033
:10069000640C0100850C010070B5022988B0044685
:1006A0000D46164607D028490DF0EDF86FF01505F8
:1006B000284608B070BD112200210DF10E000FF088
:1006C000E7FB7668AA238DF80C30304605238DF8B9
:1006D0000D30FFF7E1FE0F28024605D91B490F2216
:1006E00020460DF0D0F8E1E731460DF10E000FF095
:1006F0001EFB03AB0093132301938DF8085014489D
:100700009DF80830826843F002038DF80830956840
:10071000542301226946A847051E04DA0D492046E4
:100720000DF0B1F8C4E70C4920460DF090F80B49E4
:1007300020460DF08CF810220DF10E0120460DF030
:10074000B0F80025B4E700BF920C0100AE0C010028
:10075000ACFF0000CF0C0100FB0C0100850C010078
:1007600090B5154C87B0236803F00703022B00AF48
:1007700004D9124A032120460CF045FE381DFFF72C
:100780000DFF236803F00703022B12D96C4688B0D3
:100790006A460B4B53610B4B93614FF40073938389
:1007A000094B42F8103F09490348BB1D01F0A4F969
:1007B000A5461C37BD4690BD700700201E0D0100E8
:1007C00025140100290D010003000001C01C0001D7
:1007D000F8B500AF4A480EF09BFD58B94948036888
:1007E0005E0703D0484A01210CF00DFE6FF00400B3
:1007F000BD46F8BD454C20460EF08AFD0346B8B90B
:1008000040480268550711D021686C4688B06A4696
:100810003F4DC2E905514FF4007191833D4942F8C3
:10082000101F4FF4E25101F067F9A5460020DFE701
:100830002269A168136823F4004313600B684FF426
:1008400080320F2120469847031E19DA2D4802688E
:10085000510715D06D468AB021686A462E4ED16187
:10086000C2E905630F23136240F2013393842B4BDB
:1008700042F8103F00234FF4315101F03DF9AD46ED
:10088000A26823699569002D36D01B681F4813F4B0
:10089000004F14BF4FF000734FF080634FF0A07211
:1008A0000F21A847031E19DA16480268520715D00F
:1008B0006D468AB021686A46194ED161C2E9056366
:1008C0000F23136240F201339384144B42F8103F1C
:1008D00000234FF4315101F00FF9AD461149124B8D
:1008E0004B604FF400438B60A368DB69002B9DD005
:1008F00001220648984799E76FF05703D4E700BFF5
:10090000ACFF000070070020350D010070FF0000F3
:10091000430D010003000001600D0100050000010E
:10092000890D0100201400209105000030B589B028
:100930001822002102A80FF0ABFA1C4B4FF44071B3
:10094000CDE903134FF41053ADF804308023ADF814
:1009500006301749174B102201A808F099FD0446EC
:1009600078B1154D2B685A0708D00346134A012168
:1009700028460BF066FF2B685B0710D1204609B0B4
:1009800030BD029B01220692DAB222B923F0FF03A6
:1009900043F00103029301A80FF065F9EEE7084A5E
:1009A0002346012128460BF04CFFE7E70010C00466
:1009B000F00600202C140020580700201E0E010015
:1009C0003C0E010010B508F061FE044650B1074826
:1009D00003685B0704D0064A234601210BF031FF70
:1009E000204610BDBDE81040FFF7A0BF580700200B
:1009F000600E01002DE9F04F91B08407009302F0E2
:100A000004030293C2F3C20303F10103DDF868900B
:100A1000039205460E46059340F0BA81041D30B19D
:100A2000072909D86FF01B0011B0BDE8F08F01F065
:100A30000706341DC6F10806009B4FF00008591E3A
:100A40004FF0040A4FF0FF330193CDF81080474672
:100A5000C34653460DB1009A22600598002800F362
:100A6000E8809848009A824203D397488242C0F0B7
:100A7000E080039AA4EB050E92074FEA9E0000F176
:100A800003810F2F00F2B180002D00F0058107F1E6
:100A900040020DEB020C019A0CF8200C0CF8102C03
:100AA000049801300490E7E07A285DD84B280ED8EE
:100AB000472859D829282DD8252852D054D820285D
:100AC0007AD02338D0F1000B4BEB000B74E04C389C
:100AD0002E2849D8DFE800F0704848484848484880
:100AE000484848484B484848484848484859484B6F
:100AF0004B595959704B6D487048184B18484882EB
:100B00007F4B48484B487F0000204FF0000B4FF0D0
:100B1000040A38E02A38C0B2012202FA00F010EAD2
:100B20000E0F49D110F0625C2FD110EA020B43D0B6
:100B30006046013C5444B4FBFAF40AFB04F4002D73
:100B400061D0A3EB050CA444B4453FF66BAF00287D
:100B500068D1042B47D159F8043B236004340423A3
:100B60002AE0019A013A01924FF0000B24E011F8BB
:100B7000010C6C2834D111F8023C00206C2B834608
:100B8000C5D14FF0080A5346D3E709F1070929F008
:100B900007090734F9E802AB24F0070435B10698D9
:100BA0002044B0423FF63EAFC4E900AB08344FF0FA
:100BB000000B4FF0080A534611F8010F002878D0B7
:100BC000BBF1000F7FF470AF2528F5D1019B0133F5
:100BD00001934FF0010B4FF0040AECE7584694E7FD
:100BE00000208346A5E7082B02D06FF015001BE715
:100BF00009F1070929F00709F9E80223C4E90023EC
:100C000008340823D8E768B9042B02D109F1040994
:100C1000A4E7082BE9D109F1070929F0070909F12F
:100C20000809EDE7059A013A059259F8042B00925C
:100C300010E7039A900720D5A4EB050E4FEA9E001B
:100C40004FF0010CBEF5007FCFD20F2FCDD8F5B1FC
:100C500007F140020DEB020EC0B2019A0EF8200C13
:100C60000EF8102CBCF1000F3FF41AAF60F07F00BB
:100C70000EF8200C08F101080137C5F10802043410
:100C800006924FF6DA7E97E74FF0000CDAE7BCF1F8
:100C9000000F01D00136EFE7029802360028EBD1B1
:100CA0000098CDE90631FFF7F7FBDDE90631064490
:100CB000E2E7631BB3F5806F97D23DB9A6F1080454
:100CC000E018B1E6C4FE0000A8270100029A2860DF
:100CD0009B082B709DF81030C2B1EB7085F8028034
:100CE000B8F1000F05D008A80022C5F1010C974209
:100CF0000ED1C5F101030DF120094FF0000A019357
:100D00000DF1300B574512D1601B8DE66B70E5E796
:100D100010F8013B190608D504EB0C0EB64503F09C
:100D20007F033FF67FAE04F8013B0132DFE7B8F105
:100D3000000F03D099F90020002A17DB029BD3B1E2
:100D40001AF80B2004F8012B0022019B981820446C
:100D5000B0423FF667AE99F8000004F8010B009925
:100D6000039220460FF06CF8039A14440AF1010A2A
:100D700009F10109C6E799F8002055F822300093DF
:100D8000029B45F822300098FFF786FB421CDCE707
:100D90006FF00D0048E600BF2DE9F04F97B000AFAF
:100DA00090F802A0D7F880B03B62CBF3C0030446B2
:100DB000FA62BB61894641B9457800780AEB800048
:100DC00020444D4517D8A0EB0409E378FB61BAF144
:100DD000000F02D01BF0010F16D1FB6953BBFB6A59
:100DE0001BB13A6A4946204698474D4628465C372B
:100DF000BD46BDE8F08F461C3046FFF74DFB013085
:100E0000304409F10109DCE7237862687A62FA6A02
:100E10009900796104EB8301002A40F004814D467A
:100E20000E4601EB0A094FF000084E4550D101EB88
:100E30000A0610E01BF0020FD1D023789A007A61E5
:100E400062687A62FA6A04EB8301002A7BD14D461C
:100E500001EB0A0690461BF0050F0CBF022301238D
:100E6000FB62FB6906EB430A0BF00203BB625645CB
:100E7000BCD016F8021B16F8013C54F823909B4B8B
:100E8000994502D39A4B99453AD3BB69002B44D07C
:100E9000786A0BF0E9FD00283FD09648036813F00C
:100EA000060F13D0E9468AB06A46934B53617B6ABA
:100EB000C2E906314FF400731384904B42F8103F9F
:100EC00000234FF4125100F017FECD46023DCEE74D
:100ED00016F8013BF96254F82300FFF7DDFAD7F862
:100EE0008430F96A01304BB1D7F8883098453EBF5D
:100EF000D7F8843023F8180008F10108054494E776
:100F0000BB6923B1786A0BF0AFFD0028C5D11BF097
:100F1000010F05D1FB6AED1AA9E7BB6A002BA6D029
:100F20004846FFF7B9FAD7F8843053B1D7F888307C
:100F300098453FBFD7F88420431C22F8183008F1A9
:100F40000108054493E7BAF1000F72D01BF00406C4
:100F500072D0D046002607F1480052463B61B96284
:100F60000EF06EFFB96A3B6901EB0A02BA62FA69D8
:100F7000F9695200FA60BA6A02EB41023A610BF079
:100F80000202BA603A69B96A8A4257D162787A62D3
:100F90001BF0020F32440CBF4FEA580100211BF036
:100FA000010FD2B240F09F801BF0040F14BF4046E7
:100FB0000020BB616270A070E1703A6A7969FB6AD7
:100FC00020469847051EFFF611AFBB6923707B6A68
:100FD0006370FB69E37041463A6AFB6A84F802A0D9
:100FE00007F148009847B0F10008C0F2B5807B696E
:100FF0003A6AA9EB0A01C91AFB68C91AD7E90A03B8
:1010000098470028C0F2AA80A84408EB00054FF0DA
:10101000000B07F1380AB34572D300213A6AFB6A24
:1010200008469847E2E656464FF0000807F13800B8
:1010300093E75646D04697E7B04695E7BA6A12F866
:10104000021BBA6212F8015C284A54F8250090424B
:1010500002D3274A90421ED3BA6932B1786A7B60C4
:101060000BF002FD7B6800288CD1BA6802BB08F146
:10107000280207F1300C08F10100944407F15802EE
:1010800052FA80F008F102080CF8101C5FFA88F898
:1010900000F8105C76E7BA693AB1786A7B600BF0C9
:1010A000E3FC7B6800287FF46DAF1BF0010F09D0D3
:1010B00006F1280207F13000711C161806F8205CB2
:1010C000CEB25FE71BF0040F3FF45CAF08F12802DB
:1010D00007F1300008F1010102EB000808F8105C8C
:1010E0005FFA81F84EE7002063E700BFC4FE00000E
:1010F000A8270100500700207F0E01000400000116
:101100001BF80A3087F8373054F82390D7F884302A
:10111000FBB133F81B803A6AFB6A012107F1370003
:10112000984700281ADB0544B8F1000F06D148465D
:10113000FFF7B2F900F101081FFA88F83A6AFB6A72
:10114000414648469847002808DB05440BF1010B4F
:1011500061E7D7F88480DEE7454647E6054645E681
:10116000014B1860704700BFD004002080B50546D1
:101170000E461746984607F069FB03460EF098FEA8
:10118000DFF81890044649F80030424630463946A8
:10119000A84754F8090003F021FD00BF0800000033
:1011A0002DE9F047058B04462807904611D4022903
:1011B00005F0070540F0CC8020460BF0E7FE78B143
:1011C0000138218B042811D8DFE800F0C2106D85AA
:1011D000950001290CBF45F0100545F02005258339
:1011E00088F31188BFF36F8FBDE8F08701F0070A1D
:1011F000AA4500F0A5800027B9463E46A368002B0B
:1012000000F0BC8041F00801218388F31188BFF30E
:101210006F8FA168002900F0BA800D68002900F0E6
:10122000B680D1F80480334652462046C047002D90
:1012300076D02B6829461D46F0E701F007035A1FB8
:10124000012A1BD8002221F00701062B276889B24A
:10125000C4E9002209D13B4603E0628B013262837C
:101260001B68002BF9D141F00201218320460BF0CD
:101270008DFE00287AD041F0200176E0042B0AD1BF
:1012800021F0070189B2218320460BF07FFE10B1C7
:1012900041F020012183218B01F0070AAA454FD09C
:1012A0000027B946AAE7236921F0070141F00601AA
:1012B000062DD3F8009021832DD1B9F1000F3FD036
:1012C00041F00801218388F31188BFF36F8F3A49F9
:1012D0002046C84729E021F00701236941F00401B5
:1012E00089B2042DD3F804902183E6D000273E462E
:1012F0004FF0040A82E721F00701236941F005015C
:1013000089B2052DD3F808902183D6D000273E4618
:101310004FF0050A72E700273E464FF0060A6DE7D8
:101320002B4687E7B9F1000FD1D1EFF311882023C5
:1013300083F31288BFF36F8F238B23F0080323837B
:10134000258BEA062ED525F01003238305F007052B
:101350006669218B002EBFF670AF00232768C4E9B1
:10136000003321F0070141F001012183218B01F0BD
:10137000070AAA454FF000097FF440AF002F9CD028
:1013800041F00801218388F31188BFF36F8F002F8C
:10139000C8D03D6839463346524620460BF022FEFF
:1013A0002F46F4E7AB067FF51BAF25F02003238320
:1013B00005F0070500E700BF11D000002DE9F04758
:1013C000DFF85880044607464FF0010914B9384643
:1013D000BDE8F08794FAA4F5B5FA85F509FA05F3A6
:1013E0002E0108EB05156FEA030A24EA03042B7BA0
:1013F000002BEBD058F806301B694BB94644042249
:1014000073682846196807EA0A0700F035FBDDE72C
:10141000284698470028D9D1F0E700BFB80101005D
:1014200030B51049104889B000220EF0A4F90F4DD4
:101430000F4900220023CDE9062300240E23CDE925
:101440000334CDE901440B4B00944FF4407228461D
:1014500006F022FF0849284606F04AFE204609B059
:1014600030BD00BF7D140000180D0020580800207A
:10147000404F0020BD170000330F0100014806F067
:10148000ABBC00BF400800202DE9F04780461F4854
:101490000F460BF01EFF0646002830D000252846D8
:1014A000BDE8F087237B6BB12368DB680BB1204676
:1014B000984723681B69D3B96368042219682046DA
:1014C00000F0DAFA013610344C45EBD3B8F1000FD6
:1014D000E5D0002DE2D02846FFF770FF0546002F2B
:1014E000F7D000214FF4A47007F092F9F1E72046FD
:1014F00098470028E0D00AFA06F31D43E2E7044CBF
:10150000DFF8109005464FF0010ADDE74014002097
:10151000B8010100D8010100014B53F820007047C9
:10152000D003010008B5034608462BB1044A1360F6
:1015300000F084FD002008BD6FF01500FBE700BF40
:10154000D404002010B5044C237813B9034806F0E6
:1015500043FC0123237010BDC02E00204008002052
:1015600010B504460B480BF0B4FE5CB1BFF35B8FC3
:10157000094B53E8001F013943E80012002AF8D153
:10158000BFF35B8F05480EF002F90548BDE8104037
:1015900006F022BC381400203C140020180D002056
:1015A000400800200020064BBFF35B8F014653E844
:1015B000000F43E80012002AF9D1BFF35B8F704798
:1015C0003814002070B5FFF7EDFF084C084E0546B3
:1015D000B44200D370BD63685B792BB123685B684C
:1015E00013B12946204698471034F1E7B8010100AD
:1015F000D801010010B5044C044920460BF062FBF1
:10160000034B1C6010BD00BF0C070020BC03010091
:1016100030140020094A0A4808B500231370094A0B
:101620001360094A4FF400411360FFF77BFFFFF797
:10163000E1FFBDE8084000F06FB900BFC12E0020F7
:10164000CFD20000381400203C14002001460022B4
:10165000014800230BF057BB0C07002001480BF09A
:10166000EDBB00BF0C070020024B014618680BF0D1
:1016700039BC00BF3014002001480BF06EBC00BF25
:101680000C0700202DE9F041354B1878002864D074
:10169000FFF7E4FF044698B1BFF35B8F314B53E88B
:1016A000001F013943E80012002AF8D1BFF35B8F15
:1016B0002D4DDFF8B88045452DD32046FFF7D4FFE8
:1016C0002B4B2C4C1B68002B19DD0EF052F84FF4FD
:1016D0007A72A0FB020302FB0131C30BD4E90020A4
:1016E00043EA41439B1A4FEAD13140F2E93261EBC0
:1016F0000001934271F1000101D3FFF763FFD4E9C8
:10170000003213F57A7342F10002C4E90032BDE8F9
:10171000F041FFF7B1BF6B685B793BB121784B07B4
:1017200006D52B6821461B68284698471035C2E726
:1017300020462688C1F3C20700F0BEFAC6F382161F
:101740000246002EEDD00028EBDB01233946284667
:1017500000F0ACF9B042E9D3E3E7BDE8F08100BFA7
:10176000C02E00203C140020B8010100D801010067
:1017700038140020100D002070B50D4D297861B986
:101780000120FFF781FE0B4C0B4EB44206D3FFF74E
:1017900079FF0028FBD101232B7070BD63685B7952
:1017A0001BB1236820469B6898471034EDE700BFC3
:1017B000C12E0020B8010100D801010000212DE94F
:1017C000F0470846FFF760FE044658B340F26768EA
:1017D0004FF000090EF06CFB1B4B1C4A1B581360AA
:1017E00033B11B4B1B68092B02DD1A4806F0F4FAD3
:1017F000194FDFF860A0002544B12046FFF7DEFD59
:10180000044618B94FF0FF384FF0FF39FFF73AFFA1
:10181000064628B9B5B942464B46504606F002FB8B
:101820003546E9E74FF0FF384FF0FF39D2E72B6834
:101830009B691BB100221146284698471035BD42CE
:10184000F5D3E8E7054DFAE708000000341400205E
:101850003C14002040080020D8010100B80101001C
:1018600013B518480BF035FD174B1B7873B1EFF328
:101870001184202383F31288BFF36F8FFFF702FFD9
:1018800084F31188BFF36F8F02B010BD0F4B1B683C
:10189000002BF9D050B900220023CDE900230C48D9
:1018A0004FF40042002307F07BFAEDE70928EBD163
:1018B00007480DF06CFF074802B0BDE8104006F085
:1018C0008BBA00BF3C140020C12E0020341400202D
:1018D000180D00204008002010B5064B1B68044678
:1018E00098472146A06004480BF089FABDE81040F3
:1018F000FFF7B6BFD40400200C070020044A054BB4
:101900009B1AB1EBD30F34BF52F83100002070475F
:1019100040010100B80101000B480C4B30B51B1A07
:101920000B4CDB0800210430994200D130BD10F887
:101930003120256802F0070225F007052A4344F804
:10194000042B0131F0E700BF40010100B8010100A4
:1019500050070020F8B50B4F0B4DED1B0646ED0868
:101960000024AC4203D14FF0FF342046F8BD57F8B5
:10197000340020B13146FEF77DFD0028F5D001345A
:10198000EFE700BF40010100B801010000282DE988
:10199000F047884615461F461DDADFF89890264E18
:1019A0004FF0000AA6EB090636095446B24509F184
:1019B000100902D12046BDE8F08759F80C0C3B46CF
:1019C00000792A464146FFF7E1FF844238BF0446CA
:1019D0000AF1010AEAE7194B194AD21AB5EBD20FFC
:1019E00026D203EBC5031C79BC4228BF3C46154EEA
:1019F000C0B200EB400056F825300722824023EAAF
:101A0000020304F00702824013430021032223FA59
:101A100002F000F00700814202F1030238BF0146E4
:101A20001E2AF4D123F007030B4346F82530C1E703
:101A30000024DCE7B8010100D801010040010100E9
:101A4000B801010050070020F8B5094D094BED1A07
:101A500006460F46ED080024AC4200D3F8BD002135
:101A600022B23B46304601340BF053FCA4B2F3E7FC
:101A7000B80101004001010038B50B4BC31A0D46F7
:101A80001B11114642680133137143680446997172
:101A9000FFF7DAFF63681D60636801225A71BDE8D1
:101AA0003840FFF74FBD00BFB801010070B1416879
:101AB000097973B1002A17DBCBB20C4951F8220027
:101AC00003EB4303D84000F0070070474FF0FF31AD
:101AD000EFE707490748401AB2EBD00F3ABF01EBD6
:101AE000C20108791846704704207047500700204B
:101AF00040010100B80101002DE9F04F8FB004AFA3
:101B0000C1F34A28B8600D4691467B600C0DB8F1D0
:101B1000000F67D0002607F114034FF0040B4FF0BD
:101B20000A0AC7F80C80C7E907667E620193CDF800
:101B300008B0CDF800A007F11C03F968324648460A
:101B4000FFF72AF9B0F5006F034620D32A4803684F
:101B500013F0060F17D06C468AB0D9F8041004AB06
:101B6000264DC3E9055140F2FF71D9611A464FF481
:101B700000711984224B42F8103F4FF41251334642
:101B8000FFF7BAFFA5462C37BD46BDE8F08FC0F37E
:101B90000A0804F11700184420F0070080083B6091
:101BA000FFF754FD68F35325044690B13B68154A8E
:101BB000C7E9083600F1100107F11403F961CDE916
:101BC00000A3CDF808B0F96807F11C034846FFF7F9
:101BD000E3F868F353257B68B9682A4620460BF082
:101BE000C2FBD0E704F1170020F007008008FFF7E0
:101BF0002DFD0446EDE700BF68070020480F0100F7
:101C0000040000013BD300002DE9F04F87B0DDE96F
:101C10001279DDE9105A0446039193469846DFB1E4
:101C2000CDF800903B46524610210020CDF814908C
:101C3000FEF7E0FEB0F5006F06460ED31C480368C1
:101C400013F0060F30D01B4A40F2FF73022107B099
:101C5000BDE8F04F0BF0E0BB3E4605F11700304405
:101C600020F0070004F007048008FFF7EFFC0BF0FA
:101C7000070BE40044EA8B1444EA462444EA055482
:101C8000054640B13FB1CDF800903B465246314643
:101C90001030FEF7AFFE039943462246284607B0B0
:101CA000BDE8F04F0BF05FBB07B0BDE8F08F00BFA1
:101CB00068070020870F0100406820B1034BC01A5D
:101CC00040F38F0070474FF0FF30704750070020FF
:101CD0000EB403B503AB014653F8042B044801933B
:101CE00003F05AFA02B05DF804EB03B0704700BF8E
:101CF00063D40000CA0605D48B064CBF02490349D1
:101D0000FFF7E6BF704700BF42130100BF0F01009D
:101D10002DE9F04F89B09B46149B06939DF84CA08B
:101D2000159B0593169B179E049304460D469046FB
:101D3000BAF1000F00F09D8006F4807307930BF05A
:101D4000E6FA06F00209024600283ED091492046F4
:101D5000FFF7BEFF0746B9F1000F08D016F0440F99
:101D600035D18D492A462046FFF7B2FF074406F0D9
:101D7000010353B1894B8A4953F82A20894B2046E5
:101D8000002A08BF1A46FFF7A3FF06F48073002B52
:101D900049D006F00803002B63D1B8F1000F66D0DC
:101DA000814942462046FFF793FF0546069B3D4486
:101DB000002B6DD1049B002B73D1F30700F1E4805D
:101DC00031462046FFF796FFD8E00746C3E7774B3A
:101DD00018680028CAD0764B4FF47A791B68B5FB97
:101DE000F3F54FF46161B5FBF0F300FB135509FB0C
:101DF00005F54FF03C0CB3FBF1F201FB1231B5FBE2
:101E0000F0FEB1FBFCF300FB1E550CFB131109FBAC
:101E100005F50091B5FBF0F56649CDE901E52046F1
:101E2000FFF756FFA2E706F00803EBB1624B6349E8
:101E300053F82A202046FFF74BFF0546B8F1000F64
:101E400005D0594942462046FFF742FF0544BBF101
:101E5000000FABD05A495A462046FFF739FF0544D8
:101E6000A4E74FF0000BE1E706F00805E6E745467A
:101E70009CE7BBF1010F069B06D1002B64D1049BAC
:101E8000002B7BD000250CE0002BF8D04D485CE007
:101E90004D48069B4D4922460AF0B5FD049B002B98
:101EA00068D0DFF82C81DFF82C91049F3146102F89
:101EB000204628BF1027FFF71DFF4FF0000B5D45A0
:101EC00045DC059B49461A782046FFF701FF4FF095
:101ED000010B1BF0070F03D141462046FFF7F8FE28
:101EE0005F453BD9059B494613F80B202046FFF779
:101EF000EFFE0BF1010BBBF1100FEAD13649204682
:101F00004FF0000BFFF7E4FE5A46059B9A5CA2F1E6
:101F100020015F2928BF2E2230492046FFF7D8FE36
:101F20000BF1010BBBF1100F1DD01BF0070F03D1FC
:101F300041462046FFF7CCFE5F455A46E5D841466C
:101F40002046FFF7C5FEEBE71F485546A1E741468F
:101F50002046FFF7BDFE0BF1010BB0E720492046FC
:101F6000FFF7B6FEC5E7059B3B440593049BDB1BCF
:101F700004939AD1BAF1000F7FF41FAF204609B045
:101F8000BDE8F04F0BF060BA064A05492046FFF75E
:101F90009FFE15E7C70F0100CB0F0100E003010012
:101FA00025140100C20F0100F00F010048140020A9
:101FB00044140020D40F0100F4030100F40F0100C9
:101FC000FA0F010099D4000063D400009951000079
:101FD00007100100FF0F010009100100381A01006D
:101FE0000510010073B542F20F738B4228BF0B46F8
:101FF00005680F4A0446052168460AF0A7F8636899
:102000000C495B6806460B2228460BF00FFA636802
:102010003246694628465B680BF008FA6368064951
:102020005B681B2228460BF001FA02B070BD00BFAE
:1020300090210100271001000B100100074A002128
:102040000123904206D8064A01B901231360054BCB
:102050001860704740085B000121F2E740420F0022
:102060004414002048140020014B01221A707047CC
:10207000C22E0020014B0020196070476014002020
:102080000148FFF7AFBF00BF2404010010B5064BA5
:1020900018680C46FFF740FA21460346BDE8104099
:1020A00002480F22184700BF6014002024040100DA
:1020B000F8B5094D094B0A4ED5E9004701221A70BF
:1020C0000CB92C60F8BD214630463A4600F01EF8A7
:1020D000241A0644F4E700BF54140020C32E002045
:1020E000C42E002010B9074B18707047064B1B78A0
:1020F0001BB141F288300DF006B9A420002106F092
:1021000087BB00BFC22E0020C32E00202DE9F8435C
:10211000DFF874901D4F80460E46042499F8005055
:1021200095B905F07BFB28463246414605F028FB71
:10213000054605F07DFBE5B101233B7099F80030C1
:1021400073B93046BDE8F88332464146002005F0B9
:1021500017FB0546EFE72046FFF7C4FF651E2C4638
:10216000002005F051FB0028EBD03B78002BF2D18A
:10217000E7E73B78002BE4D0013C2046FFF7B2FFB5
:102180003B78002BCAD1DCE7C32E0020C22E0020F2
:10219000014B0360002070473404010010B5044671
:1021A0000CF060FF0349024620460BF050FB002074
:1021B00010BD00BF7A10010073B5134600220192D2
:1021C000044601AA58680A2101F0DAFB019D95B97D
:1021D00020EAE0744FF40046294640F2E7304FF41D
:1021E0007A720023C4FB0601FDF7DAFF06F010FB4C
:1021F000284602B070BD2A46024920460BF043FB38
:10220000019DF5E7A610010008B5034A03490BF04C
:102210001EFB002008BD00BF961101009D110100AA
:102220002DE9F34117460023044601AAB86801933B
:102230000A2101F0A5FB019DC6B24DB12A46144901
:1022400020460BF020FB019D284602B0BDE8F0813E
:10225000042E09D90F49324620460BF014FB2046C4
:102260000BF065FB0125EFE77868FFF773FBB0F132
:10227000000804DA7A68084920460BF004FB0021C4
:1022800033460FFA88F208460BF043F8DCE700BF4C
:10229000C8110100EF1101000612010010B504463B
:1022A00004F0EAF80749024620460BF0D0FA20462F
:1022B00005490BF0CCFA0548214606F083FB0020C7
:1022C00010BD00BF6512010084120100D122000080
:1022D00070B58EB004460D46D0F89C600DF0FBF84A
:1022E00003460DF0E5FD214A21491058214A002BF3
:1022F00018BF1A460092204A2346844218BF0A4655
:1023000028461E490BF0A3FAD4E90A23CDE900239D
:10231000284694F90E30227B19490BF098FA06A949
:102320002022204605F0F4FE636E16490246284638
:102330000BF08DFA05A920460DF0DDF8024628B114
:10234000114928460BF083FA0EB070BD059B64223C
:10235000F11A4A430091B2FBF6F20C49CDE9016251
:10236000284632460BF073FAEEE700BF0800000083
:10237000071001008E120100CF240100911201000C
:102380009D120100C9120100E01201000D130100AD
:10239000F0B5002591B00446294608AF1C2209A8D3
:1023A0000DF076FD134E1A22202138460DF070FDF7
:1023B0002146114806F006FB07AA4FF4006130469B
:1023C0000DF08DF8079A0097C2F5006164234B4326
:1023D000DB0A05934FF40063CDE90313CDE9013225
:1023E000204606492B46A6F140020BF030FA28465B
:1023F00011B0F0BD005B0020012400005E1301005D
:1024000070B50446D0F89C6088B00D4607A90DF061
:1024100072F8024628B10F4928460BF018FA08B0A6
:1024200070BD20460DF057F8079B0096F11ACDE9D4
:102430000131094B64224A43002818BF0346B2FB0E
:10244000F6F20649CDE90362284622460BF0FFF971
:10245000E5E700BFE01201008E120100A7130100A2
:102460002DE9F04387B00546684605F0E7F9009E80
:10247000184A194FDFF86480DFF86490142303FBD7
:102480000066082128460BF0D5F9009CB44203D31E
:10249000002007B0BDE8F08323680BB11A7832B989
:1024A00023463A46142101A809F050FE01AB4246EA
:1024B000082128460BF0BEF920460CF029FF094BF5
:1024C000094A002808BF4B46082128460BF0B2F9FC
:1024D0001434DBE7141401001E140100231401005E
:1024E0000B1401003D0D0100971A01002DE9F04188
:1024F00014468846074610226068002109F0C8FE8D
:10250000B8F1020F064607D8254A2023082138468D
:102510000BF090F9336816E00A220021A06809F058
:10252000B7FEC5B21E4A2B46082138460BF082F989
:10253000B8F1030F1AD1102D0CD0202DEAD0082DA0
:102540000BD13378DBB2174A082138460BF072F909
:10255000002009E033889BB2F5E73846124A08218B
:102560000BF068F96FF01500BDE8F081E06810220B
:10257000002109F08DFE0D4A034604460821384625
:102580000BF058F9102D06D0202D07D0082DE4D1DE
:10259000E4B23470DCE7A4B23480D9E73460D7E722
:1025A00057140100821401006C14010093140100FF
:1025B0002DE9F04F5A4BDFF86CA185B0914601220E
:1025C000074688461A6002F01DFE4FF0FF352026B0
:1025D0002C4649465246404602F038FE411C06D180
:1025E0006A1C50D1504938460BF04DF91CE0732855
:1025F0001FD0772832D0612816D1DFF830B11022F1
:10260000DBF80000002109F043FE05460028E0D178
:102610000DF04EFC464B1B58162BDAD1DBF8002090
:10262000444938460BF02FF96FF0150005B0BDE8AE
:10263000F08FDFF8F8B00022DBF80000114609F057
:1026400027FE04460028C4D10DF032FC384B1B583D
:10265000162BBED1DBF800203749E2E7DFF8CCB01B
:102660000022DBF80000114609F012FE06460028A1
:10267000AFD10DF01DFC2E4B1B58162BA9D1DBF84A
:1026800000202E49CDE7631C01D12D49ABE75FFA4D
:1026900086F8C6F3C406002C3FD06B4629461A467E
:1026A000A6EB050C0CE0B8F1100F1DD0B8F1200F0F
:1026B00020D0B8F1080F2AD108781870314433447B
:1026C000A64203D80CEB01001028ECD9102CA1462F
:1026D00028BF4FF0100929464B46384601F028F82C
:1026E0001035A4EB0904D6E7088880B21870000AF8
:1026F0005870E3E7086818704FEA102E83F801E07D
:102700004FEA104E000E83F802E0D870D6E70D4A6B
:10271000082138460BF08EF886E7204686E700BF92
:1027200078050020E1140100E8140100381D0020A4
:102730000C000000A7140100BA140100CD14010020
:10274000051501006C14010070B50F4E0446337876
:102750000D4671B123B1BDE870400C490BF093B840
:10276000012333700A4920460BF071F801233370BE
:1027700004E083F001033370002BF3D12946204697
:10278000BDE870400BF0F0B8D42E00201F150100FA
:102790005A15010070B504463B480378182B02D146
:1027A0000B78112B31D0013A0B468D18AB4225D155
:1027B0008B5C0A780370A2F13003092B334C04D9E7
:1027C00022F02003413B052B04D823683049CA542A
:1027D000013323602368022B33D110222C480021BF
:1027E00009F056FD2B4A136803F8010B13602A4ABF
:1027F0001368013313600023236022E013F8016B98
:10280000182ED3D11E78112ED0D1234D23492A68FA
:1028100020460BF01CF820460021FFF795FF204BC7
:10282000187870B91F4A2B681168042B0ADC08B1AC
:1028300011602B6013F003010BD1126813681BBAEF
:10284000136070BD086800BA41F8040B043B012016
:10285000EBE75B4203F0030358BF5942022904D15E
:10286000126813885BBA9BB2EAE70329E9D11068C2
:1028700002681104C2F3074301F47F010B4302F421
:102880007F4213430360DCE7D52E00206414002050
:10289000D72E002070140020681400208415010039
:1028A000D62E00206C1400202DE9F84F0C462B4941
:1028B000DFF8AC80DFF8AC90DFF8ACB000230B6041
:1028C0002A4988F8003006460B601546012C2F4631
:1028D00055F804AF1ED90222494650460DF015FAAC
:1028E00080B99AF80220003A18BF01229244204988
:1028F000022250460DF009FA30B9012388F8003061
:10290000013CE3E70022F1E749465046FDF7B2FDFE
:10291000A8B9043700221146786809F043FC154B2A
:10292000002211461860786809F03CFC124B1349EC
:1029300018603046FFF708FF0020BDE8F88F9AF8CE
:1029400000202D2AE6D19AF80120002AE2D0524632
:10295000594630460AF07BFFD2E700BF64140020DE
:10296000D62E00209E150100A41501006814002039
:10297000A1150100701400206C14002095270000A0
:1029800007B50A480CF0C4FC60B1094A074912684F
:10299000084804230093012300F030FF002003B017
:1029A0005DF804FB6FF01200F9E700BF98FF00002C
:1029B000DC040100D801010010B54468C4E900122C
:1029C000A36042684023D36402F1580313630023D9
:1029D0000821C2E90E33C2E91133C2E90633C2E964
:1029E0000933D1621468536302F150011364116119
:1029F00053611362C2F8D030A36823B11B6C13B1CA
:102A0000044920469847A3681B6A0BB120469847A3
:102A1000002010BD192A00002DE9F74304460D4699
:102A20008368DB6B03B19847A368DB6A0BBB4FF08D
:102A3000000905F13008EA6C01A940460AF08CFB58
:102A40000746002836D0A36801991B693BB30246AC
:102A500020469847064628B3314640460AF09BFB7D
:102A6000B7424FF00109E6D0D5E90131002098477F
:102A700003E0204698470028D9D1A368DB6963BBEF
:102A800005F11007EA6A01A938460AF0B8FB0646C4
:102A900050BB20460AF053FDC5F8D0602FE06FF020
:102AA0005706D9E7014640460AF075FBB9F1000F19
:102AB000E3D0D9E71648036813F0060F03D0154A90
:102AC00002210AF0A0FCA3681B69002BEED00122B2
:102AD0000DF1030120469847E8E720469847002873
:102AE000CED103B0BDE8F083A3680199DB685BB188
:102AF000024620469847014638460AF0A0FBD5E931
:102B0000013101209847ECE76FF05701F4E700BF6F
:102B1000800700200B17010010B5816804461831AA
:102B200001F062F9A168034A20461831BDE810405F
:102B300001F000B94D17010038B58368D3F8783239
:102B4000DB0704461DD4C0690BF031FC60680368E4
:102B50005B689847054620B9E0680BF0FDFDA36867
:102B60001D75A3685B6C13B1294620469847A3687E
:102B70000DF09EF90022C3F82023034B185802F0F1
:102B80002DF86FF00F05ECE70800000001490AF08E
:102B900074BD00BF42130100F7B504468068D0F849
:102BA00078325A070D4605D500210AF08EFDE068FF
:102BB0000BF0A4FDE368DB6873B9002D3BD0A66879
:102BC00006F1560738460AF065FD002835D039462B
:102BD00006F5AB70FDF758FCA268E0680DF106033E
:102BE000563229460BF08DFD58B9A06800F5AB713F
:102BF0005630FDF749FCA06856300AF04BFDADF8A1
:102C0000060020460BF0A3F9A368D3F874329B06A4
:102C100003D50B4960690AF030FD204600F018FF2B
:102C2000A268BDF80630A2F85230A2682046A2F889
:102C300050300BF0F1F803B0F0BD86F85601CBE749
:102C4000180301002DE9F04FA7B0044654220021DB
:102C500011A80DF01DF90023CDE90533A368204626
:102C6000563302930BF07AF920460BF0BEF810B9F8
:102C70006069FFF78BFFA0681422002118300DF067
:102C800007F920460BF057F8A168E068B1F850202A
:102C9000563100260BF06CFD20460BF0EBFD4FF09B
:102CA000FF37B24603960DF14408B3463546B146A8
:102CB000DDE90532012A6DD0132B6ED85FBBBBF165
:102CC000000F0AD020460BF0F6FDA26814235632FE
:102CD00011A90DEB03000AF0ADFEB9F1000F0CD005
:102CE00099F81130FE2B08D1059B26AA02EB83022E
:102CF00052F8542C0AB101330593A068059D436A2C
:102D0000002B40F0B680CEB1C3699E422DD00D9607
:102D100000F1180524E0029A0223414606A80AF0B1
:102D200089FE0699D8F804200292034631B10129A0
:102D30000AD148B16D4A20460BF0C2F96FF0070581
:102D4000284627B0BDE8F08F059B002B34D0D8F87B
:102D5000000001F069F898B166B1A5680D961835C4
:102D60000CAE0FCE0FC533682B602046FFF7D4FEA4
:102D70000125E5E75E4A012120460BF0A1F9DDE7D8
:102D8000059BCBB1D8F800202946204601F0EEF98A
:102D9000022809D1059B132B91D9069B022B8ED1BA
:102DA000544B554A0121C6E7032805D0059B013342
:102DB00005934FF0010B7BE7039B33B9D8F8001064
:102DC00007AA48460AF02DFF054608F10408013F0E
:102DD0009DB3EB68BBF1000F08D0F3B120460BF0B8
:102DE000BDF820460BF018F8444AC4E7ABB1A3681D
:102DF000DDF814A0AE4603F1180CBEE80F00ACE8F5
:102E00000F00DEF80030CCF80030AB682BB96B7CDB
:102E1000FE2B04BF2F7C07F1FF37D5F804C0BCF1AF
:102E2000000F08D0AE46BEE80F000CAE0FC6DEF8AD
:102E3000003033606646A94603E0059B53B1012389
:102E40000393069B17B9022B7FF432AF059B013326
:102E500005932DE7A368DB6A13B1DB68002BEED185
:102E6000274B0093274A119B012120460BF028F99C
:102E7000E5E790F82830A5EB0A05BBB190F82910DA
:102E80004FF6FF72FF2918BF0A469D4202D3134432
:102E90009D420BD983691C4A012120460BF010F991
:102EA0002046FFF739FE6FF0150549E701210AF0CA
:102EB00001FCA06800F543700AF020FCA36811AA89
:102EC000294602EB8A025B6A204698470546A068BD
:102ED0004FF0FF324FF0FF3300F543700AF0B5FBBF
:102EE000A06800210AF0E6FB2AE700BF5B1701009B
:102EF0006F170100D0170100211201008D1701008A
:102F0000BC170100C41A0100F417010010B5836852
:102F100002221A7583689B6C0446BBB90AF06CFBED
:102F20008368D3F87832DB040BD50321084B094AB8
:102F30000BF0C6F8A0686FF4805100F51E700AF01F
:102F400075FB2046BDE8104000F0D6BE10BD00BFA6
:102F50000F180100251401002DE9F04F0446806888
:102F6000B1B0012100F51E700AF051FBA3681B7D72
:102F7000022B20D100230993A36860689E6C03682C
:102F80001D6909AB0EB310221BA9A847099B93B179
:102F9000A06801210AF08EFB099A1BA92046B047C0
:102FA000A06800210AF086FBA3689B6C002BE3D18C
:102FB0002046FFF7ABFFA0686FF0010100F51E701F
:102FC00031B0BDE8F04F0AF031BB01220DF1230111
:102FD000A847099B002BEED09DF923209DF82310D4
:102FE000A368002AC8DB5A7D032A00F29882DFE832
:102FF00012F0040085029C0296020D297CD00A2959
:1030000058D0B3F878226FF3CA02A3F878220929BE
:10301000A06800F086803DD80029ADD0082900F0D6
:10302000FC810346D3F874229207A5D501391629ED
:10303000A2D801A252F821F0CD350000553400008D
:103040005D3400004D340000C13500007B340000C9
:10305000792F0000792F0000792F0000792F0000D0
:10306000833400008B340000792F0000B534000059
:10307000792F0000BF340000792F0000792F000065
:10308000792F0000792F0000C3340000792F000051
:10309000ED3400001B2941D07F2900F0CA81A1F145
:1030A00020025E2A0346BDD801210AF00EFB9DF8DE
:1030B0002310B9E0D3F87822C2F3C7022AB1D3F8BB
:1030C0007822C2F3C7020A2AACD1B3F8782261F39E
:1030D000CA02A3F87822A568B5F85010C1B92846ED
:1030E0000AF0F3FAE0680BF009FB6069FFF74EFDA8
:1030F0002046FFF70BFF3FE7D3F87822C2F3C70261
:10310000002AE2D0D3F87822C2F3C7020D2ADBE707
:103110002046FFF797FDC5F82403E9E7012343752F
:103120002AE7D0F874329B077FF526AF01210AF019
:10313000CCFAA068B0F85030FF2B3FF41DAFB0F8C8
:10314000522000F1560100F5AB700CF079FEA36837
:10315000B3F852201344002583F85651A2681BA9E6
:10316000142302F5AB720BA80AF064FC0B99142926
:103170003FF602AF30AB03EB810343F8545CA36826
:10318000B3F85220002A53D0134493F85530202B23
:1031900002D0093B042B4BD800294CD100250A95BD
:1031A0000A9B30AA02EB8303002653F854AC504626
:1031B0000AF070FAB3468146B046374616AA394639
:1031C000284600F0A3FB0346002840D1012EA76843
:1031D00065D10A9B30AA02EB830353F8540C0AF022
:1031E00059FA07F1180206464146284600F08EFBC0
:1031F000056828460AF04EFA864205D0821B92B234
:10320000A91920460AF0A3FFA068B0F85230034481
:1032100093F85630202B31D0093B042B2ED9D0F80F
:103220007432DF072FD42021204600F02DFDA3E6C5
:103230000129B3D9013900200CAB009301900AABEE
:103240001BAA0AF019FD05460028A9D194E61B68BF
:1032500003934A46514618460CF057FD60B9039B4C
:103260001846FDF719F9584538BF58461FFA80FB34
:10327000002E08BFB846013601379FE701212046DE
:103280000AF0FEFD78E600210AF029FA2021204606
:1032900000F0FAFCA06801210AF021FA6CE6049023
:1032A0007FF66AAE0A9A30AB03EB8202C14652F84F
:1032B000543C039318460AF0EDF9049B0590A7F8D7
:1032C00040300496A26849461832284600F01EFB9A
:1032D000039BD0F800A009F101094BB1BAF1000F2E
:1032E00006D0059A194650460CF00FFD0028E9D18A
:1032F000A168BAF1000F4ED1A1F840A0049B013B98
:103300000493DFD16069FFF741FC204600F0F4FC34
:103310000A9B30AA02EB830308F1010A53F8540C0C
:103320000AF0B8F9414611AA8146284600F0EEFAA3
:103330000746A0683968FF2200F5AB700CF0F7FC77
:103340003B6803934FF6FF77B84616AA51462846C6
:103350000AF1010B00F0DAFA002852D0A1680368E4
:1033600001F25511002211F801EF985C704503D16C
:1033700010B101324245F6D1B9F1000F01D04A45F2
:1033800007DBBA4206F1FF36A8BF3A46012E97B2D4
:1033900037D0DA46D9E7994806910AF07BF90699C1
:1033A00007914A8F00EB0B07BFB2121A504692FBEF
:1033B000F7F292B206920AF06DF90799069A3F1A4F
:1033C000B1F8400000F1010CA1F840C0B0FBF2F1EF
:1033D00002FB110080B2BFB260B9884B884ACDF8B9
:1033E00000A0062120460AF06BFE3946204600F078
:1033F00019FB83E7834A5346062120460AF060FE04
:10340000F3E7002F3FF4B8AD0399A7EB090292B29E
:10341000494420460AF09BFEAEE5D0F874329E0780
:103420007FF5AAAD01210AF050F920460AF0B0FE5E
:10343000A2E5D0F874329D077FF59EAD01210AF018
:1034400044F9A368D3F874321907EED420460AF081
:1034500080FE91E520460AF08AFD8DE520460AF0BF
:103460007DFD20460AF0C1FC10B96069FFF78EFBB4
:10347000A06801210AF029F93AE620460AF080FD09
:103480007AE520460AF087FD76E5D3F874329B068C
:1034900003D55D4960690AF0F0F8A368D3F8743287
:1034A0009F0603D5594960690AF0E7F8204600F005
:1034B00023FC61E500212046FFF76EFB5CE501215E
:1034C000F9E720460AF043FD20460AF095F801216D
:1034D000A0680AF0FAF8A368D3F874329E067FF564
:1034E0004BAD4B4960690AF0C8F845E5204600F04D
:1034F00029FBA06801210AF0E8F83DE55B2902D12B
:1035000002225A7538E5D3F874329D0706D5622930
:1035100007D14FF0FF3120460AF0DBFCA368002200
:10352000EFE76629FAD10121F5E700225A75A26872
:10353000D2F8743298077FF51FADA1F131031B2B30
:103540003FF61AAD01A151F823F000BFC9350000C4
:10355000D5350000E9350000BD350000792F0000A9
:10356000792F0000792F0000792F0000792F0000BB
:10357000792F0000792F0000792F0000792F0000AB
:10358000792F0000792F0000792F0000BF34000050
:10359000B53400007B34000055340000792F000062
:1035A000C1350000792F0000CD350000792F0000D3
:1035B000792F0000792F0000D935000003235375BF
:1035C00020460AF0CBFCD7E40323537520460AF0CB
:1035D000BEFCD1E403235375A068D0F8741201F047
:1035E000010181F0010157E603235375A368D3F865
:1035F00074329B077FF5C0AC28E700BF06100100BE
:1036000053180100251401001D03010022030100CD
:10361000180301002DE9F04104468068154600F5C5
:103620001E70002937D04FF4804109F0F0FFA368E5
:10363000DD646068036800219B68984700284BD1CF
:1036400020460AF082F8002846D1244E244FDFF8A5
:103650009480A06800F52F704FF0FF324FF0FF33D9
:10366000032105F0D7FB0546A0684FF0FF324FF06D
:10367000FF3300F543709DB109F0E7FF20462B466C
:10368000194A01210AF01CFDA068BDE8F04100F5CF
:1036900043700AF033B86FF4804109F0C7FFC6E702
:1036A00009F0D3FF32460221204609F0D0FF3A4606
:1036B0002946204609F0CBFF20464246012109F069
:1036C000C6FF606803685B6903B19847A06800F5AE
:1036D00043700AF013F8BCE7BDE8F081392B000015
:1036E000592F000001D700005918010010B50B49EF
:1036F00004460AF0ACF8204609490AF0A8F820462A
:1037000008490AF0A4F8204607490AF0A0F8204624
:10371000064A002100F00EFB002010BD70180100C9
:10372000AE1801000D19010061190100FB1901001B
:10373000F8B517461E460A46294904460AF087F896
:103740003EB33A78274920460AF081F801256A07F6
:1037500003D1254920460AF07AF8AE421ED97A5D97
:10376000204920460AF073F80135102DEFD11F498A
:1037700020460AF06CF8B6B91B4920460AF067F8F3
:103780000125AE422B4610D8174920460AF05FF8B3
:1037900015E0174920460AF05AF801251449204639
:1037A0000AF055F8E0E700252B46FA5C1149A2F132
:1037B00020035F2B28BF2E2220460AF048F801354F
:1037C000102D06D06B07DCD1074920460AF03FF8E0
:1037D000D7E720460849BDE8F8400AF038B800BFEE
:1037E000111A0100FF0F010007100100091001006C
:1037F00005100100381A0100181A01002DE9F043E4
:10380000044680688846D0F8201389B015461F46C4
:10381000002960D14FF44A720CF03AFBE0680BF0DB
:103820000FF8A06800F543700BF003FE4FF42F79FA
:103830004FF41F76A06830440CF00BF9A06800220A
:1038400083190121484410360CF0DAF8B6F52F7FC1
:1038500009F11409EED1A36900261E60A0680221B7
:1038600000F51E7009F0D3FEA36850225A87A368A2
:1038700018221A87216820460AF02BF8A368174AF5
:1038800066F38205C3F874526068036841461D6898
:103890002346A8470546D0B9A36801221A75D4E982
:1038A0000A0100220023CDE906230E230393109B77
:1038B0000495CDE901730094094B4FF4006204F0C4
:1038C000EBFCA368C3F82003616A04F011FC2846EE
:1038D00009B0BDE8F0836FF07705F8E7A1D60000E6
:1038E0001536000010B5044613460A460146064840
:1038F00001F052FC23691B7923B12046BDE810403A
:103900000AF038B810BD00BF8DD9000038B50B469D
:10391000154648B91449154A521AB3EB920F05D20D
:1039200051F82350284638BD84680CB90025F9E7C2
:103930000F4A94420AD30F4A944207D2184622688B
:10394000294690472B68002BECD1EFE70A4A9442B6
:1039500002D30A4A944205D3246814225343E5183B
:10396000E358F0E70133F8E70802010034020100F0
:1039700010030100100301003402010010030100D4
:10398000F7B51646027800232D2A0446019305D187
:103990006FF015033360002003B0F0BD0CF088FA1F
:1039A0000B4F0546C3510A46204601A908F070FC9A
:1039B000EB59222B02D16FF02103EBE7002BE7D16B
:1039C000019BA342E4D01B78002BE5D0E0E700BFC9
:1039D0000C0000008368D3F874329B0603D50249BB
:1039E00040690AF0E3B970472803010001490AF071
:1039F000DDB900BF421301000A1E0DDC0ED04223C8
:103A00008168D1F87412890608D5002A04494069F2
:103A1000B8BF52420AF0CAB94123F1E7704700BF6C
:103A2000341A01000A1E0DDC0ED044238168D1F83F
:103A30007412890608D5002A04494069B8BF524269
:103A40000AF0B4B94323F1E7704700BF341A01000C
:103A50002DE9F0478568DFF86890044605F15600C7
:103A6000FCF71AFD002395F83C7086B29846A268D0
:103A7000558FED1BB54209DB002E1FDD5633606903
:103A80001049BDE8F0471A440AF090B91D442A4491
:103A9000563392F856A082F85680A26860691A449C
:103AA00049460AF083F9A3682B4483F856A0A3681B
:103AB0005B8FDB1BF61A00272B46D8E7BDE8F087A3
:103AC000211201002514010008290A4617D883682D
:103AD00093F83E10914212D083F83E208368082A62
:103AE000D3F8743205D0990609D5054940690AF022
:103AF0005DB99B0603D5034940690AF057B9704781
:103B00003B1A01002D03010038B50D460978044623
:103B1000FFF7DAFF6A78072A11D8A36893F83F10F5
:103B200091420CD083F83F20A368D3F874329B06EF
:103B300005D560690249BDE838400AF037B938BD9B
:103B4000441A0100F8B58368B3F850200446002AEF
:103B500055D0B3F85210002951D0553103F1560514
:103B60000B441846A84206D3014611F80169202EDD
:103B70003CD0A8423CD286B29DB2AB1B9BB2591C32
:103B8000471CD21A014438460CF068F9A268B2F812
:103B90005030711B13FA81F3A2F85030A368B3F8C8
:103BA00050201344002283F8562009B220460AF020
:103BB00067F9A368D3F874329A0603D5104960698F
:103BC0000AF0F4F83B460F4A082120460AF078FA3A
:103BD0002046FFF7FFFEA368D3F874329B060ED58C
:103BE00060690949BDE8F8400AF0E0B80846B9E75D
:103BF000014611F80169202EBDD00846B9E7F8BD8D
:103C00003203010025140100360301002DE9F041C3
:103C100004460D4617460AB1FFF7DCFEA368B3F869
:103C20005220D3F87412563213444A0721D518464D
:103C3000FCF732FCDFF848800646A6B9A368B3F863
:103C40005020A3F85220A0680AF0BDF820B107B1B7
:103C500015B16069FFF7CAFE6942204609B2BDE8A6
:103C6000F0410AF00DB9606941460AF09FF8013E43
:103C7000E3E7044A082120460AF022FADEE700BF03
:103C8000CF2401002514010013B583688DF80710B7
:103C9000D3F874220446D00725D5B3F85210B3F8F0
:103CA00050208A421FD0481CA3F852000B449DF8B4
:103CB000072083F85620A368D3F87412890710D51B
:103CC000D3F8743260690B4913F0040F18BF2A222D
:103CD0000AF06CF820460AF088F810B16069FFF726
:103CE00085FE02B010BD01220DF1070120460AF049
:103CF000F4F9F6E7381A010010B504468368094A5A
:103D000002210AF0DDF9A368D3F874329B0707D5C6
:103D10002046FFF79DFE2046BDE810400AF08BB814
:103D200010BD00BF2514010001490AF0B6BB00BF59
:103D3000421301002DE9F04F0E46002189B00446E0
:103D400017460D4603AA304601F10108FFF7DEFDD4
:103D5000B0B995B127B13A46082120460AF0B0F92A
:103D60001E4FDFF87C90DFF87CA0002103AA3046CC
:103D700001F10108FFF7CAFD60B909B0BDE8F08F95
:103D8000006810B1FCF788FB80B2854238BF054659
:103D90004146D7E703688BB11A787AB1D0F804B0FE
:103DA0004A46CDE9005308213B4620460AF088F9EF
:103DB000BBF1000F04D16069FFF7B6FF4146D5E7BC
:103DC000524620463B4608210AF07AF9AA1D92B2D3
:103DD000594620460AF06EFBF0E700BF621A010068
:103DE0004D1A0100FA0F0100F7B50F6805460E469F
:103DF000A7B13846FCF750FB84B2094B0093284624
:103E0000084A3B4608210AF05BF9E21C716892B24D
:103E1000284603B0BDE8F0400AF04CBB3C46ECE756
:103E20005E1A01005418010010B507490446FCF75A
:103E300021FB38B105492046FCF71CFBB0FA80F0A5
:103E4000400910BD0120FCE7541A0100571A010077
:103E500010B58368D3F874329B06044603D506492F
:103E600040690AF09EFBA36850225A87A368182273
:103E70001A87002010BD00BF3A03010008B583690E
:103E800002491A6809F0E3FC002008BD651A010028
:103E90002DE9F3410D490E4C0E4EDFF83C800546EE
:103EA00009F0D5FC0022B44202F1010703D300203F
:103EB00002B0BDE8F081636A0093A36892B2414604
:103EC000284609F0C4FC30343A46ECE7751A010084
:103ED000D8010100080201008D1A010008B502494D
:103EE00009F0F7FC002008BD4313010073B50E4E26
:103EF00004460025A268E0680DF1060302F5AB72E6
:103F000001210AF0FEFBBDF80600A36840B12A4675
:103F100003F5AB733146204609F099FC0135E9E71A
:103F200083F8560102B070BD9E1A010010B5044618
:103F300009F012FD03490246204609F088FC0020E2
:103F400010BD00BF9A150100022907B50BD15368B7
:103F5000009312680B4B0C4909F095FC6FF01500AB
:103F600003B05DF804FB8368084AD3F8743208494B
:103F700013F0020F074B18BF1A4609F068FC002027
:103F8000EEE700BFAC1A0100C11A0100A81A010037
:103F9000CA1A0100B511010010B58368D3F8743254
:103FA0009A06044603D5074940690AF0FAFAA3685D
:103FB000D3F874329B0603D5034960690AF0F1FA1D
:103FC000002010BD4103010046030100F0B50129A6
:103FD00085B004460AD05368009312685D4B5E4971
:103FE00009F051FC6FF0150005B0F0BD8368D3F8FF
:103FF0007432990603D5594940690AF0D2FA6FF034
:10400000F9012046FFF7F8FCFA212046FFF70AFDE8
:10401000A06800254FF48072294600F5AB708DF83A
:104020000B500BF035FF4E4960690AF0BAFA60692F
:1040300009F0A0FC4FF47A766068036801221F69DA
:104040000DF10B0103ABB847039BEBB9013E4FF4F5
:104050007A70B6B20BF057F9002EEDD1A368D3F801
:1040600074329B0603D53F4960690AF09AFAA36847
:104070003D4950225A87A368182220461A8709F022
:10408000F4FB6FF00700AFE79DF80B20A3681B2A35
:1040900053D093F856111B29CED1522A4DD15A191B
:1040A000002382F85631A66896F857215B2A2BD157
:1040B00006F25710022510F8011F2A463B2905F188
:1040C0000105ADB223D1FF2AC8D002F5AB7216FAB2
:1040D00082F1002211F8010F18BB86F85601FA2A66
:1040E000A16828BFFA224A87FA2BA26828BFFA23C0
:1040F0001387A368D3F874329A0603D51949606907
:104100000AF04FFA00206FE786F85631A6E703EB76
:104110008303303901EB4301B5F5807F8BB2CAD1FF
:104120009CE7013502EB8202ADB2303800EB420071
:10413000B5F5807F82B2CDD190E72B440135ADB289
:10414000092D83F856217FF677AFA368002283F804
:10415000562183E7AC1A0100C11A01004C0301008B
:10416000151B010050030100DB1A01002DE9F04F7F
:10417000074689B01546894621B110460AF066FB0C
:1041800000285BD1032455E05C463CE029460AF553
:10419000AB700BF0E8FD0646002854D0FCF77CF924
:1041A00082B2601C0132314630440BF057FE224689
:1041B000594630460BF044FE4FF020033355BAF811
:1041C000543001331C44AAF8544008F1010800247B
:1041D00001994B1C03AA48460193FFF797FB06463B
:1041E000E8B13168002228460AF0EDFC0028EFD142
:1041F000D6F800B0D7F808A0BBF1000FC4D05846DD
:10420000FCF74AF984B2BAF854302344FF2BBDDDE1
:104210000E4A2B460321384609F052FF0124B8F11B
:10422000000F07D0B8682A4600F1540100F5AB70C2
:1042300009F0D0FC204609B0BDE8F08F4FF000082F
:1042400041460224C5E70224E9E700BFDD1F010063
:1042500008B5044808F02FFCBDE80840024808F003
:104260002ABC00BF2F20010064200100014805F096
:1042700077BB00BF4008010038B5044618B90F4BA2
:104280000F485B6898476168B1F5683F10D0B1F599
:10429000680F0DD00B4DA9420AD011F46861206857
:1042A00007D0014608480BF08BF8002323606560B7
:1042B00038BD14220BF0ECFDF9E700BF8C0600209E
:1042C000922001002C5F5CA9FC1C002008B520B3E3
:1042D0004368B3F5683F10D101220368BFF35B8FD9
:1042E00053E8001F002903D143E800200028F7D13C
:1042F000BFF35B8F0DD1002008BD094A93420AD05D
:1043000000684FF0FF324FF0FF3303F0B1FC00289C
:10431000F1D00448F0E70448EEE76FF4E040EBE743
:104320002C5F5CA9E98FFFFFEA8FFFFF08B5D8B1CA
:104330004368B3F5683F10D100220368BFF35B8F79
:1043400053E8001F012903D143E800200028F7D1DA
:10435000BFF35B8F0BD1002008BD074A934208D002
:10436000006803F0FDFCF6E76FF4E040F4E7034873
:10437000F2E70348F0E700BF2C5F5CA9E98FFFFF7D
:10438000EA8FFFFF10B5044618B91D4B1D485B6846
:1043900098476368B3F5683F2FD0B3F5680F2CD00A
:1043A000194A934219D1236803BB18484FF0FF32D2
:1043B0004FF0FF33214603F02DFC08B923681BB9E9
:1043C0000F4B13485B6898472068142200210BF0BC
:1043D0005FFD4FF46863636008E0B3F5683F0DD894
:1043E0003A2B03D040F6BA629342DED120680BF03C
:1043F00020F8636843F03A03636010BD054AF3E7B1
:104400008C060020922001002C5F5CA9FC1C00207F
:10441000B82001003A00003A08B506490648402392
:1044200014220AF0BFFFBDE808400449044805F023
:104430005BBB00BFFC170020FC1C002048080100EB
:104440005C0801002DE9F843054600AF0C46002941
:1044500048D0DFF8B890D9F800305A0742D06E46FD
:104460008AB0D1E90001A3686A46DFF8A4C04FF022
:104470000508C2E905C0C2E9071342F8108F0023FE
:104480004FF421514846FDF737FBD9F800305B0760
:10449000B54627D08AB0D4E9030163696A46DFF8DC
:1044A00074C0C2E90713C2E905C042F8108F0023A7
:1044B00048464FF42151FDF71FFBD9F8003058074B
:1044C000B5460FD0E3690121134A484608F0A4FF1E
:1044D000D9F80030590705D0A369104A0121484690
:1044E00008F09AFF012D0AD1EFF30583074802680F
:1044F000520704D00A4A103B294608F08DFF214696
:10450000284603F0BBF9BD46BDE8F88378070020D4
:10451000E520010014210100432101005221010086
:104520008021010030BFFFF7FDBF00BF2DE9F04142
:104530000B4EDFF8308006EB0807CC1B05463246F1
:10454000094920460BF07CFCA01942460021083C9A
:104550000BF09EFCC5F8A84007F10800BDE8F0810B
:10456000000000000800000010030100074A9368E3
:1045700093F90E10002907DB526993421FBF044ACA
:10458000536843F080535360704700BF141E0020EF
:1045900000ED00E0F8B5374C23685B0706460D4692
:1045A00003D0354920460AF0A2F9344B9B6ADF0458
:1045B00051D52368580703D031492E480AF097F99E
:1045C00017202E4B9B6A190507D523685A0703D07D
:1045D0002C4928480AF08BF91820284FBB6A9B0504
:1045E00019D52368580703D0274922480AF07FF9D4
:1045F000BB6BBA6A11040DD52268520704D0234A56
:104600001C48012108F008FF26B11C4A936A23F4D4
:10461000004393621920194B9B6A5B0507D52368F9
:104620005F0703D01A4913480AF061F91A20134BA7
:104630009A6AD60511D52368590703D015490D4844
:104640000AF055F91B200D4A936A43F47F439362A5
:1046500000232B70F8BD1620B3E79B6A9A04F2D5AD
:1046600023685B0703D00C4902480AF040F91C207C
:10467000E9E700BF780700209321010000ED00E08A
:10468000A9210100BA210100CD210100E62101008C
:10469000FB210100162201002E22010010B52D4C35
:1046A00023685A0703D02C4920460AF020F92B4BE7
:1046B0009B6A9B014BD52368580703D0284925489E
:1046C0000AF015F91E20254B9B6AD90107D52368EE
:1046D0005A0703D023491F480AF009F91F201F4B2E
:1046E0009B6A1B0307D52368580703D01E49194846
:1046F0000AF0FDF82120194B9B6A590307D523685E
:104700005A0703D0194913480AF0F1F82220134B35
:104710009B6A9B0307D52368590703D014490D48AA
:104720000AF0E5F823200D4B9B6ADA0307D52368CE
:104730005B0703D00F4907480AF0D9F82420074A3D
:10474000936A6FEA03436FEA1343936210BD1D201F
:10475000B9E700BF780700205D22010000ED00E00E
:104760007522010088220100A2220100C02201005E
:10477000E5220100FF2201002DE9F047454D2B689D
:10478000894659078046174603D0434928460AF010
:10479000AEF8424B9B6ADA0639D52B685B0703D02B
:1047A0003F493C480AF0A3F811243C4B9B6A1E0782
:1047B00007D52B68580703D03A4936480AF097F8CE
:1047C0001224DFF8D8A0DAF82830990721D52B6811
:1047D0005A0703D034492F480AF089F8DAF83460D0
:1047E000DAF828301B0651D52B685C0705D02F4A14
:1047F00028483346012108F00FFEB9F1000F04D01C
:10480000264A936A23F080039362132403E0102462
:10481000CBE76FF01506214B9B6AD80707D52B68AD
:10482000590703D022491B480AF061F814241B4B96
:104830009B6A9A0607D52B685B0703D01D4915486C
:104840000AF055F81524154B9A6AD50602D49A6ACF
:1048500090070AD55B68190507D54146304600F038
:10486000ABFA10B180F3098802240C4B9A6A9206C5
:1048700042BF5A6A22F400525A629A6A42F0FF0218
:104880009A6200233B702046BDE8F0876FF0150662
:10489000BBE700BF780700202A23010000ED00E0FD
:1048A00040230100BA210100732301008B23010082
:1048B000A12301002E2201002DE9F041744B8AB0A2
:1048C000D3F8048000AF0446C8F30806002585F33A
:1048D0001188BFF36F8F02F07F43B3F17F4F0AD18E
:1048E00002F00C03082B15D16A480368590702D05F
:1048F000694909F0FCFF00252C460023FB71F31EDB
:10490000092B00F29F80DFE803F00A91948D9D9DB2
:104910009D9D9D9712074CBF0C460125EDE75D4E0E
:1049200033685B0703D05D49304609F0E0FF0023A0
:10493000FB71574BDA6A900708D53368590703D0E3
:104940005749544809F0D3FF00233CE0DA6A002AB3
:1049500004DA33685A07F7D05249F2E7DB6A5B00A2
:10496000F2D53368580703D04F494A4809F0BFFFD2
:10497000474BA1695A6942F480725A61BFF34F8F65
:10498000BFF36F8F5A6931F8021C22F480725A61AA
:10499000BFF34F8FBFF36F8F4DF60272914208D075
:1049A0009A6AD2B28AB3FA1D01212046FFF7E4FECB
:1049B0003AE03368590705D023683C4A354801215D
:1049C00008F02AFD2368FA79DAB907F1080604F13C
:1049D000200C20686168324603C2083464451646DC
:1049E000F7D17A6A002D4DD0C2F3080121B96FEAE0
:1049F00052226FEA42227A6207F108011846FFF755
:104A000021FD2837BD46BDE8F0819A6A12F47F4F38
:104A100004D0F91D0120FFF7BDFD05E09B6AB3F549
:104A2000803F91D3FFF73AFE0346CCE7FA1D002101
:104A3000BBE7F91D0020EEE7164803685A0783D04C
:104A40001B497FE7134803685B073FF47DAF194AB2
:104A5000194B18F4F87FE8468AB018BF13466A4627
:104A60001649C2E905134FF400731384103E144B2A
:104A7000D66142F8103F00234FF41151FDF73CF886
:104A8000C54661E722F4FF7222F00102B3E700BFDE
:104A900000ED00E078070020EE230100192401005A
:104AA00030240100512401005F2401007E24010014
:104AB0009A240100D5230100C0230100BE24010077
:104AC00004000001044B5A6942F010025A615A690D
:104AD00022F008025A61704700ED00E0EFF3088011
:104AE000EFF3098101B57246FFF7E6FE01BD00BF95
:104AF000002080F31488BFF36F8F01F0E9FC0020E1
:104B000011490860BFF34F8F104880F3088800F008
:104B100033F8202080F311880D484FF0AA014FF49C
:104B200004620AF020FC0A484FF40461401880F344
:104B30000988EFF314800221084380F31488BFF33F
:104B40006F8F00F001F9000094ED00E08074002008
:104B5000C05A00200749D1F890200023C2F3072251
:104B60001846934200DB7047C1F89830C1F8A000A6
:104B70000133F6E700ED00E008B572B6002383F3D9
:104B80001388FFF7E7FF144B4FF0FF32C3F8802084
:104B9000C3F88420C3F88820C3F88C20C3F8902081
:104BA000C3F89420C3F89820C3F89C20C3F8802150
:104BB000C3F88421C3F88821C3F88C21C3F890215D
:104BC000C3F89421C3F89821C3F89C2162B6BFF3BF
:104BD0004F8FBFF36F8F08BD00E100E0084B9B686B
:104BE00083420BD1EFF3058343B1064B5A6842F081
:104BF00080525A605A6A22F400425A620AF05BBD3F
:104C0000141E002000ED00E00A4A93686FF00A01CC
:104C1000C3F8B0100849C3F8AC004B6843F08053A8
:104C20004B60002383F31188BFF36F8F9368D3F831
:104C3000B0007047141E002000ED00E010B50446DF
:104C4000EFF31183202383F31288BFF36F8F0C4B94
:104C5000586998600B4B4FF000625A600A4BD0F8CD
:104C6000A8201A600022D0F8AC30C0F8AC2083F342
:104C70001188BFF36F8F00F00BF9204610BD00BF05
:104C8000141E002000ED00E0181D00200B498A686A
:104C90004FF030001044EFF3098C80E8F01F7446A9
:104CA0007046FFF7CBFFA64604498A6802F1300040
:104CB00090E8F01F8CF3098870470000141E002054
:104CC0001EF0040F0CBFEFF30880EFF30980816939
:104CD00011F8021C0229FFD001B509F0FDFD01BD4C
:104CE00040B2002807DB044A4109012300F01F00FD
:104CF000834042F82130704700E100E0054B420953
:104D000000F01F0053F82220012303FA00F01040A6
:104D1000704700BF00E100E040B20028A8BF00F1EA
:104D2000604001F10101B8BF064B4FEA4111ACBF31
:104D300000F5614000F00F00C9B2B4BF195480F80B
:104D40000013704714ED00E00B4A08B50B4B22F03E
:104D50007F029A60BFF34F8FBFF36F8FD3F8882025
:104D600022F47002C3F8882002F088FE03F04EFEA1
:104D700000F064F802F0CAFE0000000000ED00E060
:104D800042F8203C009B42F81C3C0A49019B42F837
:104D9000183C029B42F8143C21F001014FF0807353
:104DA00042F8043C42F8081C0023203A0265C0F88F
:104DB000AC3070476D1100000A4A0346906878B124
:104DC00013F1160FD0F8980005D0A0F140029A42D6
:104DD00005D8834203D2814228BF002070470020BB
:104DE000704700BF141E002008B515460C4A0D4B35
:104DF0009060D0F8A8201A600E4600F049F82C46C2
:104E000086F309884FF00000074B984720464FF083
:104E100000014FF000024FF00003044C204700BF98
:104E2000141E0020181D0020FFE800006D11000076
:104E3000014B10221A61704700ED00E00448002386
:104E40002021C2180133302B82F80013F9D17047AA
:104E500000E100E008B5EFF30583064A103B02EBE2
:104E6000C30152F8330049688847BDE80840FFF79E
:104E70007DBB00BFC0FF0000024B034A0348012175
:104E800000F092B800000420000000206C0801002F
:104E9000D0F89820054B403A1A60054A4021C3E9F2
:104EA00001121846012100F089B800BF1C1D002026
:104EB00000000B1508B503461148D0F89020C2F346
:104EC0000722013A93420AD90E480268520703D0DA
:104ED0000D4A012108F0A0FA6FF0150008BDC0F8D6
:104EE00098300A6822F01F021A4342F01002C0F8FC
:104EF0009C208A6842F00102C0F8A0201846EDE725
:104F000000ED00E074070020D5240100F0B50E4646
:104F100085B01F4604460025B54210DA606828B304
:104F2000AFB1431E18420DD0124803685B0704D08E
:104F3000114A2B46012108F06FFA6FF01502104656
:104F400005B0F0BD1F28EFD921680B42ECD12368D2
:104F5000019309F0F7FCA36801A90343D0B20393BE
:104F6000FFF7A8FF10F1160FE7D0421C01350C34F3
:104F7000D2E700BF74070020FB240100044B052288
:104F8000C3F89420BFF34F8FBFF36F8F704700BFFC
:104F900000ED00E0BFF35F8F024B0022C3F89420C6
:104FA000704700BF00ED00E010B5034C01232278EC
:104FB000FFF7ACFF207010BDF72E002008B50B4A9C
:104FC00000231278FFF7A2FF10F1160F07D0084A4E
:104FD0000021D2F89030C3F30723984200DB08BDCC
:104FE000C2F89800C2F8A0100130F2E7F72E0020B6
:104FF00000ED00E02DE9F04357485849D0F89030D3
:105000000D68C3F307239D4285B000F2A180FFF72E
:10501000C1FF49680022954201F10C011AD1504CA0
:10502000504F25706846FDF7B3F8DFF83C81DFF894
:105030003C9106460025AE421FD123784649002008
:10504000D1F89020C2F3072293427BDBFFF796FF53
:1050500000204CE0C0F8982051F80C3C23F01F03CE
:10506000134343F01003C0F89C3051F8043C43F064
:105070000103C0F8A0300132CDE7009800EB051124
:105080004FEA051CCB683B40B3F5000F44D00AD86B
:10509000B3F5001F2ED0B3F5800F34D0B3F5801FC9
:1050A00010D00135C7E7B3F1807F3ED0B3F1007F68
:1050B000F7D150F80C3088684A6809F043FC40F496
:1050C000802009E050F80C3088684A6809F03AFC02
:1050D00040F0885040F43020039001A92078CDE9B9
:1050E0000123FFF7E7FE002828DA6FF0150005B06E
:1050F000BDE8F08350F80C3088684A6809F022FC5B
:1051000040EA0800E8E750F80C3088684A6809F07F
:1051100019FC40EA0900DFE750F80C3088684A685B
:1051200009F010FC40F08270D6E750F80C30886827
:105130004A6809F007FC40F08870CDE72378013316
:105140002370AEE7C1F89830C1F8A000013377E7CB
:105150004FF0FF30CBE700BF00ED00E07808010022
:10516000F72E00200000F0FF0000081100000207E9
:1051700008B5024B1B689847002008BD281D002079
:10518000034B044A1860937843F00203937070470E
:10519000281D002050050020F0B587B007460E46B8
:1051A00014460021102268461D460AF071FE0223B3
:1051B0008DF802302A46054B019321466846CDE919
:1051C000047607F0CBF807B0F0BD00BF65E900003A
:1051D00008B5024807F06FFCFEE700BF2D2501006F
:1051E00008B50649064821F00701C1F1005202F551
:1051F000802207F0B0FB002008BD00BF078B002015
:105200002C1D002008B500F0B7F80A4941610A4991
:105210000122C0E900220A6008490A60084A002306
:105220001360084A03611360C0E90233064A136041
:1052300008BD00BF431301007C0500207805002055
:10524000401D00203C1D0020381D00202DE9F041AC
:1052500007460E46154600F08FF8C36804461BB992
:1052600043691A78002A41D10023E3606368BB4296
:1052700056F8232008DB324B6361204600F062F8C9
:105280004FF0FF30BDE8F081511C616192F8008061
:10529000B8F12D0FEFD1911C61615178A1602D29DA
:1052A00004D192786AB901336360E4E749B9244BC9
:1052B0006361414628460AF01BFD0028DDD0C4F892
:1052C0000880D4F80880284641460AF011FDB8F15C
:1052D0003A0F636900D070B91B7813B96368013362
:1052E0006360204600F02EF83F20CBE75A1C426155
:1052F0001B788360E5E742783A2A0BD000222261CE
:105300001B7813B9636801336360204600F01AF814
:10531000A068B7E718786268094928B9013297424E
:10532000626004DD56F82230C4E90431EAE76161C5
:105330002D783A2D2046D5D100F004F82846A1E773
:1053400043130100074B02681A60074B42681A605A
:10535000064B82681A60064BC2681A60054B0269E8
:105360001A6070477C05002078050020401D002051
:105370003C1D0020381D00200048704760050020BB
:105380000E4A0123C2F840354FF080424FF0805161
:10539000C2F87835D1F83001082808D1D1F8341195
:1053A000052904D80648415C09B1C2F838364FF0E7
:1053B00080430122C3F880250020704700E00140AF
:1053C0003A25010020B1034B800143F00103184747
:1053D000704700BF60030100084B70B5C31A0D464B
:1053E00007499B10044659430648402209F0F7FB41
:1053F0002B4601462046BDE870401847581D002046
:10540000B76DDBB65CFF000073B50C4C0C4A402353
:10541000041B00930D460B460A49A410614306463F
:10542000094809F007FC011E05DA30462B4602B098
:10543000BDE87040184702B070BD00BF581D002085
:105440009DEC0000B76DDBB65CFF000010B5EFF31C
:105450001184202383F31288BFF36F8F074A1368E8
:1054600023F00201DB07116002D4012009F01DFEC8
:1054700084F31188BFF36F8F10BD00BFA81D0020FB
:10548000002270B5012104461046FFF745FC0F4885
:1054900001F0A8F90E4B984215D101F0B3F9266935
:1054A0000C49304607F0C1FD00280BDB01253564AF
:1054B0002469084904F11C0007F0B7FD002801DB4E
:1054C000E564002070BD6FF00400FBE7D9550000D3
:1054D0000000AD0B980801007FB500220123CDE943
:1054E000022304ABCDE90433094ACDF800D06B4662
:1054F000CDF804D009F0CBFB002805DB4FF4804247
:105500000023684602F08EFC07B05DF804FB00BF84
:10551000BBEC000030B4104B0C2202FB0033014600
:105520000020D3E90E529863EFF31180202484F316
:105530001288BFF36F8F1C6C04F0C00444F00204A7
:105540001C6480F31188BFF36F8F1DB12B46034895
:1055500030BC184730BC7047581D00205CFF00006D
:1055600010B4EFF31182202383F31288BFF36F8FFF
:105570001748016841F002040460C80707D482F3A9
:105580001188BFF36F8F012010BC01F04DB94FF0AF
:105590008041D1F80C04D1F80C14C907EFD5EFF312
:1055A000118083F31288BFF36F8F0A490B6C03F0ED
:1055B000C00343F002030B6480F31188BFF36F8FC5
:1055C00082F31188BFF36F8F002010BCFFF7A2BFDA
:1055D000A81D0020581D002010B1012804D07047DC
:1055E000034B1B6C5B0701D1FFF794BF704700BFF3
:1055F000581D00202DE9F0413849BFF35B8F074665
:10560000012251E8003F41E800200028F9D1BFF312
:105610005B8F33B9324933484B60CB608A6007F007
:1056200017FD7B1E012B2BD8012F07D14FF0804394
:10563000D3F81C3403F00303012B21D009F045FFFC
:105640000546F8B9284B1B78E3B14FF0804302229E
:10565000C3F808230646DFF894804FF08044D4F85E
:105660001824D4F81834D20315D503F00303012B02
:1056700001D0012F0FD155B386F31188BFF36F8F7F
:10568000BDE8F081EFF31186202383F31288BFF386
:105690006F8F0125DFE7ADB1304609F044F9D4F84A
:1056A0001835002BDBD1D4F80421002AD7D0C4F858
:1056B0000431D4F804310123C4F81835C8F8803116
:1056C000A360CCE70021212003F0A2F8E7E74FF028
:1056D00080430222C3F80423D2E700BF541D0020F8
:1056E000441D0020741D00201A4F002000E100E03E
:1056F00008B5074809F00CFE38B10648FFF740FD31
:105700000448FBF72DFD002008BD6FF01200FBE7F9
:1057100098FF0000195700000A2838B5074D0446C5
:1057200004D1AB680D215B6828469847AB680348F5
:105730005B68E1B29847204638BD00BF98FF000083
:10574000F0B54068057B01F01F0444EA4514056983
:1057500087B0002D64D0B2F5001F00F1100506D10E
:105760002146284609F021FD002007B0F0BD01AE1A
:105770000027B2F5800F0197776039D1B3F1007F30
:1057800014BF052304238DF804300023CDE90463FE
:105790000393836823FA01F111F001011AD1B2F1E8
:1057A000A07F17D104F01F03620903F5E0732AD02C
:1057B000012A3BD11F4A52F82330DB070AD40DF1EE
:1057C000030632462146284601F00CFB1A4B98424C
:1057D0001CD0029603AA2146284601F0C5F9174BB2
:1057E000984220D101222146284601F05FFBBBE709
:1057F000B3F1C06F05D0B3F1007F14BF01230223C2
:10580000C1E70323BFE74FF0A042D4E73146284663
:1058100001F046FB094B9842DBD06FF00B00A4E788
:105820006FF08500A1E76FF015009EE751F8233077
:10583000FFDE00BF000300500400AD0B0000AD0B05
:1058400038B545682B69B3B11035284601F018FB0F
:10585000044680B90146284601F0DEFA084B98421A
:105860000BD108492246284601F0B6FA2246052106
:105870000620FFF751FA002038BD6FF00400FBE767
:105880000000AD0B89580000420970B5034602D0F4
:10589000012A17D070BD0D4E326951680029F9D028
:1058A00003F01F0301250C689D400029F2D08A688F
:1058B0002A4002D04B68304698472CB123682146D5
:1058C0001C46F2E7024EE7E72346F8E784FF0000B4
:1058D00070FF00002DE9F043466840F20635D0061F
:1058E000337B87B002EA050554BFC2F340100320A2
:1058F00001F01F07B5F5837F144647EA43178DF87B
:10590000030045D00FD8062D18D007D8B5B1022D09
:1059100040D06FF0150007B0BDE8F083B5F5807F8B
:10592000F7D101250AE040F20222954234D0B5F5C4
:10593000407F33D0B5F5007FEBD102250123220350
:1059400003FA01F12CD57368C3F80815326982BBDC
:1059500007F01F037F0929D0012F77D13E4A02EBC0
:10596000830284F48033D2F80017C3F30043C4F3F6
:10597000404444EA430421F4E16144EA800421F014
:10598000070144EA05230B43C2F800370020C2E7B1
:105990000725D3E70425D1E70525CFE70325CDE784
:1059A000630344BF7368C3F80C15CFE74FF0A04200
:1059B000D5E710360DF102023946304601F012FAF1
:1059C00014F4403F80460CD13946304609F0EBFBD9
:1059D000224B9845DAD19DF80210304601F05AFA70
:1059E000D4E701AB4FF0000903AA39463046CDE9B0
:1059F0000439CDE90199CDF80C9001F0B5F8174BB9
:105A0000984286D114F4003315D09DF803308DF8F8
:105A10000E3084F48034C4F300444B4603AA394664
:105A200030468DF80C508DF80D4001F057F90B4BB6
:105A30009842CDD06DE7CDE9043303AA0DF10303FD
:105A400039463046039301F08FF8F0E703F5E07331
:105A500052F82330FFDE00BF000300500000AD0B02
:105A600002780B69012A08D0022A08D04AB9064AEE
:105A70005A6303F11C0002F0AFB9044AF8E7044A84
:105A8000F6E7044AF4E700BF0000AD0B0100AE0BDF
:105A90000200AE0B0100AD0B2DE9F04FD0F81090D5
:105AA000D0F8048085B005460C461746029309F1EC
:105AB000040A4FF0FF324FF0FF33504602F0B2F9C4
:105AC00009F11C0B00230022584602F0ABF94046B6
:105AD00001F0A2FC7B1E00260393B74201D80023ED
